{
	".deps/contracts/Loan.sol": {
		"Loan": {
			"abi": [
				{
					"inputs": [],
					"stateMutability": "nonpayable",
					"type": "constructor"
				},
				{
					"inputs": [],
					"name": "AcceptableLoanAmount",
					"outputs": [],
					"stateMutability": "nonpayable",
					"type": "function"
				},
				{
					"inputs": [],
					"name": "BANK_OWNED_MONEY",
					"outputs": [
						{
							"internalType": "uint256",
							"name": "",
							"type": "uint256"
						}
					],
					"stateMutability": "view",
					"type": "function"
				},
				{
					"inputs": [],
					"name": "TakeLoan",
					"outputs": [],
					"stateMutability": "payable",
					"type": "function"
				},
				{
					"inputs": [
						{
							"internalType": "address",
							"name": "",
							"type": "address"
						}
					],
					"name": "balances",
					"outputs": [
						{
							"internalType": "uint256",
							"name": "",
							"type": "uint256"
						}
					],
					"stateMutability": "view",
					"type": "function"
				}
			],
			"devdoc": {
				"kind": "dev",
				"methods": {},
				"version": 1
			},
			"evm": {
				"assembly": "    /* \".deps/contracts/Loan.sol\":60:592  contract Loan {... */\n  mstore(0x40, 0x80)\n    /* \".deps/contracts/Loan.sol\":224:275  constructor() {... */\n  callvalue\n  dup1\n  iszero\n  tag_1\n  jumpi\n  0x00\n  dup1\n  revert\ntag_1:\n  pop\n    /* \".deps/contracts/Loan.sol\":257:267  msg.sender */\n  caller\n    /* \".deps/contracts/Loan.sol\":249:254  owner */\n  0x02\n  0x00\n    /* \".deps/contracts/Loan.sol\":249:267  owner = msg.sender */\n  0x0100\n  exp\n  dup2\n  sload\n  dup2\n  0xffffffffffffffffffffffffffffffffffffffff\n  mul\n  not\n  and\n  swap1\n  dup4\n  0xffffffffffffffffffffffffffffffffffffffff\n  and\n  mul\n  or\n  swap1\n  sstore\n  pop\n    /* \".deps/contracts/Loan.sol\":60:592  contract Loan {... */\n  dataSize(sub_0)\n  dup1\n  dataOffset(sub_0)\n  0x00\n  codecopy\n  0x00\n  return\nstop\n\nsub_0: assembly {\n        /* \".deps/contracts/Loan.sol\":60:592  contract Loan {... */\n      mstore(0x40, 0x80)\n      jumpi(tag_1, lt(calldatasize, 0x04))\n      shr(0xe0, calldataload(0x00))\n      dup1\n      0x27e235e3\n      eq\n      tag_2\n      jumpi\n      dup1\n      0x6b74cc62\n      eq\n      tag_3\n      jumpi\n      dup1\n      0x79128b3d\n      eq\n      tag_4\n      jumpi\n      dup1\n      0xb0e86bdb\n      eq\n      tag_5\n      jumpi\n    tag_1:\n      0x00\n      dup1\n      revert\n        /* \".deps/contracts/Loan.sol\":132:172  mapping(address => uint) public balances */\n    tag_2:\n      callvalue\n      dup1\n      iszero\n      tag_6\n      jumpi\n      0x00\n      dup1\n      revert\n    tag_6:\n      pop\n      tag_7\n      0x04\n      dup1\n      calldatasize\n      sub\n      dup2\n      add\n      swap1\n      tag_8\n      swap2\n      swap1\n      tag_9\n      jump\t// in\n    tag_8:\n      tag_10\n      jump\t// in\n    tag_7:\n      mload(0x40)\n      tag_11\n      swap2\n      swap1\n      tag_12\n      jump\t// in\n    tag_11:\n      mload(0x40)\n      dup1\n      swap2\n      sub\n      swap1\n      return\n        /* \".deps/contracts/Loan.sol\":375:589  function AcceptableLoanAmount() public {... */\n    tag_3:\n      callvalue\n      dup1\n      iszero\n      tag_13\n      jumpi\n      0x00\n      dup1\n      revert\n    tag_13:\n      pop\n      tag_14\n      tag_15\n      jump\t// in\n    tag_14:\n      stop\n        /* \".deps/contracts/Loan.sol\":283:367  function TakeLoan() public payable {... */\n    tag_4:\n      tag_16\n      tag_17\n      jump\t// in\n    tag_16:\n      stop\n        /* \".deps/contracts/Loan.sol\":81:125  uint constant public BANK_OWNED_MONEY = 1000 */\n    tag_5:\n      callvalue\n      dup1\n      iszero\n      tag_18\n      jumpi\n      0x00\n      dup1\n      revert\n    tag_18:\n      pop\n      tag_19\n      tag_20\n      jump\t// in\n    tag_19:\n      mload(0x40)\n      tag_21\n      swap2\n      swap1\n      tag_12\n      jump\t// in\n    tag_21:\n      mload(0x40)\n      dup1\n      swap2\n      sub\n      swap1\n      return\n        /* \".deps/contracts/Loan.sol\":132:172  mapping(address => uint) public balances */\n    tag_10:\n      mstore(0x20, 0x00)\n      dup1\n      0x00\n      mstore\n      keccak256(0x00, 0x40)\n      0x00\n      swap2\n      pop\n      swap1\n      pop\n      sload\n      dup2\n      jump\t// out\n        /* \".deps/contracts/Loan.sol\":375:589  function AcceptableLoanAmount() public {... */\n    tag_15:\n        /* \".deps/contracts/Loan.sol\":121:125  1000 */\n      0x03e8\n        /* \".deps/contracts/Loan.sol\":433:444  wantedMoney */\n      sload(0x01)\n        /* \".deps/contracts/Loan.sol\":433:464  wantedMoney >= BANK_OWNED_MONEY */\n      lt\n      iszero\n        /* \".deps/contracts/Loan.sol\":425:498  require(wantedMoney >= BANK_OWNED_MONEY, \"You can't take that much loan\") */\n      tag_23\n      jumpi\n      mload(0x40)\n      0x08c379a000000000000000000000000000000000000000000000000000000000\n      dup2\n      mstore\n      0x04\n      add\n      tag_24\n      swap1\n      tag_25\n      jump\t// in\n    tag_24:\n      mload(0x40)\n      dup1\n      swap2\n      sub\n      swap1\n      revert\n    tag_23:\n        /* \".deps/contracts/Loan.sol\":121:125  1000 */\n      0x03e8\n        /* \".deps/contracts/Loan.sol\":512:523  wantedMoney */\n      sload(0x01)\n        /* \".deps/contracts/Loan.sol\":512:543  wantedMoney <= BANK_OWNED_MONEY */\n      gt\n        /* \".deps/contracts/Loan.sol\":509:582  if(wantedMoney <= BANK_OWNED_MONEY) {... */\n      tag_26\n      jumpi\n        /* \".deps/contracts/Loan.sol\":560:570  TakeLoan() */\n      tag_27\n        /* \".deps/contracts/Loan.sol\":560:568  TakeLoan */\n      tag_17\n        /* \".deps/contracts/Loan.sol\":560:570  TakeLoan() */\n      jump\t// in\n    tag_27:\n        /* \".deps/contracts/Loan.sol\":509:582  if(wantedMoney <= BANK_OWNED_MONEY) {... */\n    tag_26:\n        /* \".deps/contracts/Loan.sol\":375:589  function AcceptableLoanAmount() public {... */\n      jump\t// out\n        /* \".deps/contracts/Loan.sol\":283:367  function TakeLoan() public payable {... */\n    tag_17:\n        /* \".deps/contracts/Loan.sol\":348:359  wantedMoney */\n      sload(0x01)\n        /* \".deps/contracts/Loan.sol\":329:337  balances */\n      0x00\n        /* \".deps/contracts/Loan.sol\":329:344  balances[owner] */\n      dup1\n        /* \".deps/contracts/Loan.sol\":338:343  owner */\n      0x02\n      0x00\n      swap1\n      sload\n      swap1\n      0x0100\n      exp\n      swap1\n      div\n      0xffffffffffffffffffffffffffffffffffffffff\n      and\n        /* \".deps/contracts/Loan.sol\":329:344  balances[owner] */\n      0xffffffffffffffffffffffffffffffffffffffff\n      and\n      0xffffffffffffffffffffffffffffffffffffffff\n      and\n      dup2\n      mstore\n      0x20\n      add\n      swap1\n      dup2\n      mstore\n      0x20\n      add\n      0x00\n      keccak256\n      0x00\n        /* \".deps/contracts/Loan.sol\":329:359  balances[owner] += wantedMoney */\n      dup3\n      dup3\n      sload\n      tag_29\n      swap2\n      swap1\n      tag_30\n      jump\t// in\n    tag_29:\n      swap3\n      pop\n      pop\n      dup2\n      swap1\n      sstore\n      pop\n        /* \".deps/contracts/Loan.sol\":283:367  function TakeLoan() public payable {... */\n      jump\t// out\n        /* \".deps/contracts/Loan.sol\":81:125  uint constant public BANK_OWNED_MONEY = 1000 */\n    tag_20:\n        /* \".deps/contracts/Loan.sol\":121:125  1000 */\n      0x03e8\n        /* \".deps/contracts/Loan.sol\":81:125  uint constant public BANK_OWNED_MONEY = 1000 */\n      dup2\n      jump\t// out\n        /* \"#utility.yul\":88:205   */\n    tag_32:\n        /* \"#utility.yul\":197:198   */\n      0x00\n        /* \"#utility.yul\":194:195   */\n      dup1\n        /* \"#utility.yul\":187:199   */\n      revert\n        /* \"#utility.yul\":334:460   */\n    tag_34:\n        /* \"#utility.yul\":371:378   */\n      0x00\n        /* \"#utility.yul\":411:453   */\n      0xffffffffffffffffffffffffffffffffffffffff\n        /* \"#utility.yul\":404:409   */\n      dup3\n        /* \"#utility.yul\":400:454   */\n      and\n        /* \"#utility.yul\":389:454   */\n      swap1\n      pop\n        /* \"#utility.yul\":334:460   */\n      swap2\n      swap1\n      pop\n      jump\t// out\n        /* \"#utility.yul\":466:562   */\n    tag_35:\n        /* \"#utility.yul\":503:510   */\n      0x00\n        /* \"#utility.yul\":532:556   */\n      tag_50\n        /* \"#utility.yul\":550:555   */\n      dup3\n        /* \"#utility.yul\":532:556   */\n      tag_34\n      jump\t// in\n    tag_50:\n        /* \"#utility.yul\":521:556   */\n      swap1\n      pop\n        /* \"#utility.yul\":466:562   */\n      swap2\n      swap1\n      pop\n      jump\t// out\n        /* \"#utility.yul\":568:690   */\n    tag_36:\n        /* \"#utility.yul\":641:665   */\n      tag_52\n        /* \"#utility.yul\":659:664   */\n      dup2\n        /* \"#utility.yul\":641:665   */\n      tag_35\n      jump\t// in\n    tag_52:\n        /* \"#utility.yul\":634:639   */\n      dup2\n        /* \"#utility.yul\":631:666   */\n      eq\n        /* \"#utility.yul\":621:684   */\n      tag_53\n      jumpi\n        /* \"#utility.yul\":680:681   */\n      0x00\n        /* \"#utility.yul\":677:678   */\n      dup1\n        /* \"#utility.yul\":670:682   */\n      revert\n        /* \"#utility.yul\":621:684   */\n    tag_53:\n        /* \"#utility.yul\":568:690   */\n      pop\n      jump\t// out\n        /* \"#utility.yul\":696:835   */\n    tag_37:\n        /* \"#utility.yul\":742:747   */\n      0x00\n        /* \"#utility.yul\":780:786   */\n      dup2\n        /* \"#utility.yul\":767:787   */\n      calldataload\n        /* \"#utility.yul\":758:787   */\n      swap1\n      pop\n        /* \"#utility.yul\":796:829   */\n      tag_55\n        /* \"#utility.yul\":823:828   */\n      dup2\n        /* \"#utility.yul\":796:829   */\n      tag_36\n      jump\t// in\n    tag_55:\n        /* \"#utility.yul\":696:835   */\n      swap3\n      swap2\n      pop\n      pop\n      jump\t// out\n        /* \"#utility.yul\":841:1170   */\n    tag_9:\n        /* \"#utility.yul\":900:906   */\n      0x00\n        /* \"#utility.yul\":949:951   */\n      0x20\n        /* \"#utility.yul\":937:946   */\n      dup3\n        /* \"#utility.yul\":928:935   */\n      dup5\n        /* \"#utility.yul\":924:947   */\n      sub\n        /* \"#utility.yul\":920:952   */\n      slt\n        /* \"#utility.yul\":917:1036   */\n      iszero\n      tag_57\n      jumpi\n        /* \"#utility.yul\":955:1034   */\n      tag_58\n      tag_32\n      jump\t// in\n    tag_58:\n        /* \"#utility.yul\":917:1036   */\n    tag_57:\n        /* \"#utility.yul\":1075:1076   */\n      0x00\n        /* \"#utility.yul\":1100:1153   */\n      tag_59\n        /* \"#utility.yul\":1145:1152   */\n      dup5\n        /* \"#utility.yul\":1136:1142   */\n      dup3\n        /* \"#utility.yul\":1125:1134   */\n      dup6\n        /* \"#utility.yul\":1121:1143   */\n      add\n        /* \"#utility.yul\":1100:1153   */\n      tag_37\n      jump\t// in\n    tag_59:\n        /* \"#utility.yul\":1090:1153   */\n      swap2\n      pop\n        /* \"#utility.yul\":1046:1163   */\n      pop\n        /* \"#utility.yul\":841:1170   */\n      swap3\n      swap2\n      pop\n      pop\n      jump\t// out\n        /* \"#utility.yul\":1176:1253   */\n    tag_38:\n        /* \"#utility.yul\":1213:1220   */\n      0x00\n        /* \"#utility.yul\":1242:1247   */\n      dup2\n        /* \"#utility.yul\":1231:1247   */\n      swap1\n      pop\n        /* \"#utility.yul\":1176:1253   */\n      swap2\n      swap1\n      pop\n      jump\t// out\n        /* \"#utility.yul\":1259:1377   */\n    tag_39:\n        /* \"#utility.yul\":1346:1370   */\n      tag_62\n        /* \"#utility.yul\":1364:1369   */\n      dup2\n        /* \"#utility.yul\":1346:1370   */\n      tag_38\n      jump\t// in\n    tag_62:\n        /* \"#utility.yul\":1341:1344   */\n      dup3\n        /* \"#utility.yul\":1334:1371   */\n      mstore\n        /* \"#utility.yul\":1259:1377   */\n      pop\n      pop\n      jump\t// out\n        /* \"#utility.yul\":1383:1605   */\n    tag_12:\n        /* \"#utility.yul\":1476:1480   */\n      0x00\n        /* \"#utility.yul\":1514:1516   */\n      0x20\n        /* \"#utility.yul\":1503:1512   */\n      dup3\n        /* \"#utility.yul\":1499:1517   */\n      add\n        /* \"#utility.yul\":1491:1517   */\n      swap1\n      pop\n        /* \"#utility.yul\":1527:1598   */\n      tag_64\n        /* \"#utility.yul\":1595:1596   */\n      0x00\n        /* \"#utility.yul\":1584:1593   */\n      dup4\n        /* \"#utility.yul\":1580:1597   */\n      add\n        /* \"#utility.yul\":1571:1577   */\n      dup5\n        /* \"#utility.yul\":1527:1598   */\n      tag_39\n      jump\t// in\n    tag_64:\n        /* \"#utility.yul\":1383:1605   */\n      swap3\n      swap2\n      pop\n      pop\n      jump\t// out\n        /* \"#utility.yul\":1611:1780   */\n    tag_40:\n        /* \"#utility.yul\":1695:1706   */\n      0x00\n        /* \"#utility.yul\":1729:1735   */\n      dup3\n        /* \"#utility.yul\":1724:1727   */\n      dup3\n        /* \"#utility.yul\":1717:1736   */\n      mstore\n        /* \"#utility.yul\":1769:1773   */\n      0x20\n        /* \"#utility.yul\":1764:1767   */\n      dup3\n        /* \"#utility.yul\":1760:1774   */\n      add\n        /* \"#utility.yul\":1745:1774   */\n      swap1\n      pop\n        /* \"#utility.yul\":1611:1780   */\n      swap3\n      swap2\n      pop\n      pop\n      jump\t// out\n        /* \"#utility.yul\":1786:1965   */\n    tag_41:\n        /* \"#utility.yul\":1926:1957   */\n      0x596f752063616e27742074616b652074686174206d756368206c6f616e000000\n        /* \"#utility.yul\":1922:1923   */\n      0x00\n        /* \"#utility.yul\":1914:1920   */\n      dup3\n        /* \"#utility.yul\":1910:1924   */\n      add\n        /* \"#utility.yul\":1903:1958   */\n      mstore\n        /* \"#utility.yul\":1786:1965   */\n      pop\n      jump\t// out\n        /* \"#utility.yul\":1971:2337   */\n    tag_42:\n        /* \"#utility.yul\":2113:2116   */\n      0x00\n        /* \"#utility.yul\":2134:2201   */\n      tag_68\n        /* \"#utility.yul\":2198:2200   */\n      0x1d\n        /* \"#utility.yul\":2193:2196   */\n      dup4\n        /* \"#utility.yul\":2134:2201   */\n      tag_40\n      jump\t// in\n    tag_68:\n        /* \"#utility.yul\":2127:2201   */\n      swap2\n      pop\n        /* \"#utility.yul\":2210:2303   */\n      tag_69\n        /* \"#utility.yul\":2299:2302   */\n      dup3\n        /* \"#utility.yul\":2210:2303   */\n      tag_41\n      jump\t// in\n    tag_69:\n        /* \"#utility.yul\":2328:2330   */\n      0x20\n        /* \"#utility.yul\":2323:2326   */\n      dup3\n        /* \"#utility.yul\":2319:2331   */\n      add\n        /* \"#utility.yul\":2312:2331   */\n      swap1\n      pop\n        /* \"#utility.yul\":1971:2337   */\n      swap2\n      swap1\n      pop\n      jump\t// out\n        /* \"#utility.yul\":2343:2762   */\n    tag_25:\n        /* \"#utility.yul\":2509:2513   */\n      0x00\n        /* \"#utility.yul\":2547:2549   */\n      0x20\n        /* \"#utility.yul\":2536:2545   */\n      dup3\n        /* \"#utility.yul\":2532:2550   */\n      add\n        /* \"#utility.yul\":2524:2550   */\n      swap1\n      pop\n        /* \"#utility.yul\":2596:2605   */\n      dup2\n        /* \"#utility.yul\":2590:2594   */\n      dup2\n        /* \"#utility.yul\":2586:2606   */\n      sub\n        /* \"#utility.yul\":2582:2583   */\n      0x00\n        /* \"#utility.yul\":2571:2580   */\n      dup4\n        /* \"#utility.yul\":2567:2584   */\n      add\n        /* \"#utility.yul\":2560:2607   */\n      mstore\n        /* \"#utility.yul\":2624:2755   */\n      tag_71\n        /* \"#utility.yul\":2750:2754   */\n      dup2\n        /* \"#utility.yul\":2624:2755   */\n      tag_42\n      jump\t// in\n    tag_71:\n        /* \"#utility.yul\":2616:2755   */\n      swap1\n      pop\n        /* \"#utility.yul\":2343:2762   */\n      swap2\n      swap1\n      pop\n      jump\t// out\n        /* \"#utility.yul\":2768:2948   */\n    tag_43:\n        /* \"#utility.yul\":2816:2893   */\n      0x4e487b7100000000000000000000000000000000000000000000000000000000\n        /* \"#utility.yul\":2813:2814   */\n      0x00\n        /* \"#utility.yul\":2806:2894   */\n      mstore\n        /* \"#utility.yul\":2913:2917   */\n      0x11\n        /* \"#utility.yul\":2910:2911   */\n      0x04\n        /* \"#utility.yul\":2903:2918   */\n      mstore\n        /* \"#utility.yul\":2937:2941   */\n      0x24\n        /* \"#utility.yul\":2934:2935   */\n      0x00\n        /* \"#utility.yul\":2927:2942   */\n      revert\n        /* \"#utility.yul\":2954:3145   */\n    tag_30:\n        /* \"#utility.yul\":2994:2997   */\n      0x00\n        /* \"#utility.yul\":3013:3033   */\n      tag_74\n        /* \"#utility.yul\":3031:3032   */\n      dup3\n        /* \"#utility.yul\":3013:3033   */\n      tag_38\n      jump\t// in\n    tag_74:\n        /* \"#utility.yul\":3008:3033   */\n      swap2\n      pop\n        /* \"#utility.yul\":3047:3067   */\n      tag_75\n        /* \"#utility.yul\":3065:3066   */\n      dup4\n        /* \"#utility.yul\":3047:3067   */\n      tag_38\n      jump\t// in\n    tag_75:\n        /* \"#utility.yul\":3042:3067   */\n      swap3\n      pop\n        /* \"#utility.yul\":3090:3091   */\n      dup3\n        /* \"#utility.yul\":3087:3088   */\n      dup3\n        /* \"#utility.yul\":3083:3092   */\n      add\n        /* \"#utility.yul\":3076:3092   */\n      swap1\n      pop\n        /* \"#utility.yul\":3111:3114   */\n      dup1\n        /* \"#utility.yul\":3108:3109   */\n      dup3\n        /* \"#utility.yul\":3105:3115   */\n      gt\n        /* \"#utility.yul\":3102:3138   */\n      iszero\n      tag_76\n      jumpi\n        /* \"#utility.yul\":3118:3136   */\n      tag_77\n      tag_43\n      jump\t// in\n    tag_77:\n        /* \"#utility.yul\":3102:3138   */\n    tag_76:\n        /* \"#utility.yul\":2954:3145   */\n      swap3\n      swap2\n      pop\n      pop\n      jump\t// out\n\n    auxdata: 0xa2646970667358221220871535639f011278f16785dabac505c18aed7500372cb58c8157d690d6abab2b64736f6c63430008120033\n}\n",
				"bytecode": {
					"linkReferences": {},
					"object": "608060405234801561001057600080fd5b5033600260006101000a81548173ffffffffffffffffffffffffffffffffffffffff021916908373ffffffffffffffffffffffffffffffffffffffff16021790555061039d806100616000396000f3fe60806040526004361061003f5760003560e01c806327e235e3146100445780636b74cc621461008157806379128b3d14610098578063b0e86bdb146100a2575b600080fd5b34801561005057600080fd5b5061006b60048036038101906100669190610226565b6100cd565b604051610078919061026c565b60405180910390f35b34801561008d57600080fd5b506100966100e5565b005b6100a0610142565b005b3480156100ae57600080fd5b506100b76101bd565b6040516100c4919061026c565b60405180910390f35b60006020528060005260406000206000915090505481565b6103e8600154101561012c576040517f08c379a0000000000000000000000000000000000000000000000000000000008152600401610123906102e4565b60405180910390fd5b6103e8600154116101405761013f610142565b5b565b600154600080600260009054906101000a900473ffffffffffffffffffffffffffffffffffffffff1673ffffffffffffffffffffffffffffffffffffffff1673ffffffffffffffffffffffffffffffffffffffff16815260200190815260200160002060008282546101b49190610333565b92505081905550565b6103e881565b600080fd5b600073ffffffffffffffffffffffffffffffffffffffff82169050919050565b60006101f3826101c8565b9050919050565b610203816101e8565b811461020e57600080fd5b50565b600081359050610220816101fa565b92915050565b60006020828403121561023c5761023b6101c3565b5b600061024a84828501610211565b91505092915050565b6000819050919050565b61026681610253565b82525050565b6000602082019050610281600083018461025d565b92915050565b600082825260208201905092915050565b7f596f752063616e27742074616b652074686174206d756368206c6f616e000000600082015250565b60006102ce601d83610287565b91506102d982610298565b602082019050919050565b600060208201905081810360008301526102fd816102c1565b9050919050565b7f4e487b7100000000000000000000000000000000000000000000000000000000600052601160045260246000fd5b600061033e82610253565b915061034983610253565b925082820190508082111561036157610360610304565b5b9291505056fea2646970667358221220871535639f011278f16785dabac505c18aed7500372cb58c8157d690d6abab2b64736f6c63430008120033",
					"opcodes": "PUSH1 0x80 PUSH1 0x40 MSTORE CALLVALUE DUP1 ISZERO PUSH2 0x10 JUMPI PUSH1 0x0 DUP1 REVERT JUMPDEST POP CALLER PUSH1 0x2 PUSH1 0x0 PUSH2 0x100 EXP DUP2 SLOAD DUP2 PUSH20 0xFFFFFFFFFFFFFFFFFFFFFFFFFFFFFFFFFFFFFFFF MUL NOT AND SWAP1 DUP4 PUSH20 0xFFFFFFFFFFFFFFFFFFFFFFFFFFFFFFFFFFFFFFFF AND MUL OR SWAP1 SSTORE POP PUSH2 0x39D DUP1 PUSH2 0x61 PUSH1 0x0 CODECOPY PUSH1 0x0 RETURN INVALID PUSH1 0x80 PUSH1 0x40 MSTORE PUSH1 0x4 CALLDATASIZE LT PUSH2 0x3F JUMPI PUSH1 0x0 CALLDATALOAD PUSH1 0xE0 SHR DUP1 PUSH4 0x27E235E3 EQ PUSH2 0x44 JUMPI DUP1 PUSH4 0x6B74CC62 EQ PUSH2 0x81 JUMPI DUP1 PUSH4 0x79128B3D EQ PUSH2 0x98 JUMPI DUP1 PUSH4 0xB0E86BDB EQ PUSH2 0xA2 JUMPI JUMPDEST PUSH1 0x0 DUP1 REVERT JUMPDEST CALLVALUE DUP1 ISZERO PUSH2 0x50 JUMPI PUSH1 0x0 DUP1 REVERT JUMPDEST POP PUSH2 0x6B PUSH1 0x4 DUP1 CALLDATASIZE SUB DUP2 ADD SWAP1 PUSH2 0x66 SWAP2 SWAP1 PUSH2 0x226 JUMP JUMPDEST PUSH2 0xCD JUMP JUMPDEST PUSH1 0x40 MLOAD PUSH2 0x78 SWAP2 SWAP1 PUSH2 0x26C JUMP JUMPDEST PUSH1 0x40 MLOAD DUP1 SWAP2 SUB SWAP1 RETURN JUMPDEST CALLVALUE DUP1 ISZERO PUSH2 0x8D JUMPI PUSH1 0x0 DUP1 REVERT JUMPDEST POP PUSH2 0x96 PUSH2 0xE5 JUMP JUMPDEST STOP JUMPDEST PUSH2 0xA0 PUSH2 0x142 JUMP JUMPDEST STOP JUMPDEST CALLVALUE DUP1 ISZERO PUSH2 0xAE JUMPI PUSH1 0x0 DUP1 REVERT JUMPDEST POP PUSH2 0xB7 PUSH2 0x1BD JUMP JUMPDEST PUSH1 0x40 MLOAD PUSH2 0xC4 SWAP2 SWAP1 PUSH2 0x26C JUMP JUMPDEST PUSH1 0x40 MLOAD DUP1 SWAP2 SUB SWAP1 RETURN JUMPDEST PUSH1 0x0 PUSH1 0x20 MSTORE DUP1 PUSH1 0x0 MSTORE PUSH1 0x40 PUSH1 0x0 KECCAK256 PUSH1 0x0 SWAP2 POP SWAP1 POP SLOAD DUP2 JUMP JUMPDEST PUSH2 0x3E8 PUSH1 0x1 SLOAD LT ISZERO PUSH2 0x12C JUMPI PUSH1 0x40 MLOAD PUSH32 0x8C379A000000000000000000000000000000000000000000000000000000000 DUP2 MSTORE PUSH1 0x4 ADD PUSH2 0x123 SWAP1 PUSH2 0x2E4 JUMP JUMPDEST PUSH1 0x40 MLOAD DUP1 SWAP2 SUB SWAP1 REVERT JUMPDEST PUSH2 0x3E8 PUSH1 0x1 SLOAD GT PUSH2 0x140 JUMPI PUSH2 0x13F PUSH2 0x142 JUMP JUMPDEST JUMPDEST JUMP JUMPDEST PUSH1 0x1 SLOAD PUSH1 0x0 DUP1 PUSH1 0x2 PUSH1 0x0 SWAP1 SLOAD SWAP1 PUSH2 0x100 EXP SWAP1 DIV PUSH20 0xFFFFFFFFFFFFFFFFFFFFFFFFFFFFFFFFFFFFFFFF AND PUSH20 0xFFFFFFFFFFFFFFFFFFFFFFFFFFFFFFFFFFFFFFFF AND PUSH20 0xFFFFFFFFFFFFFFFFFFFFFFFFFFFFFFFFFFFFFFFF AND DUP2 MSTORE PUSH1 0x20 ADD SWAP1 DUP2 MSTORE PUSH1 0x20 ADD PUSH1 0x0 KECCAK256 PUSH1 0x0 DUP3 DUP3 SLOAD PUSH2 0x1B4 SWAP2 SWAP1 PUSH2 0x333 JUMP JUMPDEST SWAP3 POP POP DUP2 SWAP1 SSTORE POP JUMP JUMPDEST PUSH2 0x3E8 DUP2 JUMP JUMPDEST PUSH1 0x0 DUP1 REVERT JUMPDEST PUSH1 0x0 PUSH20 0xFFFFFFFFFFFFFFFFFFFFFFFFFFFFFFFFFFFFFFFF DUP3 AND SWAP1 POP SWAP2 SWAP1 POP JUMP JUMPDEST PUSH1 0x0 PUSH2 0x1F3 DUP3 PUSH2 0x1C8 JUMP JUMPDEST SWAP1 POP SWAP2 SWAP1 POP JUMP JUMPDEST PUSH2 0x203 DUP2 PUSH2 0x1E8 JUMP JUMPDEST DUP2 EQ PUSH2 0x20E JUMPI PUSH1 0x0 DUP1 REVERT JUMPDEST POP JUMP JUMPDEST PUSH1 0x0 DUP2 CALLDATALOAD SWAP1 POP PUSH2 0x220 DUP2 PUSH2 0x1FA JUMP JUMPDEST SWAP3 SWAP2 POP POP JUMP JUMPDEST PUSH1 0x0 PUSH1 0x20 DUP3 DUP5 SUB SLT ISZERO PUSH2 0x23C JUMPI PUSH2 0x23B PUSH2 0x1C3 JUMP JUMPDEST JUMPDEST PUSH1 0x0 PUSH2 0x24A DUP5 DUP3 DUP6 ADD PUSH2 0x211 JUMP JUMPDEST SWAP2 POP POP SWAP3 SWAP2 POP POP JUMP JUMPDEST PUSH1 0x0 DUP2 SWAP1 POP SWAP2 SWAP1 POP JUMP JUMPDEST PUSH2 0x266 DUP2 PUSH2 0x253 JUMP JUMPDEST DUP3 MSTORE POP POP JUMP JUMPDEST PUSH1 0x0 PUSH1 0x20 DUP3 ADD SWAP1 POP PUSH2 0x281 PUSH1 0x0 DUP4 ADD DUP5 PUSH2 0x25D JUMP JUMPDEST SWAP3 SWAP2 POP POP JUMP JUMPDEST PUSH1 0x0 DUP3 DUP3 MSTORE PUSH1 0x20 DUP3 ADD SWAP1 POP SWAP3 SWAP2 POP POP JUMP JUMPDEST PUSH32 0x596F752063616E27742074616B652074686174206D756368206C6F616E000000 PUSH1 0x0 DUP3 ADD MSTORE POP JUMP JUMPDEST PUSH1 0x0 PUSH2 0x2CE PUSH1 0x1D DUP4 PUSH2 0x287 JUMP JUMPDEST SWAP2 POP PUSH2 0x2D9 DUP3 PUSH2 0x298 JUMP JUMPDEST PUSH1 0x20 DUP3 ADD SWAP1 POP SWAP2 SWAP1 POP JUMP JUMPDEST PUSH1 0x0 PUSH1 0x20 DUP3 ADD SWAP1 POP DUP2 DUP2 SUB PUSH1 0x0 DUP4 ADD MSTORE PUSH2 0x2FD DUP2 PUSH2 0x2C1 JUMP JUMPDEST SWAP1 POP SWAP2 SWAP1 POP JUMP JUMPDEST PUSH32 0x4E487B7100000000000000000000000000000000000000000000000000000000 PUSH1 0x0 MSTORE PUSH1 0x11 PUSH1 0x4 MSTORE PUSH1 0x24 PUSH1 0x0 REVERT JUMPDEST PUSH1 0x0 PUSH2 0x33E DUP3 PUSH2 0x253 JUMP JUMPDEST SWAP2 POP PUSH2 0x349 DUP4 PUSH2 0x253 JUMP JUMPDEST SWAP3 POP DUP3 DUP3 ADD SWAP1 POP DUP1 DUP3 GT ISZERO PUSH2 0x361 JUMPI PUSH2 0x360 PUSH2 0x304 JUMP JUMPDEST JUMPDEST SWAP3 SWAP2 POP POP JUMP INVALID LOG2 PUSH5 0x6970667358 0x22 SLT KECCAK256 DUP8 ISZERO CALLDATALOAD PUSH4 0x9F011278 CALL PUSH8 0x85DABAC505C18AED PUSH22 0x372CB58C8157D690D6ABAB2B64736F6C6343000812 STOP CALLER "
				},
				"gasEstimates": {
					"creation": {
						"codeDepositCost": "185000",
						"executionCost": "24492",
						"totalCost": "209492"
					},
					"external": {
						"AcceptableLoanAmount()": "infinite",
						"BANK_OWNED_MONEY()": "373",
						"TakeLoan()": "infinite",
						"balances(address)": "2792"
					}
				},
				"methodIdentifiers": {
					"AcceptableLoanAmount()": "6b74cc62",
					"BANK_OWNED_MONEY()": "b0e86bdb",
					"TakeLoan()": "79128b3d",
					"balances(address)": "27e235e3"
				}
			},
			"storageLayout": {
				"storage": [
					{
						"astId": 8,
						"contract": ".deps/contracts/Loan.sol:Loan",
						"label": "balances",
						"offset": 0,
						"slot": "0",
						"type": "t_mapping(t_address,t_uint256)"
					},
					{
						"astId": 10,
						"contract": ".deps/contracts/Loan.sol:Loan",
						"label": "wantedMoney",
						"offset": 0,
						"slot": "1",
						"type": "t_uint256"
					},
					{
						"astId": 12,
						"contract": ".deps/contracts/Loan.sol:Loan",
						"label": "owner",
						"offset": 0,
						"slot": "2",
						"type": "t_address"
					}
				],
				"types": {
					"t_address": {
						"encoding": "inplace",
						"label": "address",
						"numberOfBytes": "20"
					},
					"t_mapping(t_address,t_uint256)": {
						"encoding": "mapping",
						"key": "t_address",
						"label": "mapping(address => uint256)",
						"numberOfBytes": "32",
						"value": "t_uint256"
					},
					"t_uint256": {
						"encoding": "inplace",
						"label": "uint256",
						"numberOfBytes": "32"
					}
				}
			},
			"userdoc": {
				"kind": "user",
				"methods": {},
				"version": 1
			}
		}
	}
}