{
	".deps/contracts/Bank.sol": {
		"Bank": {
			"abi": [
				{
					"inputs": [
						{
							"internalType": "address",
							"name": "",
							"type": "address"
						},
						{
							"internalType": "string",
							"name": "",
							"type": "string"
						}
					],
					"name": "balances",
					"outputs": [
						{
							"internalType": "uint256",
							"name": "",
							"type": "uint256"
						}
					],
					"stateMutability": "view",
					"type": "function"
				},
				{
					"inputs": [
						{
							"internalType": "string",
							"name": "currency",
							"type": "string"
						}
					],
					"name": "checkAllBalance",
					"outputs": [
						{
							"internalType": "address[]",
							"name": "",
							"type": "address[]"
						},
						{
							"internalType": "uint256[]",
							"name": "",
							"type": "uint256[]"
						}
					],
					"stateMutability": "view",
					"type": "function"
				},
				{
					"inputs": [],
					"name": "checkDollarBalance",
					"outputs": [
						{
							"internalType": "address[]",
							"name": "",
							"type": "address[]"
						},
						{
							"internalType": "uint256[]",
							"name": "",
							"type": "uint256[]"
						}
					],
					"stateMutability": "view",
					"type": "function"
				},
				{
					"inputs": [],
					"name": "checkEuroBalance",
					"outputs": [
						{
							"internalType": "address[]",
							"name": "",
							"type": "address[]"
						},
						{
							"internalType": "uint256[]",
							"name": "",
							"type": "uint256[]"
						}
					],
					"stateMutability": "view",
					"type": "function"
				},
				{
					"inputs": [],
					"name": "checkSterlinBalance",
					"outputs": [
						{
							"internalType": "address[]",
							"name": "",
							"type": "address[]"
						},
						{
							"internalType": "uint256[]",
							"name": "",
							"type": "uint256[]"
						}
					],
					"stateMutability": "view",
					"type": "function"
				},
				{
					"inputs": [],
					"name": "decrementValue",
					"outputs": [],
					"stateMutability": "nonpayable",
					"type": "function"
				},
				{
					"inputs": [
						{
							"internalType": "string",
							"name": "currency",
							"type": "string"
						}
					],
					"name": "deposit",
					"outputs": [],
					"stateMutability": "payable",
					"type": "function"
				},
				{
					"inputs": [],
					"name": "incrementValue",
					"outputs": [],
					"stateMutability": "nonpayable",
					"type": "function"
				},
				{
					"inputs": [],
					"name": "resetTheAssets",
					"outputs": [],
					"stateMutability": "nonpayable",
					"type": "function"
				},
				{
					"inputs": [
						{
							"internalType": "uint256",
							"name": "amount",
							"type": "uint256"
						},
						{
							"internalType": "address",
							"name": "to",
							"type": "address"
						},
						{
							"internalType": "string",
							"name": "currency",
							"type": "string"
						}
					],
					"name": "transfer",
					"outputs": [],
					"stateMutability": "nonpayable",
					"type": "function"
				},
				{
					"inputs": [],
					"name": "viewSender",
					"outputs": [
						{
							"internalType": "address",
							"name": "",
							"type": "address"
						}
					],
					"stateMutability": "view",
					"type": "function"
				},
				{
					"inputs": [],
					"name": "viewValue",
					"outputs": [
						{
							"internalType": "uint256",
							"name": "",
							"type": "uint256"
						}
					],
					"stateMutability": "view",
					"type": "function"
				},
				{
					"inputs": [
						{
							"internalType": "uint256",
							"name": "amount",
							"type": "uint256"
						},
						{
							"internalType": "string",
							"name": "currency",
							"type": "string"
						}
					],
					"name": "withdraw",
					"outputs": [],
					"stateMutability": "nonpayable",
					"type": "function"
				}
			],
			"devdoc": {
				"kind": "dev",
				"methods": {},
				"version": 1
			},
			"evm": {
				"assembly": "    /* \".deps/contracts/Bank.sol\":117:3019  contract Bank {... */\n  mstore(0x40, 0x80)\n  callvalue\n  dup1\n  iszero\n  tag_1\n  jumpi\n  0x00\n  dup1\n  revert\ntag_1:\n  pop\n  dataSize(sub_0)\n  dup1\n  dataOffset(sub_0)\n  0x00\n  codecopy\n  0x00\n  return\nstop\n\nsub_0: assembly {\n        /* \".deps/contracts/Bank.sol\":117:3019  contract Bank {... */\n      mstore(0x40, 0x80)\n      jumpi(tag_1, lt(calldatasize, 0x04))\n      shr(0xe0, calldataload(0x00))\n      dup1\n      0x343d4ef2\n      gt\n      tag_15\n      jumpi\n      dup1\n      0x783f87c7\n      gt\n      tag_16\n      jumpi\n      dup1\n      0x783f87c7\n      eq\n      tag_11\n      jumpi\n      dup1\n      0xa26e1186\n      eq\n      tag_12\n      jumpi\n      dup1\n      0xdc048cf2\n      eq\n      tag_13\n      jumpi\n      dup1\n      0xe4745970\n      eq\n      tag_14\n      jumpi\n      jump(tag_1)\n    tag_16:\n      dup1\n      0x343d4ef2\n      eq\n      tag_8\n      jumpi\n      dup1\n      0x3bfd7fd3\n      eq\n      tag_9\n      jumpi\n      dup1\n      0x6a1d23ed\n      eq\n      tag_10\n      jumpi\n      jump(tag_1)\n    tag_15:\n      dup1\n      0x05749175\n      eq\n      tag_2\n      jumpi\n      dup1\n      0x05d01f50\n      eq\n      tag_3\n      jumpi\n      dup1\n      0x11b42537\n      eq\n      tag_4\n      jumpi\n      dup1\n      0x1432c9dd\n      eq\n      tag_5\n      jumpi\n      dup1\n      0x16b78191\n      eq\n      tag_6\n      jumpi\n      dup1\n      0x1a6a9594\n      eq\n      tag_7\n      jumpi\n    tag_1:\n      0x00\n      dup1\n      revert\n        /* \".deps/contracts/Bank.sol\":2939:3016  function resetTheAssets() public onlyOwner {... */\n    tag_2:\n      callvalue\n      dup1\n      iszero\n      tag_17\n      jumpi\n      0x00\n      dup1\n      revert\n    tag_17:\n      pop\n      tag_18\n      tag_19\n      jump\t// in\n    tag_18:\n      stop\n        /* \".deps/contracts/Bank.sol\":138:197  mapping(address => mapping(string => uint)) public balances */\n    tag_3:\n      callvalue\n      dup1\n      iszero\n      tag_20\n      jumpi\n      0x00\n      dup1\n      revert\n    tag_20:\n      pop\n      tag_21\n      0x04\n      dup1\n      calldatasize\n      sub\n      dup2\n      add\n      swap1\n      tag_22\n      swap2\n      swap1\n      tag_23\n      jump\t// in\n    tag_22:\n      tag_24\n      jump\t// in\n    tag_21:\n      mload(0x40)\n      tag_25\n      swap2\n      swap1\n      tag_26\n      jump\t// in\n    tag_25:\n      mload(0x40)\n      dup1\n      swap2\n      sub\n      swap1\n      return\n        /* \".deps/contracts/Bank.sol\":1725:1854  function checkEuroBalance() public view returns(address[] memory, uint[] memory) {... */\n    tag_4:\n      callvalue\n      dup1\n      iszero\n      tag_27\n      jumpi\n      0x00\n      dup1\n      revert\n    tag_27:\n      pop\n      tag_28\n      tag_29\n      jump\t// in\n    tag_28:\n      mload(0x40)\n      tag_30\n      swap3\n      swap2\n      swap1\n      tag_31\n      jump\t// in\n    tag_30:\n      mload(0x40)\n      dup1\n      swap2\n      sub\n      swap1\n      return\n        /* \".deps/contracts/Bank.sol\":1586:1717  function checkDollarBalance() public view returns(address[] memory, uint[] memory) {... */\n    tag_5:\n      callvalue\n      dup1\n      iszero\n      tag_32\n      jumpi\n      0x00\n      dup1\n      revert\n    tag_32:\n      pop\n      tag_33\n      tag_34\n      jump\t// in\n    tag_33:\n      mload(0x40)\n      tag_35\n      swap3\n      swap2\n      swap1\n      tag_31\n      jump\t// in\n    tag_35:\n      mload(0x40)\n      dup1\n      swap2\n      sub\n      swap1\n      return\n        /* \".deps/contracts/Bank.sol\":2850:2931  function decrementValue() public onlyOwner {... */\n    tag_6:\n      callvalue\n      dup1\n      iszero\n      tag_36\n      jumpi\n      0x00\n      dup1\n      revert\n    tag_36:\n      pop\n      tag_37\n      tag_38\n      jump\t// in\n    tag_37:\n      stop\n        /* \".deps/contracts/Bank.sol\":2663:2753  function viewValue() public view returns(uint) {... */\n    tag_7:\n      callvalue\n      dup1\n      iszero\n      tag_39\n      jumpi\n      0x00\n      dup1\n      revert\n    tag_39:\n      pop\n      tag_40\n      tag_41\n      jump\t// in\n    tag_40:\n      mload(0x40)\n      tag_42\n      swap2\n      swap1\n      tag_26\n      jump\t// in\n    tag_42:\n      mload(0x40)\n      dup1\n      swap2\n      sub\n      swap1\n      return\n        /* \".deps/contracts/Bank.sol\":1862:1994  function checkSterlinBalance() public view returns(address[] memory, uint[] memory) {... */\n    tag_8:\n      callvalue\n      dup1\n      iszero\n      tag_43\n      jumpi\n      0x00\n      dup1\n      revert\n    tag_43:\n      pop\n      tag_44\n      tag_45\n      jump\t// in\n    tag_44:\n      mload(0x40)\n      tag_46\n      swap3\n      swap2\n      swap1\n      tag_31\n      jump\t// in\n    tag_46:\n      mload(0x40)\n      dup1\n      swap2\n      sub\n      swap1\n      return\n        /* \".deps/contracts/Bank.sol\":2761:2842  function incrementValue() public onlyOwner {... */\n    tag_9:\n      callvalue\n      dup1\n      iszero\n      tag_47\n      jumpi\n      0x00\n      dup1\n      revert\n    tag_47:\n      pop\n      tag_48\n      tag_49\n      jump\t// in\n    tag_48:\n      stop\n        /* \".deps/contracts/Bank.sol\":2002:2084  function viewSender() public view returns(address) {... */\n    tag_10:\n      callvalue\n      dup1\n      iszero\n      tag_50\n      jumpi\n      0x00\n      dup1\n      revert\n    tag_50:\n      pop\n      tag_51\n      tag_52\n      jump\t// in\n    tag_51:\n      mload(0x40)\n      tag_53\n      swap2\n      swap1\n      tag_54\n      jump\t// in\n    tag_53:\n      mload(0x40)\n      dup1\n      swap2\n      sub\n      swap1\n      return\n        /* \".deps/contracts/Bank.sol\":752:1578  function checkAllBalance(string memory currency) public view returns(address[] memory, uint[] memory) {... */\n    tag_11:\n      callvalue\n      dup1\n      iszero\n      tag_55\n      jumpi\n      0x00\n      dup1\n      revert\n    tag_55:\n      pop\n      tag_56\n      0x04\n      dup1\n      calldatasize\n      sub\n      dup2\n      add\n      swap1\n      tag_57\n      swap2\n      swap1\n      tag_58\n      jump\t// in\n    tag_57:\n      tag_59\n      jump\t// in\n    tag_56:\n      mload(0x40)\n      tag_60\n      swap3\n      swap2\n      swap1\n      tag_31\n      jump\t// in\n    tag_60:\n      mload(0x40)\n      dup1\n      swap2\n      sub\n      swap1\n      return\n        /* \".deps/contracts/Bank.sol\":407:597  function deposit(string memory currency) public payable onlyOwner {... */\n    tag_12:\n      tag_61\n      0x04\n      dup1\n      calldatasize\n      sub\n      dup2\n      add\n      swap1\n      tag_62\n      swap2\n      swap1\n      tag_58\n      jump\t// in\n    tag_62:\n      tag_63\n      jump\t// in\n    tag_61:\n      stop\n        /* \".deps/contracts/Bank.sol\":2092:2359  function withdraw(uint amount, string memory currency) public onlyOwner {... */\n    tag_13:\n      callvalue\n      dup1\n      iszero\n      tag_64\n      jumpi\n      0x00\n      dup1\n      revert\n    tag_64:\n      pop\n      tag_65\n      0x04\n      dup1\n      calldatasize\n      sub\n      dup2\n      add\n      swap1\n      tag_66\n      swap2\n      swap1\n      tag_67\n      jump\t// in\n    tag_66:\n      tag_68\n      jump\t// in\n    tag_65:\n      stop\n        /* \".deps/contracts/Bank.sol\":2367:2655  function transfer(uint amount, address to, string memory currency) public onlyOwner {... */\n    tag_14:\n      callvalue\n      dup1\n      iszero\n      tag_69\n      jumpi\n      0x00\n      dup1\n      revert\n    tag_69:\n      pop\n      tag_70\n      0x04\n      dup1\n      calldatasize\n      sub\n      dup2\n      add\n      swap1\n      tag_71\n      swap2\n      swap1\n      tag_72\n      jump\t// in\n    tag_71:\n      tag_73\n      jump\t// in\n    tag_70:\n      stop\n        /* \".deps/contracts/Bank.sol\":2939:3016  function resetTheAssets() public onlyOwner {... */\n    tag_19:\n        /* \".deps/contracts/Bank.sol\":373:378  owner */\n      0x01\n      0x00\n      swap1\n      sload\n      swap1\n      0x0100\n      exp\n      swap1\n      div\n      0xffffffffffffffffffffffffffffffffffffffff\n      and\n        /* \".deps/contracts/Bank.sol\":359:378  msg.sender == owner */\n      0xffffffffffffffffffffffffffffffffffffffff\n      and\n        /* \".deps/contracts/Bank.sol\":359:369  msg.sender */\n      caller\n        /* \".deps/contracts/Bank.sol\":359:378  msg.sender == owner */\n      0xffffffffffffffffffffffffffffffffffffffff\n      and\n      eq\n        /* \".deps/contracts/Bank.sol\":351:379  require(msg.sender == owner) */\n      tag_75\n      jumpi\n      0x00\n      dup1\n      revert\n    tag_75:\n        /* \".deps/contracts/Bank.sol\":2993:3000  counter */\n      0x02\n      0x00\n      swap1\n      sload\n      swap1\n      0x0100\n      exp\n      swap1\n      div\n      0xffffffffffffffffffffffffffffffffffffffff\n      and\n        /* \".deps/contracts/Bank.sol\":2993:3006  counter.reset */\n      0xffffffffffffffffffffffffffffffffffffffff\n      and\n      0xd826f88f\n        /* \".deps/contracts/Bank.sol\":2993:3008  counter.reset() */\n      mload(0x40)\n      dup2\n      0xffffffff\n      and\n      0xe0\n      shl\n      dup2\n      mstore\n      0x04\n      add\n      0x00\n      mload(0x40)\n      dup1\n      dup4\n      sub\n      dup2\n      0x00\n      dup8\n      dup1\n      extcodesize\n      iszero\n      dup1\n      iszero\n      tag_77\n      jumpi\n      0x00\n      dup1\n      revert\n    tag_77:\n      pop\n      gas\n      call\n      iszero\n      dup1\n      iszero\n      tag_79\n      jumpi\n      returndatasize\n      0x00\n      dup1\n      returndatacopy\n      revert(0x00, returndatasize)\n    tag_79:\n      pop\n      pop\n      pop\n      pop\n        /* \".deps/contracts/Bank.sol\":2939:3016  function resetTheAssets() public onlyOwner {... */\n      jump\t// out\n        /* \".deps/contracts/Bank.sol\":138:197  mapping(address => mapping(string => uint)) public balances */\n    tag_24:\n      mstore(0x20, 0x00)\n      dup2\n      0x00\n      mstore\n      keccak256(0x00, 0x40)\n      dup2\n      dup1\n      mload\n      0x20\n      dup2\n      add\n      dup3\n      add\n      dup1\n      mload\n      dup5\n      dup3\n      mstore\n      0x20\n      dup4\n      add\n      0x20\n      dup6\n      add\n      keccak256\n      dup2\n      dup4\n      mstore\n      dup1\n      swap6\n      pop\n      pop\n      pop\n      pop\n      pop\n      pop\n      0x00\n      swap2\n      pop\n      swap2\n      pop\n      pop\n      sload\n      dup2\n      jump\t// out\n        /* \".deps/contracts/Bank.sol\":1725:1854  function checkEuroBalance() public view returns(address[] memory, uint[] memory) {... */\n    tag_29:\n        /* \".deps/contracts/Bank.sol\":1773:1789  address[] memory */\n      0x60\n        /* \".deps/contracts/Bank.sol\":1791:1804  uint[] memory */\n      dup1\n        /* \".deps/contracts/Bank.sol\":1824:1846  checkAllBalance(\"EUR\") */\n      tag_81\n      mload(0x40)\n      dup1\n      0x40\n      add\n      0x40\n      mstore\n      dup1\n      0x03\n      dup2\n      mstore\n      0x20\n      add\n      0x4555520000000000000000000000000000000000000000000000000000000000\n      dup2\n      mstore\n      pop\n        /* \".deps/contracts/Bank.sol\":1824:1839  checkAllBalance */\n      tag_59\n        /* \".deps/contracts/Bank.sol\":1824:1846  checkAllBalance(\"EUR\") */\n      jump\t// in\n    tag_81:\n        /* \".deps/contracts/Bank.sol\":1817:1846  return checkAllBalance(\"EUR\") */\n      swap2\n      pop\n      swap2\n      pop\n        /* \".deps/contracts/Bank.sol\":1725:1854  function checkEuroBalance() public view returns(address[] memory, uint[] memory) {... */\n      swap1\n      swap2\n      jump\t// out\n        /* \".deps/contracts/Bank.sol\":1586:1717  function checkDollarBalance() public view returns(address[] memory, uint[] memory) {... */\n    tag_34:\n        /* \".deps/contracts/Bank.sol\":1636:1652  address[] memory */\n      0x60\n        /* \".deps/contracts/Bank.sol\":1654:1667  uint[] memory */\n      dup1\n        /* \".deps/contracts/Bank.sol\":1687:1709  checkAllBalance(\"USD\") */\n      tag_83\n      mload(0x40)\n      dup1\n      0x40\n      add\n      0x40\n      mstore\n      dup1\n      0x03\n      dup2\n      mstore\n      0x20\n      add\n      0x5553440000000000000000000000000000000000000000000000000000000000\n      dup2\n      mstore\n      pop\n        /* \".deps/contracts/Bank.sol\":1687:1702  checkAllBalance */\n      tag_59\n        /* \".deps/contracts/Bank.sol\":1687:1709  checkAllBalance(\"USD\") */\n      jump\t// in\n    tag_83:\n        /* \".deps/contracts/Bank.sol\":1680:1709  return checkAllBalance(\"USD\") */\n      swap2\n      pop\n      swap2\n      pop\n        /* \".deps/contracts/Bank.sol\":1586:1717  function checkDollarBalance() public view returns(address[] memory, uint[] memory) {... */\n      swap1\n      swap2\n      jump\t// out\n        /* \".deps/contracts/Bank.sol\":2850:2931  function decrementValue() public onlyOwner {... */\n    tag_38:\n        /* \".deps/contracts/Bank.sol\":373:378  owner */\n      0x01\n      0x00\n      swap1\n      sload\n      swap1\n      0x0100\n      exp\n      swap1\n      div\n      0xffffffffffffffffffffffffffffffffffffffff\n      and\n        /* \".deps/contracts/Bank.sol\":359:378  msg.sender == owner */\n      0xffffffffffffffffffffffffffffffffffffffff\n      and\n        /* \".deps/contracts/Bank.sol\":359:369  msg.sender */\n      caller\n        /* \".deps/contracts/Bank.sol\":359:378  msg.sender == owner */\n      0xffffffffffffffffffffffffffffffffffffffff\n      and\n      eq\n        /* \".deps/contracts/Bank.sol\":351:379  require(msg.sender == owner) */\n      tag_85\n      jumpi\n      0x00\n      dup1\n      revert\n    tag_85:\n        /* \".deps/contracts/Bank.sol\":2904:2911  counter */\n      0x02\n      0x00\n      swap1\n      sload\n      swap1\n      0x0100\n      exp\n      swap1\n      div\n      0xffffffffffffffffffffffffffffffffffffffff\n      and\n        /* \".deps/contracts/Bank.sol\":2904:2921  counter.decrement */\n      0xffffffffffffffffffffffffffffffffffffffff\n      and\n      0x2baeceb7\n        /* \".deps/contracts/Bank.sol\":2904:2923  counter.decrement() */\n      mload(0x40)\n      dup2\n      0xffffffff\n      and\n      0xe0\n      shl\n      dup2\n      mstore\n      0x04\n      add\n      0x00\n      mload(0x40)\n      dup1\n      dup4\n      sub\n      dup2\n      0x00\n      dup8\n      dup1\n      extcodesize\n      iszero\n      dup1\n      iszero\n      tag_87\n      jumpi\n      0x00\n      dup1\n      revert\n    tag_87:\n      pop\n      gas\n      call\n      iszero\n      dup1\n      iszero\n      tag_89\n      jumpi\n      returndatasize\n      0x00\n      dup1\n      returndatacopy\n      revert(0x00, returndatasize)\n    tag_89:\n      pop\n      pop\n      pop\n      pop\n        /* \".deps/contracts/Bank.sol\":2850:2931  function decrementValue() public onlyOwner {... */\n      jump\t// out\n        /* \".deps/contracts/Bank.sol\":2663:2753  function viewValue() public view returns(uint) {... */\n    tag_41:\n        /* \".deps/contracts/Bank.sol\":2704:2708  uint */\n      0x00\n        /* \".deps/contracts/Bank.sol\":2728:2735  counter */\n      0x02\n      0x00\n      swap1\n      sload\n      swap1\n      0x0100\n      exp\n      swap1\n      div\n      0xffffffffffffffffffffffffffffffffffffffff\n      and\n        /* \".deps/contracts/Bank.sol\":2728:2743  counter.current */\n      0xffffffffffffffffffffffffffffffffffffffff\n      and\n      0x9fa6a6e3\n        /* \".deps/contracts/Bank.sol\":2728:2745  counter.current() */\n      mload(0x40)\n      dup2\n      0xffffffff\n      and\n      0xe0\n      shl\n      dup2\n      mstore\n      0x04\n      add\n      0x20\n      mload(0x40)\n      dup1\n      dup4\n      sub\n      dup2\n      dup7\n      gas\n      staticcall\n      iszero\n      dup1\n      iszero\n      tag_92\n      jumpi\n      returndatasize\n      0x00\n      dup1\n      returndatacopy\n      revert(0x00, returndatasize)\n    tag_92:\n      pop\n      pop\n      pop\n      pop\n      mload(0x40)\n      returndatasize\n      not(0x1f)\n      0x1f\n      dup3\n      add\n      and\n      dup3\n      add\n      dup1\n      0x40\n      mstore\n      pop\n      dup2\n      add\n      swap1\n      tag_93\n      swap2\n      swap1\n      tag_94\n      jump\t// in\n    tag_93:\n        /* \".deps/contracts/Bank.sol\":2721:2745  return counter.current() */\n      swap1\n      pop\n        /* \".deps/contracts/Bank.sol\":2663:2753  function viewValue() public view returns(uint) {... */\n      swap1\n      jump\t// out\n        /* \".deps/contracts/Bank.sol\":1862:1994  function checkSterlinBalance() public view returns(address[] memory, uint[] memory) {... */\n    tag_45:\n        /* \".deps/contracts/Bank.sol\":1913:1929  address[] memory */\n      0x60\n        /* \".deps/contracts/Bank.sol\":1931:1944  uint[] memory */\n      dup1\n        /* \".deps/contracts/Bank.sol\":1964:1986  checkAllBalance(\"STR\") */\n      tag_96\n      mload(0x40)\n      dup1\n      0x40\n      add\n      0x40\n      mstore\n      dup1\n      0x03\n      dup2\n      mstore\n      0x20\n      add\n      0x5354520000000000000000000000000000000000000000000000000000000000\n      dup2\n      mstore\n      pop\n        /* \".deps/contracts/Bank.sol\":1964:1979  checkAllBalance */\n      tag_59\n        /* \".deps/contracts/Bank.sol\":1964:1986  checkAllBalance(\"STR\") */\n      jump\t// in\n    tag_96:\n        /* \".deps/contracts/Bank.sol\":1957:1986  return checkAllBalance(\"STR\") */\n      swap2\n      pop\n      swap2\n      pop\n        /* \".deps/contracts/Bank.sol\":1862:1994  function checkSterlinBalance() public view returns(address[] memory, uint[] memory) {... */\n      swap1\n      swap2\n      jump\t// out\n        /* \".deps/contracts/Bank.sol\":2761:2842  function incrementValue() public onlyOwner {... */\n    tag_49:\n        /* \".deps/contracts/Bank.sol\":373:378  owner */\n      0x01\n      0x00\n      swap1\n      sload\n      swap1\n      0x0100\n      exp\n      swap1\n      div\n      0xffffffffffffffffffffffffffffffffffffffff\n      and\n        /* \".deps/contracts/Bank.sol\":359:378  msg.sender == owner */\n      0xffffffffffffffffffffffffffffffffffffffff\n      and\n        /* \".deps/contracts/Bank.sol\":359:369  msg.sender */\n      caller\n        /* \".deps/contracts/Bank.sol\":359:378  msg.sender == owner */\n      0xffffffffffffffffffffffffffffffffffffffff\n      and\n      eq\n        /* \".deps/contracts/Bank.sol\":351:379  require(msg.sender == owner) */\n      tag_98\n      jumpi\n      0x00\n      dup1\n      revert\n    tag_98:\n        /* \".deps/contracts/Bank.sol\":2815:2822  counter */\n      0x02\n      0x00\n      swap1\n      sload\n      swap1\n      0x0100\n      exp\n      swap1\n      div\n      0xffffffffffffffffffffffffffffffffffffffff\n      and\n        /* \".deps/contracts/Bank.sol\":2815:2832  counter.increment */\n      0xffffffffffffffffffffffffffffffffffffffff\n      and\n      0xd09de08a\n        /* \".deps/contracts/Bank.sol\":2815:2834  counter.increment() */\n      mload(0x40)\n      dup2\n      0xffffffff\n      and\n      0xe0\n      shl\n      dup2\n      mstore\n      0x04\n      add\n      0x00\n      mload(0x40)\n      dup1\n      dup4\n      sub\n      dup2\n      0x00\n      dup8\n      dup1\n      extcodesize\n      iszero\n      dup1\n      iszero\n      tag_100\n      jumpi\n      0x00\n      dup1\n      revert\n    tag_100:\n      pop\n      gas\n      call\n      iszero\n      dup1\n      iszero\n      tag_102\n      jumpi\n      returndatasize\n      0x00\n      dup1\n      returndatacopy\n      revert(0x00, returndatasize)\n    tag_102:\n      pop\n      pop\n      pop\n      pop\n        /* \".deps/contracts/Bank.sol\":2761:2842  function incrementValue() public onlyOwner {... */\n      jump\t// out\n        /* \".deps/contracts/Bank.sol\":2002:2084  function viewSender() public view returns(address) {... */\n    tag_52:\n        /* \".deps/contracts/Bank.sol\":2044:2051  address */\n      0x00\n        /* \".deps/contracts/Bank.sol\":2071:2076  owner */\n      0x01\n      0x00\n      swap1\n      sload\n      swap1\n      0x0100\n      exp\n      swap1\n      div\n      0xffffffffffffffffffffffffffffffffffffffff\n      and\n        /* \".deps/contracts/Bank.sol\":2064:2076  return owner */\n      swap1\n      pop\n        /* \".deps/contracts/Bank.sol\":2002:2084  function viewSender() public view returns(address) {... */\n      swap1\n      jump\t// out\n        /* \".deps/contracts/Bank.sol\":752:1578  function checkAllBalance(string memory currency) public view returns(address[] memory, uint[] memory) {... */\n    tag_59:\n        /* \".deps/contracts/Bank.sol\":821:837  address[] memory */\n      0x60\n        /* \".deps/contracts/Bank.sol\":839:852  uint[] memory */\n      dup1\n        /* \".deps/contracts/Bank.sol\":865:891  address[] memory addresses */\n      0x60\n        /* \".deps/contracts/Bank.sol\":902:934  uint[] memory balancesByCurrency */\n      dup1\n        /* \".deps/contracts/Bank.sol\":945:955  uint count */\n      0x00\n        /* \".deps/contracts/Bank.sol\":974:980  uint i */\n      dup1\n        /* \".deps/contracts/Bank.sol\":970:1118  for(uint i=0; i<addresses.length; i++) {... */\n    tag_105:\n        /* \".deps/contracts/Bank.sol\":986:995  addresses */\n      dup4\n        /* \".deps/contracts/Bank.sol\":986:1002  addresses.length */\n      mload\n        /* \".deps/contracts/Bank.sol\":984:985  i */\n      dup2\n        /* \".deps/contracts/Bank.sol\":984:1002  i<addresses.length */\n      lt\n        /* \".deps/contracts/Bank.sol\":970:1118  for(uint i=0; i<addresses.length; i++) {... */\n      iszero\n      tag_106\n      jumpi\n        /* \".deps/contracts/Bank.sol\":1062:1063  0 */\n      0x00\n        /* \".deps/contracts/Bank.sol\":1027:1035  balances */\n      dup1\n        /* \".deps/contracts/Bank.sol\":1027:1049  balances[addresses[i]] */\n      0x00\n        /* \".deps/contracts/Bank.sol\":1036:1045  addresses */\n      dup7\n        /* \".deps/contracts/Bank.sol\":1046:1047  i */\n      dup5\n        /* \".deps/contracts/Bank.sol\":1036:1048  addresses[i] */\n      dup2\n      mload\n      dup2\n      lt\n      tag_108\n      jumpi\n      tag_109\n      tag_110\n      jump\t// in\n    tag_109:\n    tag_108:\n      0x20\n      mul\n      0x20\n      add\n      add\n      mload\n        /* \".deps/contracts/Bank.sol\":1027:1049  balances[addresses[i]] */\n      0xffffffffffffffffffffffffffffffffffffffff\n      and\n      0xffffffffffffffffffffffffffffffffffffffff\n      and\n      dup2\n      mstore\n      0x20\n      add\n      swap1\n      dup2\n      mstore\n      0x20\n      add\n      0x00\n      keccak256\n        /* \".deps/contracts/Bank.sol\":1050:1058  currency */\n      dup9\n        /* \".deps/contracts/Bank.sol\":1027:1059  balances[addresses[i]][currency] */\n      mload(0x40)\n      tag_111\n      swap2\n      swap1\n      tag_112\n      jump\t// in\n    tag_111:\n      swap1\n      dup2\n      mstore\n      0x20\n      add\n      mload(0x40)\n      dup1\n      swap2\n      sub\n      swap1\n      keccak256\n      sload\n        /* \".deps/contracts/Bank.sol\":1027:1063  balances[addresses[i]][currency] > 0 */\n      gt\n        /* \".deps/contracts/Bank.sol\":1024:1107  if(balances[addresses[i]][currency] > 0) {... */\n      iszero\n      tag_113\n      jumpi\n        /* \".deps/contracts/Bank.sol\":1084:1091  count++ */\n      dup2\n      dup1\n      tag_114\n      swap1\n      tag_115\n      jump\t// in\n    tag_114:\n      swap3\n      pop\n      pop\n        /* \".deps/contracts/Bank.sol\":1024:1107  if(balances[addresses[i]][currency] > 0) {... */\n    tag_113:\n        /* \".deps/contracts/Bank.sol\":1004:1007  i++ */\n      dup1\n      dup1\n      tag_116\n      swap1\n      tag_115\n      jump\t// in\n    tag_116:\n      swap2\n      pop\n      pop\n        /* \".deps/contracts/Bank.sol\":970:1118  for(uint i=0; i<addresses.length; i++) {... */\n      jump(tag_105)\n    tag_106:\n      pop\n        /* \".deps/contracts/Bank.sol\":1154:1159  count */\n      dup1\n        /* \".deps/contracts/Bank.sol\":1140:1160  new address[](count) */\n      0xffffffffffffffff\n      dup2\n      gt\n      iszero\n      tag_117\n      jumpi\n      tag_118\n      tag_119\n      jump\t// in\n    tag_118:\n    tag_117:\n      mload(0x40)\n      swap1\n      dup1\n      dup3\n      mstore\n      dup1\n      0x20\n      mul\n      0x20\n      add\n      dup3\n      add\n      0x40\n      mstore\n      dup1\n      iszero\n      tag_120\n      jumpi\n      dup2\n      0x20\n      add\n      0x20\n      dup3\n      mul\n      dup1\n      calldatasize\n      dup4\n      calldatacopy\n      dup1\n      dup3\n      add\n      swap2\n      pop\n      pop\n      swap1\n      pop\n    tag_120:\n      pop\n        /* \".deps/contracts/Bank.sol\":1128:1160  addresses = new address[](count) */\n      swap3\n      pop\n        /* \".deps/contracts/Bank.sol\":1203:1208  count */\n      dup1\n        /* \".deps/contracts/Bank.sol\":1192:1209  new uint[](count) */\n      0xffffffffffffffff\n      dup2\n      gt\n      iszero\n      tag_121\n      jumpi\n      tag_122\n      tag_119\n      jump\t// in\n    tag_122:\n    tag_121:\n      mload(0x40)\n      swap1\n      dup1\n      dup3\n      mstore\n      dup1\n      0x20\n      mul\n      0x20\n      add\n      dup3\n      add\n      0x40\n      mstore\n      dup1\n      iszero\n      tag_123\n      jumpi\n      dup2\n      0x20\n      add\n      0x20\n      dup3\n      mul\n      dup1\n      calldatasize\n      dup4\n      calldatacopy\n      dup1\n      dup3\n      add\n      swap2\n      pop\n      pop\n      swap1\n      pop\n    tag_123:\n      pop\n        /* \".deps/contracts/Bank.sol\":1171:1209  balancesByCurrency = new uint[](count) */\n      swap2\n      pop\n        /* \".deps/contracts/Bank.sol\":1220:1230  uint index */\n      0x00\n        /* \".deps/contracts/Bank.sol\":1249:1255  uint i */\n      dup1\n        /* \".deps/contracts/Bank.sol\":1245:1522  for(uint i=0; i<addresses.length; i++) {... */\n    tag_124:\n        /* \".deps/contracts/Bank.sol\":1261:1270  addresses */\n      dup5\n        /* \".deps/contracts/Bank.sol\":1261:1277  addresses.length */\n      mload\n        /* \".deps/contracts/Bank.sol\":1259:1260  i */\n      dup2\n        /* \".deps/contracts/Bank.sol\":1259:1277  i<addresses.length */\n      lt\n        /* \".deps/contracts/Bank.sol\":1245:1522  for(uint i=0; i<addresses.length; i++) {... */\n      iszero\n      tag_125\n      jumpi\n        /* \".deps/contracts/Bank.sol\":1337:1338  0 */\n      0x00\n        /* \".deps/contracts/Bank.sol\":1302:1310  balances */\n      dup1\n        /* \".deps/contracts/Bank.sol\":1302:1324  balances[addresses[i]] */\n      0x00\n        /* \".deps/contracts/Bank.sol\":1311:1320  addresses */\n      dup8\n        /* \".deps/contracts/Bank.sol\":1321:1322  i */\n      dup5\n        /* \".deps/contracts/Bank.sol\":1311:1323  addresses[i] */\n      dup2\n      mload\n      dup2\n      lt\n      tag_127\n      jumpi\n      tag_128\n      tag_110\n      jump\t// in\n    tag_128:\n    tag_127:\n      0x20\n      mul\n      0x20\n      add\n      add\n      mload\n        /* \".deps/contracts/Bank.sol\":1302:1324  balances[addresses[i]] */\n      0xffffffffffffffffffffffffffffffffffffffff\n      and\n      0xffffffffffffffffffffffffffffffffffffffff\n      and\n      dup2\n      mstore\n      0x20\n      add\n      swap1\n      dup2\n      mstore\n      0x20\n      add\n      0x00\n      keccak256\n        /* \".deps/contracts/Bank.sol\":1325:1333  currency */\n      dup10\n        /* \".deps/contracts/Bank.sol\":1302:1334  balances[addresses[i]][currency] */\n      mload(0x40)\n      tag_129\n      swap2\n      swap1\n      tag_112\n      jump\t// in\n    tag_129:\n      swap1\n      dup2\n      mstore\n      0x20\n      add\n      mload(0x40)\n      dup1\n      swap2\n      sub\n      swap1\n      keccak256\n      sload\n        /* \".deps/contracts/Bank.sol\":1302:1338  balances[addresses[i]][currency] > 0 */\n      gt\n        /* \".deps/contracts/Bank.sol\":1299:1511  if(balances[addresses[i]][currency] > 0) {... */\n      iszero\n      tag_130\n      jumpi\n        /* \".deps/contracts/Bank.sol\":1378:1387  addresses */\n      dup5\n        /* \".deps/contracts/Bank.sol\":1388:1389  i */\n      dup2\n        /* \".deps/contracts/Bank.sol\":1378:1390  addresses[i] */\n      dup2\n      mload\n      dup2\n      lt\n      tag_131\n      jumpi\n      tag_132\n      tag_110\n      jump\t// in\n    tag_132:\n    tag_131:\n      0x20\n      mul\n      0x20\n      add\n      add\n      mload\n        /* \".deps/contracts/Bank.sol\":1359:1368  addresses */\n      dup6\n        /* \".deps/contracts/Bank.sol\":1369:1374  index */\n      dup4\n        /* \".deps/contracts/Bank.sol\":1359:1375  addresses[index] */\n      dup2\n      mload\n      dup2\n      lt\n      tag_133\n      jumpi\n      tag_134\n      tag_110\n      jump\t// in\n    tag_134:\n    tag_133:\n      0x20\n      mul\n      0x20\n      add\n      add\n        /* \".deps/contracts/Bank.sol\":1359:1390  addresses[index] = addresses[i] */\n      swap1\n      0xffffffffffffffffffffffffffffffffffffffff\n      and\n      swap1\n      dup2\n      0xffffffffffffffffffffffffffffffffffffffff\n      and\n      dup2\n      mstore\n      pop\n      pop\n        /* \".deps/contracts/Bank.sol\":1437:1445  balances */\n      0x00\n        /* \".deps/contracts/Bank.sol\":1437:1459  balances[addresses[i]] */\n      dup1\n        /* \".deps/contracts/Bank.sol\":1446:1455  addresses */\n      dup7\n        /* \".deps/contracts/Bank.sol\":1456:1457  i */\n      dup4\n        /* \".deps/contracts/Bank.sol\":1446:1458  addresses[i] */\n      dup2\n      mload\n      dup2\n      lt\n      tag_135\n      jumpi\n      tag_136\n      tag_110\n      jump\t// in\n    tag_136:\n    tag_135:\n      0x20\n      mul\n      0x20\n      add\n      add\n      mload\n        /* \".deps/contracts/Bank.sol\":1437:1459  balances[addresses[i]] */\n      0xffffffffffffffffffffffffffffffffffffffff\n      and\n      0xffffffffffffffffffffffffffffffffffffffff\n      and\n      dup2\n      mstore\n      0x20\n      add\n      swap1\n      dup2\n      mstore\n      0x20\n      add\n      0x00\n      keccak256\n        /* \".deps/contracts/Bank.sol\":1460:1468  currency */\n      dup9\n        /* \".deps/contracts/Bank.sol\":1437:1469  balances[addresses[i]][currency] */\n      mload(0x40)\n      tag_137\n      swap2\n      swap1\n      tag_112\n      jump\t// in\n    tag_137:\n      swap1\n      dup2\n      mstore\n      0x20\n      add\n      mload(0x40)\n      dup1\n      swap2\n      sub\n      swap1\n      keccak256\n      sload\n        /* \".deps/contracts/Bank.sol\":1409:1427  balancesByCurrency */\n      dup5\n        /* \".deps/contracts/Bank.sol\":1428:1433  index */\n      dup4\n        /* \".deps/contracts/Bank.sol\":1409:1434  balancesByCurrency[index] */\n      dup2\n      mload\n      dup2\n      lt\n      tag_138\n      jumpi\n      tag_139\n      tag_110\n      jump\t// in\n    tag_139:\n    tag_138:\n      0x20\n      mul\n      0x20\n      add\n      add\n        /* \".deps/contracts/Bank.sol\":1409:1469  balancesByCurrency[index] = balances[addresses[i]][currency] */\n      dup2\n      dup2\n      mstore\n      pop\n      pop\n        /* \".deps/contracts/Bank.sol\":1488:1495  index++ */\n      dup2\n      dup1\n      tag_140\n      swap1\n      tag_115\n      jump\t// in\n    tag_140:\n      swap3\n      pop\n      pop\n        /* \".deps/contracts/Bank.sol\":1299:1511  if(balances[addresses[i]][currency] > 0) {... */\n    tag_130:\n        /* \".deps/contracts/Bank.sol\":1279:1282  i++ */\n      dup1\n      dup1\n      tag_141\n      swap1\n      tag_115\n      jump\t// in\n    tag_141:\n      swap2\n      pop\n      pop\n        /* \".deps/contracts/Bank.sol\":1245:1522  for(uint i=0; i<addresses.length; i++) {... */\n      jump(tag_124)\n    tag_125:\n      pop\n        /* \".deps/contracts/Bank.sol\":1540:1549  addresses */\n      dup4\n        /* \".deps/contracts/Bank.sol\":1551:1569  balancesByCurrency */\n      dup4\n        /* \".deps/contracts/Bank.sol\":1532:1570  return (addresses, balancesByCurrency) */\n      swap6\n      pop\n      swap6\n      pop\n      pop\n      pop\n      pop\n      pop\n        /* \".deps/contracts/Bank.sol\":752:1578  function checkAllBalance(string memory currency) public view returns(address[] memory, uint[] memory) {... */\n      swap2\n      pop\n      swap2\n      jump\t// out\n        /* \".deps/contracts/Bank.sol\":407:597  function deposit(string memory currency) public payable onlyOwner {... */\n    tag_63:\n        /* \".deps/contracts/Bank.sol\":373:378  owner */\n      0x01\n      0x00\n      swap1\n      sload\n      swap1\n      0x0100\n      exp\n      swap1\n      div\n      0xffffffffffffffffffffffffffffffffffffffff\n      and\n        /* \".deps/contracts/Bank.sol\":359:378  msg.sender == owner */\n      0xffffffffffffffffffffffffffffffffffffffff\n      and\n        /* \".deps/contracts/Bank.sol\":359:369  msg.sender */\n      caller\n        /* \".deps/contracts/Bank.sol\":359:378  msg.sender == owner */\n      0xffffffffffffffffffffffffffffffffffffffff\n      and\n      eq\n        /* \".deps/contracts/Bank.sol\":351:379  require(msg.sender == owner) */\n      tag_143\n      jumpi\n      0x00\n      dup1\n      revert\n    tag_143:\n        /* \".deps/contracts/Bank.sol\":504:505  0 */\n      0x00\n        /* \".deps/contracts/Bank.sol\":492:501  msg.value */\n      callvalue\n        /* \".deps/contracts/Bank.sol\":492:505  msg.value > 0 */\n      gt\n        /* \".deps/contracts/Bank.sol\":484:540  require(msg.value > 0, \"Value must be higher than zero\") */\n      tag_145\n      jumpi\n      mload(0x40)\n      0x08c379a000000000000000000000000000000000000000000000000000000000\n      dup2\n      mstore\n      0x04\n      add\n      tag_146\n      swap1\n      tag_147\n      jump\t// in\n    tag_146:\n      mload(0x40)\n      dup1\n      swap2\n      sub\n      swap1\n      revert\n    tag_145:\n        /* \".deps/contracts/Bank.sol\":580:589  msg.value */\n      callvalue\n        /* \".deps/contracts/Bank.sol\":551:559  balances */\n      0x00\n        /* \".deps/contracts/Bank.sol\":551:566  balances[owner] */\n      dup1\n        /* \".deps/contracts/Bank.sol\":560:565  owner */\n      0x01\n      0x00\n      swap1\n      sload\n      swap1\n      0x0100\n      exp\n      swap1\n      div\n      0xffffffffffffffffffffffffffffffffffffffff\n      and\n        /* \".deps/contracts/Bank.sol\":551:566  balances[owner] */\n      0xffffffffffffffffffffffffffffffffffffffff\n      and\n      0xffffffffffffffffffffffffffffffffffffffff\n      and\n      dup2\n      mstore\n      0x20\n      add\n      swap1\n      dup2\n      mstore\n      0x20\n      add\n      0x00\n      keccak256\n        /* \".deps/contracts/Bank.sol\":567:575  currency */\n      dup3\n        /* \".deps/contracts/Bank.sol\":551:576  balances[owner][currency] */\n      mload(0x40)\n      tag_148\n      swap2\n      swap1\n      tag_112\n      jump\t// in\n    tag_148:\n      swap1\n      dup2\n      mstore\n      0x20\n      add\n      mload(0x40)\n      dup1\n      swap2\n      sub\n      swap1\n      keccak256\n      0x00\n        /* \".deps/contracts/Bank.sol\":551:589  balances[owner][currency] += msg.value */\n      dup3\n      dup3\n      sload\n      tag_149\n      swap2\n      swap1\n      tag_150\n      jump\t// in\n    tag_149:\n      swap3\n      pop\n      pop\n      dup2\n      swap1\n      sstore\n      pop\n        /* \".deps/contracts/Bank.sol\":407:597  function deposit(string memory currency) public payable onlyOwner {... */\n      pop\n      jump\t// out\n        /* \".deps/contracts/Bank.sol\":2092:2359  function withdraw(uint amount, string memory currency) public onlyOwner {... */\n    tag_68:\n        /* \".deps/contracts/Bank.sol\":373:378  owner */\n      0x01\n      0x00\n      swap1\n      sload\n      swap1\n      0x0100\n      exp\n      swap1\n      div\n      0xffffffffffffffffffffffffffffffffffffffff\n      and\n        /* \".deps/contracts/Bank.sol\":359:378  msg.sender == owner */\n      0xffffffffffffffffffffffffffffffffffffffff\n      and\n        /* \".deps/contracts/Bank.sol\":359:369  msg.sender */\n      caller\n        /* \".deps/contracts/Bank.sol\":359:378  msg.sender == owner */\n      0xffffffffffffffffffffffffffffffffffffffff\n      and\n      eq\n        /* \".deps/contracts/Bank.sol\":351:379  require(msg.sender == owner) */\n      tag_152\n      jumpi\n      0x00\n      dup1\n      revert\n    tag_152:\n        /* \".deps/contracts/Bank.sol\":2212:2218  amount */\n      dup2\n        /* \".deps/contracts/Bank.sol\":2183:2191  balances */\n      0x00\n        /* \".deps/contracts/Bank.sol\":2183:2198  balances[owner] */\n      dup1\n        /* \".deps/contracts/Bank.sol\":2192:2197  owner */\n      0x01\n      0x00\n      swap1\n      sload\n      swap1\n      0x0100\n      exp\n      swap1\n      div\n      0xffffffffffffffffffffffffffffffffffffffff\n      and\n        /* \".deps/contracts/Bank.sol\":2183:2198  balances[owner] */\n      0xffffffffffffffffffffffffffffffffffffffff\n      and\n      0xffffffffffffffffffffffffffffffffffffffff\n      and\n      dup2\n      mstore\n      0x20\n      add\n      swap1\n      dup2\n      mstore\n      0x20\n      add\n      0x00\n      keccak256\n        /* \".deps/contracts/Bank.sol\":2199:2207  currency */\n      dup3\n        /* \".deps/contracts/Bank.sol\":2183:2208  balances[owner][currency] */\n      mload(0x40)\n      tag_154\n      swap2\n      swap1\n      tag_112\n      jump\t// in\n    tag_154:\n      swap1\n      dup2\n      mstore\n      0x20\n      add\n      mload(0x40)\n      dup1\n      swap2\n      sub\n      swap1\n      keccak256\n      sload\n        /* \".deps/contracts/Bank.sol\":2183:2218  balances[owner][currency] >= amount */\n      lt\n      iszero\n        /* \".deps/contracts/Bank.sol\":2175:2263  require(balances[owner][currency] >= amount, \"Balance should be higher than the amount\") */\n      tag_155\n      jumpi\n      mload(0x40)\n      0x08c379a000000000000000000000000000000000000000000000000000000000\n      dup2\n      mstore\n      0x04\n      add\n      tag_156\n      swap1\n      tag_157\n      jump\t// in\n    tag_156:\n      mload(0x40)\n      dup1\n      swap2\n      sub\n      swap1\n      revert\n    tag_155:\n        /* \".deps/contracts/Bank.sol\":2303:2309  amount */\n      dup2\n        /* \".deps/contracts/Bank.sol\":2274:2282  balances */\n      0x00\n        /* \".deps/contracts/Bank.sol\":2274:2289  balances[owner] */\n      dup1\n        /* \".deps/contracts/Bank.sol\":2283:2288  owner */\n      0x01\n      0x00\n      swap1\n      sload\n      swap1\n      0x0100\n      exp\n      swap1\n      div\n      0xffffffffffffffffffffffffffffffffffffffff\n      and\n        /* \".deps/contracts/Bank.sol\":2274:2289  balances[owner] */\n      0xffffffffffffffffffffffffffffffffffffffff\n      and\n      0xffffffffffffffffffffffffffffffffffffffff\n      and\n      dup2\n      mstore\n      0x20\n      add\n      swap1\n      dup2\n      mstore\n      0x20\n      add\n      0x00\n      keccak256\n        /* \".deps/contracts/Bank.sol\":2290:2298  currency */\n      dup3\n        /* \".deps/contracts/Bank.sol\":2274:2299  balances[owner][currency] */\n      mload(0x40)\n      tag_158\n      swap2\n      swap1\n      tag_112\n      jump\t// in\n    tag_158:\n      swap1\n      dup2\n      mstore\n      0x20\n      add\n      mload(0x40)\n      dup1\n      swap2\n      sub\n      swap1\n      keccak256\n      0x00\n        /* \".deps/contracts/Bank.sol\":2274:2309  balances[owner][currency] -= amount */\n      dup3\n      dup3\n      sload\n      tag_159\n      swap2\n      swap1\n      tag_160\n      jump\t// in\n    tag_159:\n      swap3\n      pop\n      pop\n      dup2\n      swap1\n      sstore\n      pop\n        /* \".deps/contracts/Bank.sol\":2328:2333  owner */\n      0x01\n      0x00\n      swap1\n      sload\n      swap1\n      0x0100\n      exp\n      swap1\n      div\n      0xffffffffffffffffffffffffffffffffffffffff\n      and\n        /* \".deps/contracts/Bank.sol\":2320:2343  payable(owner).transfer */\n      0xffffffffffffffffffffffffffffffffffffffff\n      and\n        /* \".deps/contracts/Bank.sol\":2320:2351  payable(owner).transfer(amount) */\n      0x08fc\n        /* \".deps/contracts/Bank.sol\":2344:2350  amount */\n      dup4\n        /* \".deps/contracts/Bank.sol\":2320:2351  payable(owner).transfer(amount) */\n      swap1\n      dup2\n      iszero\n      mul\n      swap1\n      mload(0x40)\n      0x00\n      mload(0x40)\n      dup1\n      dup4\n      sub\n      dup2\n      dup6\n      dup9\n      dup9\n      call\n      swap4\n      pop\n      pop\n      pop\n      pop\n      iszero\n      dup1\n      iszero\n      tag_162\n      jumpi\n      returndatasize\n      0x00\n      dup1\n      returndatacopy\n      revert(0x00, returndatasize)\n    tag_162:\n      pop\n        /* \".deps/contracts/Bank.sol\":2092:2359  function withdraw(uint amount, string memory currency) public onlyOwner {... */\n      pop\n      pop\n      jump\t// out\n        /* \".deps/contracts/Bank.sol\":2367:2655  function transfer(uint amount, address to, string memory currency) public onlyOwner {... */\n    tag_73:\n        /* \".deps/contracts/Bank.sol\":373:378  owner */\n      0x01\n      0x00\n      swap1\n      sload\n      swap1\n      0x0100\n      exp\n      swap1\n      div\n      0xffffffffffffffffffffffffffffffffffffffff\n      and\n        /* \".deps/contracts/Bank.sol\":359:378  msg.sender == owner */\n      0xffffffffffffffffffffffffffffffffffffffff\n      and\n        /* \".deps/contracts/Bank.sol\":359:369  msg.sender */\n      caller\n        /* \".deps/contracts/Bank.sol\":359:378  msg.sender == owner */\n      0xffffffffffffffffffffffffffffffffffffffff\n      and\n      eq\n        /* \".deps/contracts/Bank.sol\":351:379  require(msg.sender == owner) */\n      tag_164\n      jumpi\n      0x00\n      dup1\n      revert\n    tag_164:\n        /* \".deps/contracts/Bank.sol\":2499:2505  amount */\n      dup3\n        /* \".deps/contracts/Bank.sol\":2470:2478  balances */\n      0x00\n        /* \".deps/contracts/Bank.sol\":2470:2485  balances[owner] */\n      dup1\n        /* \".deps/contracts/Bank.sol\":2479:2484  owner */\n      0x01\n      0x00\n      swap1\n      sload\n      swap1\n      0x0100\n      exp\n      swap1\n      div\n      0xffffffffffffffffffffffffffffffffffffffff\n      and\n        /* \".deps/contracts/Bank.sol\":2470:2485  balances[owner] */\n      0xffffffffffffffffffffffffffffffffffffffff\n      and\n      0xffffffffffffffffffffffffffffffffffffffff\n      and\n      dup2\n      mstore\n      0x20\n      add\n      swap1\n      dup2\n      mstore\n      0x20\n      add\n      0x00\n      keccak256\n        /* \".deps/contracts/Bank.sol\":2486:2494  currency */\n      dup3\n        /* \".deps/contracts/Bank.sol\":2470:2495  balances[owner][currency] */\n      mload(0x40)\n      tag_166\n      swap2\n      swap1\n      tag_112\n      jump\t// in\n    tag_166:\n      swap1\n      dup2\n      mstore\n      0x20\n      add\n      mload(0x40)\n      dup1\n      swap2\n      sub\n      swap1\n      keccak256\n      sload\n        /* \".deps/contracts/Bank.sol\":2470:2505  balances[owner][currency] >= amount */\n      lt\n      iszero\n        /* \".deps/contracts/Bank.sol\":2462:2558  require(balances[owner][currency] >= amount, \"Balance should be higher than or equal to amount\") */\n      tag_167\n      jumpi\n      mload(0x40)\n      0x08c379a000000000000000000000000000000000000000000000000000000000\n      dup2\n      mstore\n      0x04\n      add\n      tag_168\n      swap1\n      tag_169\n      jump\t// in\n    tag_168:\n      mload(0x40)\n      dup1\n      swap2\n      sub\n      swap1\n      revert\n    tag_167:\n        /* \".deps/contracts/Bank.sol\":2598:2604  amount */\n      dup3\n        /* \".deps/contracts/Bank.sol\":2569:2577  balances */\n      0x00\n        /* \".deps/contracts/Bank.sol\":2569:2584  balances[owner] */\n      dup1\n        /* \".deps/contracts/Bank.sol\":2578:2583  owner */\n      0x01\n      0x00\n      swap1\n      sload\n      swap1\n      0x0100\n      exp\n      swap1\n      div\n      0xffffffffffffffffffffffffffffffffffffffff\n      and\n        /* \".deps/contracts/Bank.sol\":2569:2584  balances[owner] */\n      0xffffffffffffffffffffffffffffffffffffffff\n      and\n      0xffffffffffffffffffffffffffffffffffffffff\n      and\n      dup2\n      mstore\n      0x20\n      add\n      swap1\n      dup2\n      mstore\n      0x20\n      add\n      0x00\n      keccak256\n        /* \".deps/contracts/Bank.sol\":2585:2593  currency */\n      dup3\n        /* \".deps/contracts/Bank.sol\":2569:2594  balances[owner][currency] */\n      mload(0x40)\n      tag_170\n      swap2\n      swap1\n      tag_112\n      jump\t// in\n    tag_170:\n      swap1\n      dup2\n      mstore\n      0x20\n      add\n      mload(0x40)\n      dup1\n      swap2\n      sub\n      swap1\n      keccak256\n      0x00\n        /* \".deps/contracts/Bank.sol\":2569:2604  balances[owner][currency] -= amount */\n      dup3\n      dup3\n      sload\n      tag_171\n      swap2\n      swap1\n      tag_160\n      jump\t// in\n    tag_171:\n      swap3\n      pop\n      pop\n      dup2\n      swap1\n      sstore\n      pop\n        /* \".deps/contracts/Bank.sol\":2641:2647  amount */\n      dup3\n        /* \".deps/contracts/Bank.sol\":2615:2623  balances */\n      0x00\n        /* \".deps/contracts/Bank.sol\":2615:2627  balances[to] */\n      dup1\n        /* \".deps/contracts/Bank.sol\":2624:2626  to */\n      dup5\n        /* \".deps/contracts/Bank.sol\":2615:2627  balances[to] */\n      0xffffffffffffffffffffffffffffffffffffffff\n      and\n      0xffffffffffffffffffffffffffffffffffffffff\n      and\n      dup2\n      mstore\n      0x20\n      add\n      swap1\n      dup2\n      mstore\n      0x20\n      add\n      0x00\n      keccak256\n        /* \".deps/contracts/Bank.sol\":2628:2636  currency */\n      dup3\n        /* \".deps/contracts/Bank.sol\":2615:2637  balances[to][currency] */\n      mload(0x40)\n      tag_172\n      swap2\n      swap1\n      tag_112\n      jump\t// in\n    tag_172:\n      swap1\n      dup2\n      mstore\n      0x20\n      add\n      mload(0x40)\n      dup1\n      swap2\n      sub\n      swap1\n      keccak256\n      0x00\n        /* \".deps/contracts/Bank.sol\":2615:2647  balances[to][currency] += amount */\n      dup3\n      dup3\n      sload\n      tag_173\n      swap2\n      swap1\n      tag_150\n      jump\t// in\n    tag_173:\n      swap3\n      pop\n      pop\n      dup2\n      swap1\n      sstore\n      pop\n        /* \".deps/contracts/Bank.sol\":2367:2655  function transfer(uint amount, address to, string memory currency) public onlyOwner {... */\n      pop\n      pop\n      pop\n      jump\t// out\n        /* \"#utility.yul\":7:82   */\n    tag_174:\n        /* \"#utility.yul\":40:46   */\n      0x00\n        /* \"#utility.yul\":73:75   */\n      0x40\n        /* \"#utility.yul\":67:76   */\n      mload\n        /* \"#utility.yul\":57:76   */\n      swap1\n      pop\n        /* \"#utility.yul\":7:82   */\n      swap1\n      jump\t// out\n        /* \"#utility.yul\":88:205   */\n    tag_175:\n        /* \"#utility.yul\":197:198   */\n      0x00\n        /* \"#utility.yul\":194:195   */\n      dup1\n        /* \"#utility.yul\":187:199   */\n      revert\n        /* \"#utility.yul\":211:328   */\n    tag_176:\n        /* \"#utility.yul\":320:321   */\n      0x00\n        /* \"#utility.yul\":317:318   */\n      dup1\n        /* \"#utility.yul\":310:322   */\n      revert\n        /* \"#utility.yul\":334:460   */\n    tag_177:\n        /* \"#utility.yul\":371:378   */\n      0x00\n        /* \"#utility.yul\":411:453   */\n      0xffffffffffffffffffffffffffffffffffffffff\n        /* \"#utility.yul\":404:409   */\n      dup3\n        /* \"#utility.yul\":400:454   */\n      and\n        /* \"#utility.yul\":389:454   */\n      swap1\n      pop\n        /* \"#utility.yul\":334:460   */\n      swap2\n      swap1\n      pop\n      jump\t// out\n        /* \"#utility.yul\":466:562   */\n    tag_178:\n        /* \"#utility.yul\":503:510   */\n      0x00\n        /* \"#utility.yul\":532:556   */\n      tag_228\n        /* \"#utility.yul\":550:555   */\n      dup3\n        /* \"#utility.yul\":532:556   */\n      tag_177\n      jump\t// in\n    tag_228:\n        /* \"#utility.yul\":521:556   */\n      swap1\n      pop\n        /* \"#utility.yul\":466:562   */\n      swap2\n      swap1\n      pop\n      jump\t// out\n        /* \"#utility.yul\":568:690   */\n    tag_179:\n        /* \"#utility.yul\":641:665   */\n      tag_230\n        /* \"#utility.yul\":659:664   */\n      dup2\n        /* \"#utility.yul\":641:665   */\n      tag_178\n      jump\t// in\n    tag_230:\n        /* \"#utility.yul\":634:639   */\n      dup2\n        /* \"#utility.yul\":631:666   */\n      eq\n        /* \"#utility.yul\":621:684   */\n      tag_231\n      jumpi\n        /* \"#utility.yul\":680:681   */\n      0x00\n        /* \"#utility.yul\":677:678   */\n      dup1\n        /* \"#utility.yul\":670:682   */\n      revert\n        /* \"#utility.yul\":621:684   */\n    tag_231:\n        /* \"#utility.yul\":568:690   */\n      pop\n      jump\t// out\n        /* \"#utility.yul\":696:835   */\n    tag_180:\n        /* \"#utility.yul\":742:747   */\n      0x00\n        /* \"#utility.yul\":780:786   */\n      dup2\n        /* \"#utility.yul\":767:787   */\n      calldataload\n        /* \"#utility.yul\":758:787   */\n      swap1\n      pop\n        /* \"#utility.yul\":796:829   */\n      tag_233\n        /* \"#utility.yul\":823:828   */\n      dup2\n        /* \"#utility.yul\":796:829   */\n      tag_179\n      jump\t// in\n    tag_233:\n        /* \"#utility.yul\":696:835   */\n      swap3\n      swap2\n      pop\n      pop\n      jump\t// out\n        /* \"#utility.yul\":841:958   */\n    tag_181:\n        /* \"#utility.yul\":950:951   */\n      0x00\n        /* \"#utility.yul\":947:948   */\n      dup1\n        /* \"#utility.yul\":940:952   */\n      revert\n        /* \"#utility.yul\":964:1081   */\n    tag_182:\n        /* \"#utility.yul\":1073:1074   */\n      0x00\n        /* \"#utility.yul\":1070:1071   */\n      dup1\n        /* \"#utility.yul\":1063:1075   */\n      revert\n        /* \"#utility.yul\":1087:1189   */\n    tag_183:\n        /* \"#utility.yul\":1128:1134   */\n      0x00\n        /* \"#utility.yul\":1179:1181   */\n      0x1f\n        /* \"#utility.yul\":1175:1182   */\n      not\n        /* \"#utility.yul\":1170:1172   */\n      0x1f\n        /* \"#utility.yul\":1163:1168   */\n      dup4\n        /* \"#utility.yul\":1159:1173   */\n      add\n        /* \"#utility.yul\":1155:1183   */\n      and\n        /* \"#utility.yul\":1145:1183   */\n      swap1\n      pop\n        /* \"#utility.yul\":1087:1189   */\n      swap2\n      swap1\n      pop\n      jump\t// out\n        /* \"#utility.yul\":1195:1375   */\n    tag_119:\n        /* \"#utility.yul\":1243:1320   */\n      0x4e487b7100000000000000000000000000000000000000000000000000000000\n        /* \"#utility.yul\":1240:1241   */\n      0x00\n        /* \"#utility.yul\":1233:1321   */\n      mstore\n        /* \"#utility.yul\":1340:1344   */\n      0x41\n        /* \"#utility.yul\":1337:1338   */\n      0x04\n        /* \"#utility.yul\":1330:1345   */\n      mstore\n        /* \"#utility.yul\":1364:1368   */\n      0x24\n        /* \"#utility.yul\":1361:1362   */\n      0x00\n        /* \"#utility.yul\":1354:1369   */\n      revert\n        /* \"#utility.yul\":1381:1662   */\n    tag_184:\n        /* \"#utility.yul\":1464:1491   */\n      tag_239\n        /* \"#utility.yul\":1486:1490   */\n      dup3\n        /* \"#utility.yul\":1464:1491   */\n      tag_183\n      jump\t// in\n    tag_239:\n        /* \"#utility.yul\":1456:1462   */\n      dup2\n        /* \"#utility.yul\":1452:1492   */\n      add\n        /* \"#utility.yul\":1594:1600   */\n      dup2\n        /* \"#utility.yul\":1582:1592   */\n      dup2\n        /* \"#utility.yul\":1579:1601   */\n      lt\n        /* \"#utility.yul\":1558:1576   */\n      0xffffffffffffffff\n        /* \"#utility.yul\":1546:1556   */\n      dup3\n        /* \"#utility.yul\":1543:1577   */\n      gt\n        /* \"#utility.yul\":1540:1602   */\n      or\n        /* \"#utility.yul\":1537:1625   */\n      iszero\n      tag_240\n      jumpi\n        /* \"#utility.yul\":1605:1623   */\n      tag_241\n      tag_119\n      jump\t// in\n    tag_241:\n        /* \"#utility.yul\":1537:1625   */\n    tag_240:\n        /* \"#utility.yul\":1645:1655   */\n      dup1\n        /* \"#utility.yul\":1641:1643   */\n      0x40\n        /* \"#utility.yul\":1634:1656   */\n      mstore\n        /* \"#utility.yul\":1424:1662   */\n      pop\n        /* \"#utility.yul\":1381:1662   */\n      pop\n      pop\n      jump\t// out\n        /* \"#utility.yul\":1668:1797   */\n    tag_185:\n        /* \"#utility.yul\":1702:1708   */\n      0x00\n        /* \"#utility.yul\":1729:1749   */\n      tag_243\n      tag_174\n      jump\t// in\n    tag_243:\n        /* \"#utility.yul\":1719:1749   */\n      swap1\n      pop\n        /* \"#utility.yul\":1758:1791   */\n      tag_244\n        /* \"#utility.yul\":1786:1790   */\n      dup3\n        /* \"#utility.yul\":1778:1784   */\n      dup3\n        /* \"#utility.yul\":1758:1791   */\n      tag_184\n      jump\t// in\n    tag_244:\n        /* \"#utility.yul\":1668:1797   */\n      swap2\n      swap1\n      pop\n      jump\t// out\n        /* \"#utility.yul\":1803:2111   */\n    tag_186:\n        /* \"#utility.yul\":1865:1869   */\n      0x00\n        /* \"#utility.yul\":1955:1973   */\n      0xffffffffffffffff\n        /* \"#utility.yul\":1947:1953   */\n      dup3\n        /* \"#utility.yul\":1944:1974   */\n      gt\n        /* \"#utility.yul\":1941:1997   */\n      iszero\n      tag_246\n      jumpi\n        /* \"#utility.yul\":1977:1995   */\n      tag_247\n      tag_119\n      jump\t// in\n    tag_247:\n        /* \"#utility.yul\":1941:1997   */\n    tag_246:\n        /* \"#utility.yul\":2015:2044   */\n      tag_248\n        /* \"#utility.yul\":2037:2043   */\n      dup3\n        /* \"#utility.yul\":2015:2044   */\n      tag_183\n      jump\t// in\n    tag_248:\n        /* \"#utility.yul\":2007:2044   */\n      swap1\n      pop\n        /* \"#utility.yul\":2099:2103   */\n      0x20\n        /* \"#utility.yul\":2093:2097   */\n      dup2\n        /* \"#utility.yul\":2089:2104   */\n      add\n        /* \"#utility.yul\":2081:2104   */\n      swap1\n      pop\n        /* \"#utility.yul\":1803:2111   */\n      swap2\n      swap1\n      pop\n      jump\t// out\n        /* \"#utility.yul\":2117:2263   */\n    tag_187:\n        /* \"#utility.yul\":2214:2220   */\n      dup3\n        /* \"#utility.yul\":2209:2212   */\n      dup2\n        /* \"#utility.yul\":2204:2207   */\n      dup4\n        /* \"#utility.yul\":2191:2221   */\n      calldatacopy\n        /* \"#utility.yul\":2255:2256   */\n      0x00\n        /* \"#utility.yul\":2246:2252   */\n      dup4\n        /* \"#utility.yul\":2241:2244   */\n      dup4\n        /* \"#utility.yul\":2237:2253   */\n      add\n        /* \"#utility.yul\":2230:2257   */\n      mstore\n        /* \"#utility.yul\":2117:2263   */\n      pop\n      pop\n      pop\n      jump\t// out\n        /* \"#utility.yul\":2269:2694   */\n    tag_188:\n        /* \"#utility.yul\":2347:2352   */\n      0x00\n        /* \"#utility.yul\":2372:2438   */\n      tag_251\n        /* \"#utility.yul\":2388:2437   */\n      tag_252\n        /* \"#utility.yul\":2430:2436   */\n      dup5\n        /* \"#utility.yul\":2388:2437   */\n      tag_186\n      jump\t// in\n    tag_252:\n        /* \"#utility.yul\":2372:2438   */\n      tag_185\n      jump\t// in\n    tag_251:\n        /* \"#utility.yul\":2363:2438   */\n      swap1\n      pop\n        /* \"#utility.yul\":2461:2467   */\n      dup3\n        /* \"#utility.yul\":2454:2459   */\n      dup2\n        /* \"#utility.yul\":2447:2468   */\n      mstore\n        /* \"#utility.yul\":2499:2503   */\n      0x20\n        /* \"#utility.yul\":2492:2497   */\n      dup2\n        /* \"#utility.yul\":2488:2504   */\n      add\n        /* \"#utility.yul\":2537:2540   */\n      dup5\n        /* \"#utility.yul\":2528:2534   */\n      dup5\n        /* \"#utility.yul\":2523:2526   */\n      dup5\n        /* \"#utility.yul\":2519:2535   */\n      add\n        /* \"#utility.yul\":2516:2541   */\n      gt\n        /* \"#utility.yul\":2513:2625   */\n      iszero\n      tag_253\n      jumpi\n        /* \"#utility.yul\":2544:2623   */\n      tag_254\n      tag_182\n      jump\t// in\n    tag_254:\n        /* \"#utility.yul\":2513:2625   */\n    tag_253:\n        /* \"#utility.yul\":2634:2688   */\n      tag_255\n        /* \"#utility.yul\":2681:2687   */\n      dup5\n        /* \"#utility.yul\":2676:2679   */\n      dup3\n        /* \"#utility.yul\":2671:2674   */\n      dup6\n        /* \"#utility.yul\":2634:2688   */\n      tag_187\n      jump\t// in\n    tag_255:\n        /* \"#utility.yul\":2353:2694   */\n      pop\n        /* \"#utility.yul\":2269:2694   */\n      swap4\n      swap3\n      pop\n      pop\n      pop\n      jump\t// out\n        /* \"#utility.yul\":2714:3054   */\n    tag_189:\n        /* \"#utility.yul\":2770:2775   */\n      0x00\n        /* \"#utility.yul\":2819:2822   */\n      dup3\n        /* \"#utility.yul\":2812:2816   */\n      0x1f\n        /* \"#utility.yul\":2804:2810   */\n      dup4\n        /* \"#utility.yul\":2800:2817   */\n      add\n        /* \"#utility.yul\":2796:2823   */\n      slt\n        /* \"#utility.yul\":2786:2908   */\n      tag_257\n      jumpi\n        /* \"#utility.yul\":2827:2906   */\n      tag_258\n      tag_181\n      jump\t// in\n    tag_258:\n        /* \"#utility.yul\":2786:2908   */\n    tag_257:\n        /* \"#utility.yul\":2944:2950   */\n      dup2\n        /* \"#utility.yul\":2931:2951   */\n      calldataload\n        /* \"#utility.yul\":2969:3048   */\n      tag_259\n        /* \"#utility.yul\":3044:3047   */\n      dup5\n        /* \"#utility.yul\":3036:3042   */\n      dup3\n        /* \"#utility.yul\":3029:3033   */\n      0x20\n        /* \"#utility.yul\":3021:3027   */\n      dup7\n        /* \"#utility.yul\":3017:3034   */\n      add\n        /* \"#utility.yul\":2969:3048   */\n      tag_188\n      jump\t// in\n    tag_259:\n        /* \"#utility.yul\":2960:3048   */\n      swap2\n      pop\n        /* \"#utility.yul\":2776:3054   */\n      pop\n        /* \"#utility.yul\":2714:3054   */\n      swap3\n      swap2\n      pop\n      pop\n      jump\t// out\n        /* \"#utility.yul\":3060:3714   */\n    tag_23:\n        /* \"#utility.yul\":3138:3144   */\n      0x00\n        /* \"#utility.yul\":3146:3152   */\n      dup1\n        /* \"#utility.yul\":3195:3197   */\n      0x40\n        /* \"#utility.yul\":3183:3192   */\n      dup4\n        /* \"#utility.yul\":3174:3181   */\n      dup6\n        /* \"#utility.yul\":3170:3193   */\n      sub\n        /* \"#utility.yul\":3166:3198   */\n      slt\n        /* \"#utility.yul\":3163:3282   */\n      iszero\n      tag_261\n      jumpi\n        /* \"#utility.yul\":3201:3280   */\n      tag_262\n      tag_175\n      jump\t// in\n    tag_262:\n        /* \"#utility.yul\":3163:3282   */\n    tag_261:\n        /* \"#utility.yul\":3321:3322   */\n      0x00\n        /* \"#utility.yul\":3346:3399   */\n      tag_263\n        /* \"#utility.yul\":3391:3398   */\n      dup6\n        /* \"#utility.yul\":3382:3388   */\n      dup3\n        /* \"#utility.yul\":3371:3380   */\n      dup7\n        /* \"#utility.yul\":3367:3389   */\n      add\n        /* \"#utility.yul\":3346:3399   */\n      tag_180\n      jump\t// in\n    tag_263:\n        /* \"#utility.yul\":3336:3399   */\n      swap3\n      pop\n        /* \"#utility.yul\":3292:3409   */\n      pop\n        /* \"#utility.yul\":3476:3478   */\n      0x20\n        /* \"#utility.yul\":3465:3474   */\n      dup4\n        /* \"#utility.yul\":3461:3479   */\n      add\n        /* \"#utility.yul\":3448:3480   */\n      calldataload\n        /* \"#utility.yul\":3507:3525   */\n      0xffffffffffffffff\n        /* \"#utility.yul\":3499:3505   */\n      dup2\n        /* \"#utility.yul\":3496:3526   */\n      gt\n        /* \"#utility.yul\":3493:3610   */\n      iszero\n      tag_264\n      jumpi\n        /* \"#utility.yul\":3529:3608   */\n      tag_265\n      tag_176\n      jump\t// in\n    tag_265:\n        /* \"#utility.yul\":3493:3610   */\n    tag_264:\n        /* \"#utility.yul\":3634:3697   */\n      tag_266\n        /* \"#utility.yul\":3689:3696   */\n      dup6\n        /* \"#utility.yul\":3680:3686   */\n      dup3\n        /* \"#utility.yul\":3669:3678   */\n      dup7\n        /* \"#utility.yul\":3665:3687   */\n      add\n        /* \"#utility.yul\":3634:3697   */\n      tag_189\n      jump\t// in\n    tag_266:\n        /* \"#utility.yul\":3624:3697   */\n      swap2\n      pop\n        /* \"#utility.yul\":3419:3707   */\n      pop\n        /* \"#utility.yul\":3060:3714   */\n      swap3\n      pop\n      swap3\n      swap1\n      pop\n      jump\t// out\n        /* \"#utility.yul\":3720:3797   */\n    tag_190:\n        /* \"#utility.yul\":3757:3764   */\n      0x00\n        /* \"#utility.yul\":3786:3791   */\n      dup2\n        /* \"#utility.yul\":3775:3791   */\n      swap1\n      pop\n        /* \"#utility.yul\":3720:3797   */\n      swap2\n      swap1\n      pop\n      jump\t// out\n        /* \"#utility.yul\":3803:3921   */\n    tag_191:\n        /* \"#utility.yul\":3890:3914   */\n      tag_269\n        /* \"#utility.yul\":3908:3913   */\n      dup2\n        /* \"#utility.yul\":3890:3914   */\n      tag_190\n      jump\t// in\n    tag_269:\n        /* \"#utility.yul\":3885:3888   */\n      dup3\n        /* \"#utility.yul\":3878:3915   */\n      mstore\n        /* \"#utility.yul\":3803:3921   */\n      pop\n      pop\n      jump\t// out\n        /* \"#utility.yul\":3927:4149   */\n    tag_26:\n        /* \"#utility.yul\":4020:4024   */\n      0x00\n        /* \"#utility.yul\":4058:4060   */\n      0x20\n        /* \"#utility.yul\":4047:4056   */\n      dup3\n        /* \"#utility.yul\":4043:4061   */\n      add\n        /* \"#utility.yul\":4035:4061   */\n      swap1\n      pop\n        /* \"#utility.yul\":4071:4142   */\n      tag_271\n        /* \"#utility.yul\":4139:4140   */\n      0x00\n        /* \"#utility.yul\":4128:4137   */\n      dup4\n        /* \"#utility.yul\":4124:4141   */\n      add\n        /* \"#utility.yul\":4115:4121   */\n      dup5\n        /* \"#utility.yul\":4071:4142   */\n      tag_191\n      jump\t// in\n    tag_271:\n        /* \"#utility.yul\":3927:4149   */\n      swap3\n      swap2\n      pop\n      pop\n      jump\t// out\n        /* \"#utility.yul\":4155:4269   */\n    tag_192:\n        /* \"#utility.yul\":4222:4228   */\n      0x00\n        /* \"#utility.yul\":4256:4261   */\n      dup2\n        /* \"#utility.yul\":4250:4262   */\n      mload\n        /* \"#utility.yul\":4240:4262   */\n      swap1\n      pop\n        /* \"#utility.yul\":4155:4269   */\n      swap2\n      swap1\n      pop\n      jump\t// out\n        /* \"#utility.yul\":4275:4459   */\n    tag_193:\n        /* \"#utility.yul\":4374:4385   */\n      0x00\n        /* \"#utility.yul\":4408:4414   */\n      dup3\n        /* \"#utility.yul\":4403:4406   */\n      dup3\n        /* \"#utility.yul\":4396:4415   */\n      mstore\n        /* \"#utility.yul\":4448:4452   */\n      0x20\n        /* \"#utility.yul\":4443:4446   */\n      dup3\n        /* \"#utility.yul\":4439:4453   */\n      add\n        /* \"#utility.yul\":4424:4453   */\n      swap1\n      pop\n        /* \"#utility.yul\":4275:4459   */\n      swap3\n      swap2\n      pop\n      pop\n      jump\t// out\n        /* \"#utility.yul\":4465:4597   */\n    tag_194:\n        /* \"#utility.yul\":4532:4536   */\n      0x00\n        /* \"#utility.yul\":4555:4558   */\n      dup2\n        /* \"#utility.yul\":4547:4558   */\n      swap1\n      pop\n        /* \"#utility.yul\":4585:4589   */\n      0x20\n        /* \"#utility.yul\":4580:4583   */\n      dup3\n        /* \"#utility.yul\":4576:4590   */\n      add\n        /* \"#utility.yul\":4568:4590   */\n      swap1\n      pop\n        /* \"#utility.yul\":4465:4597   */\n      swap2\n      swap1\n      pop\n      jump\t// out\n        /* \"#utility.yul\":4603:4711   */\n    tag_195:\n        /* \"#utility.yul\":4680:4704   */\n      tag_276\n        /* \"#utility.yul\":4698:4703   */\n      dup2\n        /* \"#utility.yul\":4680:4704   */\n      tag_178\n      jump\t// in\n    tag_276:\n        /* \"#utility.yul\":4675:4678   */\n      dup3\n        /* \"#utility.yul\":4668:4705   */\n      mstore\n        /* \"#utility.yul\":4603:4711   */\n      pop\n      pop\n      jump\t// out\n        /* \"#utility.yul\":4717:4896   */\n    tag_196:\n        /* \"#utility.yul\":4786:4796   */\n      0x00\n        /* \"#utility.yul\":4807:4853   */\n      tag_278\n        /* \"#utility.yul\":4849:4852   */\n      dup4\n        /* \"#utility.yul\":4841:4847   */\n      dup4\n        /* \"#utility.yul\":4807:4853   */\n      tag_195\n      jump\t// in\n    tag_278:\n        /* \"#utility.yul\":4885:4889   */\n      0x20\n        /* \"#utility.yul\":4880:4883   */\n      dup4\n        /* \"#utility.yul\":4876:4890   */\n      add\n        /* \"#utility.yul\":4862:4890   */\n      swap1\n      pop\n        /* \"#utility.yul\":4717:4896   */\n      swap3\n      swap2\n      pop\n      pop\n      jump\t// out\n        /* \"#utility.yul\":4902:5015   */\n    tag_197:\n        /* \"#utility.yul\":4972:4976   */\n      0x00\n        /* \"#utility.yul\":5004:5008   */\n      0x20\n        /* \"#utility.yul\":4999:5002   */\n      dup3\n        /* \"#utility.yul\":4995:5009   */\n      add\n        /* \"#utility.yul\":4987:5009   */\n      swap1\n      pop\n        /* \"#utility.yul\":4902:5015   */\n      swap2\n      swap1\n      pop\n      jump\t// out\n        /* \"#utility.yul\":5051:5783   */\n    tag_198:\n        /* \"#utility.yul\":5170:5173   */\n      0x00\n        /* \"#utility.yul\":5199:5253   */\n      tag_281\n        /* \"#utility.yul\":5247:5252   */\n      dup3\n        /* \"#utility.yul\":5199:5253   */\n      tag_192\n      jump\t// in\n    tag_281:\n        /* \"#utility.yul\":5269:5355   */\n      tag_282\n        /* \"#utility.yul\":5348:5354   */\n      dup2\n        /* \"#utility.yul\":5343:5346   */\n      dup6\n        /* \"#utility.yul\":5269:5355   */\n      tag_193\n      jump\t// in\n    tag_282:\n        /* \"#utility.yul\":5262:5355   */\n      swap4\n      pop\n        /* \"#utility.yul\":5379:5435   */\n      tag_283\n        /* \"#utility.yul\":5429:5434   */\n      dup4\n        /* \"#utility.yul\":5379:5435   */\n      tag_194\n      jump\t// in\n    tag_283:\n        /* \"#utility.yul\":5458:5465   */\n      dup1\n        /* \"#utility.yul\":5489:5490   */\n      0x00\n        /* \"#utility.yul\":5474:5758   */\n    tag_284:\n        /* \"#utility.yul\":5499:5505   */\n      dup4\n        /* \"#utility.yul\":5496:5497   */\n      dup2\n        /* \"#utility.yul\":5493:5506   */\n      lt\n        /* \"#utility.yul\":5474:5758   */\n      iszero\n      tag_286\n      jumpi\n        /* \"#utility.yul\":5575:5581   */\n      dup2\n        /* \"#utility.yul\":5569:5582   */\n      mload\n        /* \"#utility.yul\":5602:5665   */\n      tag_287\n        /* \"#utility.yul\":5661:5664   */\n      dup9\n        /* \"#utility.yul\":5646:5659   */\n      dup3\n        /* \"#utility.yul\":5602:5665   */\n      tag_196\n      jump\t// in\n    tag_287:\n        /* \"#utility.yul\":5595:5665   */\n      swap8\n      pop\n        /* \"#utility.yul\":5688:5748   */\n      tag_288\n        /* \"#utility.yul\":5741:5747   */\n      dup4\n        /* \"#utility.yul\":5688:5748   */\n      tag_197\n      jump\t// in\n    tag_288:\n        /* \"#utility.yul\":5678:5748   */\n      swap3\n      pop\n        /* \"#utility.yul\":5534:5758   */\n      pop\n        /* \"#utility.yul\":5521:5522   */\n      0x01\n        /* \"#utility.yul\":5518:5519   */\n      dup2\n        /* \"#utility.yul\":5514:5523   */\n      add\n        /* \"#utility.yul\":5509:5523   */\n      swap1\n      pop\n        /* \"#utility.yul\":5474:5758   */\n      jump(tag_284)\n    tag_286:\n        /* \"#utility.yul\":5478:5492   */\n      pop\n        /* \"#utility.yul\":5774:5777   */\n      dup6\n        /* \"#utility.yul\":5767:5777   */\n      swap4\n      pop\n        /* \"#utility.yul\":5175:5783   */\n      pop\n      pop\n      pop\n        /* \"#utility.yul\":5051:5783   */\n      swap3\n      swap2\n      pop\n      pop\n      jump\t// out\n        /* \"#utility.yul\":5789:5903   */\n    tag_199:\n        /* \"#utility.yul\":5856:5862   */\n      0x00\n        /* \"#utility.yul\":5890:5895   */\n      dup2\n        /* \"#utility.yul\":5884:5896   */\n      mload\n        /* \"#utility.yul\":5874:5896   */\n      swap1\n      pop\n        /* \"#utility.yul\":5789:5903   */\n      swap2\n      swap1\n      pop\n      jump\t// out\n        /* \"#utility.yul\":5909:6093   */\n    tag_200:\n        /* \"#utility.yul\":6008:6019   */\n      0x00\n        /* \"#utility.yul\":6042:6048   */\n      dup3\n        /* \"#utility.yul\":6037:6040   */\n      dup3\n        /* \"#utility.yul\":6030:6049   */\n      mstore\n        /* \"#utility.yul\":6082:6086   */\n      0x20\n        /* \"#utility.yul\":6077:6080   */\n      dup3\n        /* \"#utility.yul\":6073:6087   */\n      add\n        /* \"#utility.yul\":6058:6087   */\n      swap1\n      pop\n        /* \"#utility.yul\":5909:6093   */\n      swap3\n      swap2\n      pop\n      pop\n      jump\t// out\n        /* \"#utility.yul\":6099:6231   */\n    tag_201:\n        /* \"#utility.yul\":6166:6170   */\n      0x00\n        /* \"#utility.yul\":6189:6192   */\n      dup2\n        /* \"#utility.yul\":6181:6192   */\n      swap1\n      pop\n        /* \"#utility.yul\":6219:6223   */\n      0x20\n        /* \"#utility.yul\":6214:6217   */\n      dup3\n        /* \"#utility.yul\":6210:6224   */\n      add\n        /* \"#utility.yul\":6202:6224   */\n      swap1\n      pop\n        /* \"#utility.yul\":6099:6231   */\n      swap2\n      swap1\n      pop\n      jump\t// out\n        /* \"#utility.yul\":6237:6345   */\n    tag_202:\n        /* \"#utility.yul\":6314:6338   */\n      tag_293\n        /* \"#utility.yul\":6332:6337   */\n      dup2\n        /* \"#utility.yul\":6314:6338   */\n      tag_190\n      jump\t// in\n    tag_293:\n        /* \"#utility.yul\":6309:6312   */\n      dup3\n        /* \"#utility.yul\":6302:6339   */\n      mstore\n        /* \"#utility.yul\":6237:6345   */\n      pop\n      pop\n      jump\t// out\n        /* \"#utility.yul\":6351:6530   */\n    tag_203:\n        /* \"#utility.yul\":6420:6430   */\n      0x00\n        /* \"#utility.yul\":6441:6487   */\n      tag_295\n        /* \"#utility.yul\":6483:6486   */\n      dup4\n        /* \"#utility.yul\":6475:6481   */\n      dup4\n        /* \"#utility.yul\":6441:6487   */\n      tag_202\n      jump\t// in\n    tag_295:\n        /* \"#utility.yul\":6519:6523   */\n      0x20\n        /* \"#utility.yul\":6514:6517   */\n      dup4\n        /* \"#utility.yul\":6510:6524   */\n      add\n        /* \"#utility.yul\":6496:6524   */\n      swap1\n      pop\n        /* \"#utility.yul\":6351:6530   */\n      swap3\n      swap2\n      pop\n      pop\n      jump\t// out\n        /* \"#utility.yul\":6536:6649   */\n    tag_204:\n        /* \"#utility.yul\":6606:6610   */\n      0x00\n        /* \"#utility.yul\":6638:6642   */\n      0x20\n        /* \"#utility.yul\":6633:6636   */\n      dup3\n        /* \"#utility.yul\":6629:6643   */\n      add\n        /* \"#utility.yul\":6621:6643   */\n      swap1\n      pop\n        /* \"#utility.yul\":6536:6649   */\n      swap2\n      swap1\n      pop\n      jump\t// out\n        /* \"#utility.yul\":6685:7417   */\n    tag_205:\n        /* \"#utility.yul\":6804:6807   */\n      0x00\n        /* \"#utility.yul\":6833:6887   */\n      tag_298\n        /* \"#utility.yul\":6881:6886   */\n      dup3\n        /* \"#utility.yul\":6833:6887   */\n      tag_199\n      jump\t// in\n    tag_298:\n        /* \"#utility.yul\":6903:6989   */\n      tag_299\n        /* \"#utility.yul\":6982:6988   */\n      dup2\n        /* \"#utility.yul\":6977:6980   */\n      dup6\n        /* \"#utility.yul\":6903:6989   */\n      tag_200\n      jump\t// in\n    tag_299:\n        /* \"#utility.yul\":6896:6989   */\n      swap4\n      pop\n        /* \"#utility.yul\":7013:7069   */\n      tag_300\n        /* \"#utility.yul\":7063:7068   */\n      dup4\n        /* \"#utility.yul\":7013:7069   */\n      tag_201\n      jump\t// in\n    tag_300:\n        /* \"#utility.yul\":7092:7099   */\n      dup1\n        /* \"#utility.yul\":7123:7124   */\n      0x00\n        /* \"#utility.yul\":7108:7392   */\n    tag_301:\n        /* \"#utility.yul\":7133:7139   */\n      dup4\n        /* \"#utility.yul\":7130:7131   */\n      dup2\n        /* \"#utility.yul\":7127:7140   */\n      lt\n        /* \"#utility.yul\":7108:7392   */\n      iszero\n      tag_303\n      jumpi\n        /* \"#utility.yul\":7209:7215   */\n      dup2\n        /* \"#utility.yul\":7203:7216   */\n      mload\n        /* \"#utility.yul\":7236:7299   */\n      tag_304\n        /* \"#utility.yul\":7295:7298   */\n      dup9\n        /* \"#utility.yul\":7280:7293   */\n      dup3\n        /* \"#utility.yul\":7236:7299   */\n      tag_203\n      jump\t// in\n    tag_304:\n        /* \"#utility.yul\":7229:7299   */\n      swap8\n      pop\n        /* \"#utility.yul\":7322:7382   */\n      tag_305\n        /* \"#utility.yul\":7375:7381   */\n      dup4\n        /* \"#utility.yul\":7322:7382   */\n      tag_204\n      jump\t// in\n    tag_305:\n        /* \"#utility.yul\":7312:7382   */\n      swap3\n      pop\n        /* \"#utility.yul\":7168:7392   */\n      pop\n        /* \"#utility.yul\":7155:7156   */\n      0x01\n        /* \"#utility.yul\":7152:7153   */\n      dup2\n        /* \"#utility.yul\":7148:7157   */\n      add\n        /* \"#utility.yul\":7143:7157   */\n      swap1\n      pop\n        /* \"#utility.yul\":7108:7392   */\n      jump(tag_301)\n    tag_303:\n        /* \"#utility.yul\":7112:7126   */\n      pop\n        /* \"#utility.yul\":7408:7411   */\n      dup6\n        /* \"#utility.yul\":7401:7411   */\n      swap4\n      pop\n        /* \"#utility.yul\":6809:7417   */\n      pop\n      pop\n      pop\n        /* \"#utility.yul\":6685:7417   */\n      swap3\n      swap2\n      pop\n      pop\n      jump\t// out\n        /* \"#utility.yul\":7423:8057   */\n    tag_31:\n        /* \"#utility.yul\":7644:7648   */\n      0x00\n        /* \"#utility.yul\":7682:7684   */\n      0x40\n        /* \"#utility.yul\":7671:7680   */\n      dup3\n        /* \"#utility.yul\":7667:7685   */\n      add\n        /* \"#utility.yul\":7659:7685   */\n      swap1\n      pop\n        /* \"#utility.yul\":7731:7740   */\n      dup2\n        /* \"#utility.yul\":7725:7729   */\n      dup2\n        /* \"#utility.yul\":7721:7741   */\n      sub\n        /* \"#utility.yul\":7717:7718   */\n      0x00\n        /* \"#utility.yul\":7706:7715   */\n      dup4\n        /* \"#utility.yul\":7702:7719   */\n      add\n        /* \"#utility.yul\":7695:7742   */\n      mstore\n        /* \"#utility.yul\":7759:7867   */\n      tag_307\n        /* \"#utility.yul\":7862:7866   */\n      dup2\n        /* \"#utility.yul\":7853:7859   */\n      dup6\n        /* \"#utility.yul\":7759:7867   */\n      tag_198\n      jump\t// in\n    tag_307:\n        /* \"#utility.yul\":7751:7867   */\n      swap1\n      pop\n        /* \"#utility.yul\":7914:7923   */\n      dup2\n        /* \"#utility.yul\":7908:7912   */\n      dup2\n        /* \"#utility.yul\":7904:7924   */\n      sub\n        /* \"#utility.yul\":7899:7901   */\n      0x20\n        /* \"#utility.yul\":7888:7897   */\n      dup4\n        /* \"#utility.yul\":7884:7902   */\n      add\n        /* \"#utility.yul\":7877:7925   */\n      mstore\n        /* \"#utility.yul\":7942:8050   */\n      tag_308\n        /* \"#utility.yul\":8045:8049   */\n      dup2\n        /* \"#utility.yul\":8036:8042   */\n      dup5\n        /* \"#utility.yul\":7942:8050   */\n      tag_205\n      jump\t// in\n    tag_308:\n        /* \"#utility.yul\":7934:8050   */\n      swap1\n      pop\n        /* \"#utility.yul\":7423:8057   */\n      swap4\n      swap3\n      pop\n      pop\n      pop\n      jump\t// out\n        /* \"#utility.yul\":8063:8181   */\n    tag_206:\n        /* \"#utility.yul\":8150:8174   */\n      tag_310\n        /* \"#utility.yul\":8168:8173   */\n      dup2\n        /* \"#utility.yul\":8150:8174   */\n      tag_178\n      jump\t// in\n    tag_310:\n        /* \"#utility.yul\":8145:8148   */\n      dup3\n        /* \"#utility.yul\":8138:8175   */\n      mstore\n        /* \"#utility.yul\":8063:8181   */\n      pop\n      pop\n      jump\t// out\n        /* \"#utility.yul\":8187:8409   */\n    tag_54:\n        /* \"#utility.yul\":8280:8284   */\n      0x00\n        /* \"#utility.yul\":8318:8320   */\n      0x20\n        /* \"#utility.yul\":8307:8316   */\n      dup3\n        /* \"#utility.yul\":8303:8321   */\n      add\n        /* \"#utility.yul\":8295:8321   */\n      swap1\n      pop\n        /* \"#utility.yul\":8331:8402   */\n      tag_312\n        /* \"#utility.yul\":8399:8400   */\n      0x00\n        /* \"#utility.yul\":8388:8397   */\n      dup4\n        /* \"#utility.yul\":8384:8401   */\n      add\n        /* \"#utility.yul\":8375:8381   */\n      dup5\n        /* \"#utility.yul\":8331:8402   */\n      tag_206\n      jump\t// in\n    tag_312:\n        /* \"#utility.yul\":8187:8409   */\n      swap3\n      swap2\n      pop\n      pop\n      jump\t// out\n        /* \"#utility.yul\":8415:8924   */\n    tag_58:\n        /* \"#utility.yul\":8484:8490   */\n      0x00\n        /* \"#utility.yul\":8533:8535   */\n      0x20\n        /* \"#utility.yul\":8521:8530   */\n      dup3\n        /* \"#utility.yul\":8512:8519   */\n      dup5\n        /* \"#utility.yul\":8508:8531   */\n      sub\n        /* \"#utility.yul\":8504:8536   */\n      slt\n        /* \"#utility.yul\":8501:8620   */\n      iszero\n      tag_314\n      jumpi\n        /* \"#utility.yul\":8539:8618   */\n      tag_315\n      tag_175\n      jump\t// in\n    tag_315:\n        /* \"#utility.yul\":8501:8620   */\n    tag_314:\n        /* \"#utility.yul\":8687:8688   */\n      0x00\n        /* \"#utility.yul\":8676:8685   */\n      dup3\n        /* \"#utility.yul\":8672:8689   */\n      add\n        /* \"#utility.yul\":8659:8690   */\n      calldataload\n        /* \"#utility.yul\":8717:8735   */\n      0xffffffffffffffff\n        /* \"#utility.yul\":8709:8715   */\n      dup2\n        /* \"#utility.yul\":8706:8736   */\n      gt\n        /* \"#utility.yul\":8703:8820   */\n      iszero\n      tag_316\n      jumpi\n        /* \"#utility.yul\":8739:8818   */\n      tag_317\n      tag_176\n      jump\t// in\n    tag_317:\n        /* \"#utility.yul\":8703:8820   */\n    tag_316:\n        /* \"#utility.yul\":8844:8907   */\n      tag_318\n        /* \"#utility.yul\":8899:8906   */\n      dup5\n        /* \"#utility.yul\":8890:8896   */\n      dup3\n        /* \"#utility.yul\":8879:8888   */\n      dup6\n        /* \"#utility.yul\":8875:8897   */\n      add\n        /* \"#utility.yul\":8844:8907   */\n      tag_189\n      jump\t// in\n    tag_318:\n        /* \"#utility.yul\":8834:8907   */\n      swap2\n      pop\n        /* \"#utility.yul\":8630:8917   */\n      pop\n        /* \"#utility.yul\":8415:8924   */\n      swap3\n      swap2\n      pop\n      pop\n      jump\t// out\n        /* \"#utility.yul\":8930:9052   */\n    tag_207:\n        /* \"#utility.yul\":9003:9027   */\n      tag_320\n        /* \"#utility.yul\":9021:9026   */\n      dup2\n        /* \"#utility.yul\":9003:9027   */\n      tag_190\n      jump\t// in\n    tag_320:\n        /* \"#utility.yul\":8996:9001   */\n      dup2\n        /* \"#utility.yul\":8993:9028   */\n      eq\n        /* \"#utility.yul\":8983:9046   */\n      tag_321\n      jumpi\n        /* \"#utility.yul\":9042:9043   */\n      0x00\n        /* \"#utility.yul\":9039:9040   */\n      dup1\n        /* \"#utility.yul\":9032:9044   */\n      revert\n        /* \"#utility.yul\":8983:9046   */\n    tag_321:\n        /* \"#utility.yul\":8930:9052   */\n      pop\n      jump\t// out\n        /* \"#utility.yul\":9058:9197   */\n    tag_208:\n        /* \"#utility.yul\":9104:9109   */\n      0x00\n        /* \"#utility.yul\":9142:9148   */\n      dup2\n        /* \"#utility.yul\":9129:9149   */\n      calldataload\n        /* \"#utility.yul\":9120:9149   */\n      swap1\n      pop\n        /* \"#utility.yul\":9158:9191   */\n      tag_323\n        /* \"#utility.yul\":9185:9190   */\n      dup2\n        /* \"#utility.yul\":9158:9191   */\n      tag_207\n      jump\t// in\n    tag_323:\n        /* \"#utility.yul\":9058:9197   */\n      swap3\n      swap2\n      pop\n      pop\n      jump\t// out\n        /* \"#utility.yul\":9203:9857   */\n    tag_67:\n        /* \"#utility.yul\":9281:9287   */\n      0x00\n        /* \"#utility.yul\":9289:9295   */\n      dup1\n        /* \"#utility.yul\":9338:9340   */\n      0x40\n        /* \"#utility.yul\":9326:9335   */\n      dup4\n        /* \"#utility.yul\":9317:9324   */\n      dup6\n        /* \"#utility.yul\":9313:9336   */\n      sub\n        /* \"#utility.yul\":9309:9341   */\n      slt\n        /* \"#utility.yul\":9306:9425   */\n      iszero\n      tag_325\n      jumpi\n        /* \"#utility.yul\":9344:9423   */\n      tag_326\n      tag_175\n      jump\t// in\n    tag_326:\n        /* \"#utility.yul\":9306:9425   */\n    tag_325:\n        /* \"#utility.yul\":9464:9465   */\n      0x00\n        /* \"#utility.yul\":9489:9542   */\n      tag_327\n        /* \"#utility.yul\":9534:9541   */\n      dup6\n        /* \"#utility.yul\":9525:9531   */\n      dup3\n        /* \"#utility.yul\":9514:9523   */\n      dup7\n        /* \"#utility.yul\":9510:9532   */\n      add\n        /* \"#utility.yul\":9489:9542   */\n      tag_208\n      jump\t// in\n    tag_327:\n        /* \"#utility.yul\":9479:9542   */\n      swap3\n      pop\n        /* \"#utility.yul\":9435:9552   */\n      pop\n        /* \"#utility.yul\":9619:9621   */\n      0x20\n        /* \"#utility.yul\":9608:9617   */\n      dup4\n        /* \"#utility.yul\":9604:9622   */\n      add\n        /* \"#utility.yul\":9591:9623   */\n      calldataload\n        /* \"#utility.yul\":9650:9668   */\n      0xffffffffffffffff\n        /* \"#utility.yul\":9642:9648   */\n      dup2\n        /* \"#utility.yul\":9639:9669   */\n      gt\n        /* \"#utility.yul\":9636:9753   */\n      iszero\n      tag_328\n      jumpi\n        /* \"#utility.yul\":9672:9751   */\n      tag_329\n      tag_176\n      jump\t// in\n    tag_329:\n        /* \"#utility.yul\":9636:9753   */\n    tag_328:\n        /* \"#utility.yul\":9777:9840   */\n      tag_330\n        /* \"#utility.yul\":9832:9839   */\n      dup6\n        /* \"#utility.yul\":9823:9829   */\n      dup3\n        /* \"#utility.yul\":9812:9821   */\n      dup7\n        /* \"#utility.yul\":9808:9830   */\n      add\n        /* \"#utility.yul\":9777:9840   */\n      tag_189\n      jump\t// in\n    tag_330:\n        /* \"#utility.yul\":9767:9840   */\n      swap2\n      pop\n        /* \"#utility.yul\":9562:9850   */\n      pop\n        /* \"#utility.yul\":9203:9857   */\n      swap3\n      pop\n      swap3\n      swap1\n      pop\n      jump\t// out\n        /* \"#utility.yul\":9863:10662   */\n    tag_72:\n        /* \"#utility.yul\":9950:9956   */\n      0x00\n        /* \"#utility.yul\":9958:9964   */\n      dup1\n        /* \"#utility.yul\":9966:9972   */\n      0x00\n        /* \"#utility.yul\":10015:10017   */\n      0x60\n        /* \"#utility.yul\":10003:10012   */\n      dup5\n        /* \"#utility.yul\":9994:10001   */\n      dup7\n        /* \"#utility.yul\":9990:10013   */\n      sub\n        /* \"#utility.yul\":9986:10018   */\n      slt\n        /* \"#utility.yul\":9983:10102   */\n      iszero\n      tag_332\n      jumpi\n        /* \"#utility.yul\":10021:10100   */\n      tag_333\n      tag_175\n      jump\t// in\n    tag_333:\n        /* \"#utility.yul\":9983:10102   */\n    tag_332:\n        /* \"#utility.yul\":10141:10142   */\n      0x00\n        /* \"#utility.yul\":10166:10219   */\n      tag_334\n        /* \"#utility.yul\":10211:10218   */\n      dup7\n        /* \"#utility.yul\":10202:10208   */\n      dup3\n        /* \"#utility.yul\":10191:10200   */\n      dup8\n        /* \"#utility.yul\":10187:10209   */\n      add\n        /* \"#utility.yul\":10166:10219   */\n      tag_208\n      jump\t// in\n    tag_334:\n        /* \"#utility.yul\":10156:10219   */\n      swap4\n      pop\n        /* \"#utility.yul\":10112:10229   */\n      pop\n        /* \"#utility.yul\":10268:10270   */\n      0x20\n        /* \"#utility.yul\":10294:10347   */\n      tag_335\n        /* \"#utility.yul\":10339:10346   */\n      dup7\n        /* \"#utility.yul\":10330:10336   */\n      dup3\n        /* \"#utility.yul\":10319:10328   */\n      dup8\n        /* \"#utility.yul\":10315:10337   */\n      add\n        /* \"#utility.yul\":10294:10347   */\n      tag_180\n      jump\t// in\n    tag_335:\n        /* \"#utility.yul\":10284:10347   */\n      swap3\n      pop\n        /* \"#utility.yul\":10239:10357   */\n      pop\n        /* \"#utility.yul\":10424:10426   */\n      0x40\n        /* \"#utility.yul\":10413:10422   */\n      dup5\n        /* \"#utility.yul\":10409:10427   */\n      add\n        /* \"#utility.yul\":10396:10428   */\n      calldataload\n        /* \"#utility.yul\":10455:10473   */\n      0xffffffffffffffff\n        /* \"#utility.yul\":10447:10453   */\n      dup2\n        /* \"#utility.yul\":10444:10474   */\n      gt\n        /* \"#utility.yul\":10441:10558   */\n      iszero\n      tag_336\n      jumpi\n        /* \"#utility.yul\":10477:10556   */\n      tag_337\n      tag_176\n      jump\t// in\n    tag_337:\n        /* \"#utility.yul\":10441:10558   */\n    tag_336:\n        /* \"#utility.yul\":10582:10645   */\n      tag_338\n        /* \"#utility.yul\":10637:10644   */\n      dup7\n        /* \"#utility.yul\":10628:10634   */\n      dup3\n        /* \"#utility.yul\":10617:10626   */\n      dup8\n        /* \"#utility.yul\":10613:10635   */\n      add\n        /* \"#utility.yul\":10582:10645   */\n      tag_189\n      jump\t// in\n    tag_338:\n        /* \"#utility.yul\":10572:10645   */\n      swap2\n      pop\n        /* \"#utility.yul\":10367:10655   */\n      pop\n        /* \"#utility.yul\":9863:10662   */\n      swap3\n      pop\n      swap3\n      pop\n      swap3\n      jump\t// out\n        /* \"#utility.yul\":10668:10811   */\n    tag_209:\n        /* \"#utility.yul\":10725:10730   */\n      0x00\n        /* \"#utility.yul\":10756:10762   */\n      dup2\n        /* \"#utility.yul\":10750:10763   */\n      mload\n        /* \"#utility.yul\":10741:10763   */\n      swap1\n      pop\n        /* \"#utility.yul\":10772:10805   */\n      tag_340\n        /* \"#utility.yul\":10799:10804   */\n      dup2\n        /* \"#utility.yul\":10772:10805   */\n      tag_207\n      jump\t// in\n    tag_340:\n        /* \"#utility.yul\":10668:10811   */\n      swap3\n      swap2\n      pop\n      pop\n      jump\t// out\n        /* \"#utility.yul\":10817:11168   */\n    tag_94:\n        /* \"#utility.yul\":10887:10893   */\n      0x00\n        /* \"#utility.yul\":10936:10938   */\n      0x20\n        /* \"#utility.yul\":10924:10933   */\n      dup3\n        /* \"#utility.yul\":10915:10922   */\n      dup5\n        /* \"#utility.yul\":10911:10934   */\n      sub\n        /* \"#utility.yul\":10907:10939   */\n      slt\n        /* \"#utility.yul\":10904:11023   */\n      iszero\n      tag_342\n      jumpi\n        /* \"#utility.yul\":10942:11021   */\n      tag_343\n      tag_175\n      jump\t// in\n    tag_343:\n        /* \"#utility.yul\":10904:11023   */\n    tag_342:\n        /* \"#utility.yul\":11062:11063   */\n      0x00\n        /* \"#utility.yul\":11087:11151   */\n      tag_344\n        /* \"#utility.yul\":11143:11150   */\n      dup5\n        /* \"#utility.yul\":11134:11140   */\n      dup3\n        /* \"#utility.yul\":11123:11132   */\n      dup6\n        /* \"#utility.yul\":11119:11141   */\n      add\n        /* \"#utility.yul\":11087:11151   */\n      tag_209\n      jump\t// in\n    tag_344:\n        /* \"#utility.yul\":11077:11151   */\n      swap2\n      pop\n        /* \"#utility.yul\":11033:11161   */\n      pop\n        /* \"#utility.yul\":10817:11168   */\n      swap3\n      swap2\n      pop\n      pop\n      jump\t// out\n        /* \"#utility.yul\":11174:11354   */\n    tag_110:\n        /* \"#utility.yul\":11222:11299   */\n      0x4e487b7100000000000000000000000000000000000000000000000000000000\n        /* \"#utility.yul\":11219:11220   */\n      0x00\n        /* \"#utility.yul\":11212:11300   */\n      mstore\n        /* \"#utility.yul\":11319:11323   */\n      0x32\n        /* \"#utility.yul\":11316:11317   */\n      0x04\n        /* \"#utility.yul\":11309:11324   */\n      mstore\n        /* \"#utility.yul\":11343:11347   */\n      0x24\n        /* \"#utility.yul\":11340:11341   */\n      0x00\n        /* \"#utility.yul\":11333:11348   */\n      revert\n        /* \"#utility.yul\":11360:11459   */\n    tag_210:\n        /* \"#utility.yul\":11412:11418   */\n      0x00\n        /* \"#utility.yul\":11446:11451   */\n      dup2\n        /* \"#utility.yul\":11440:11452   */\n      mload\n        /* \"#utility.yul\":11430:11452   */\n      swap1\n      pop\n        /* \"#utility.yul\":11360:11459   */\n      swap2\n      swap1\n      pop\n      jump\t// out\n        /* \"#utility.yul\":11465:11613   */\n    tag_211:\n        /* \"#utility.yul\":11567:11578   */\n      0x00\n        /* \"#utility.yul\":11604:11607   */\n      dup2\n        /* \"#utility.yul\":11589:11607   */\n      swap1\n      pop\n        /* \"#utility.yul\":11465:11613   */\n      swap3\n      swap2\n      pop\n      pop\n      jump\t// out\n        /* \"#utility.yul\":11619:11865   */\n    tag_212:\n        /* \"#utility.yul\":11700:11701   */\n      0x00\n        /* \"#utility.yul\":11710:11823   */\n    tag_349:\n        /* \"#utility.yul\":11724:11730   */\n      dup4\n        /* \"#utility.yul\":11721:11722   */\n      dup2\n        /* \"#utility.yul\":11718:11731   */\n      lt\n        /* \"#utility.yul\":11710:11823   */\n      iszero\n      tag_351\n      jumpi\n        /* \"#utility.yul\":11809:11810   */\n      dup1\n        /* \"#utility.yul\":11804:11807   */\n      dup3\n        /* \"#utility.yul\":11800:11811   */\n      add\n        /* \"#utility.yul\":11794:11812   */\n      mload\n        /* \"#utility.yul\":11790:11791   */\n      dup2\n        /* \"#utility.yul\":11785:11788   */\n      dup5\n        /* \"#utility.yul\":11781:11792   */\n      add\n        /* \"#utility.yul\":11774:11813   */\n      mstore\n        /* \"#utility.yul\":11746:11748   */\n      0x20\n        /* \"#utility.yul\":11743:11744   */\n      dup2\n        /* \"#utility.yul\":11739:11749   */\n      add\n        /* \"#utility.yul\":11734:11749   */\n      swap1\n      pop\n        /* \"#utility.yul\":11710:11823   */\n      jump(tag_349)\n    tag_351:\n        /* \"#utility.yul\":11857:11858   */\n      0x00\n        /* \"#utility.yul\":11848:11854   */\n      dup5\n        /* \"#utility.yul\":11843:11846   */\n      dup5\n        /* \"#utility.yul\":11839:11855   */\n      add\n        /* \"#utility.yul\":11832:11859   */\n      mstore\n        /* \"#utility.yul\":11681:11865   */\n      pop\n        /* \"#utility.yul\":11619:11865   */\n      pop\n      pop\n      pop\n      jump\t// out\n        /* \"#utility.yul\":11871:12261   */\n    tag_213:\n        /* \"#utility.yul\":11977:11980   */\n      0x00\n        /* \"#utility.yul\":12005:12044   */\n      tag_353\n        /* \"#utility.yul\":12038:12043   */\n      dup3\n        /* \"#utility.yul\":12005:12044   */\n      tag_210\n      jump\t// in\n    tag_353:\n        /* \"#utility.yul\":12060:12149   */\n      tag_354\n        /* \"#utility.yul\":12142:12148   */\n      dup2\n        /* \"#utility.yul\":12137:12140   */\n      dup6\n        /* \"#utility.yul\":12060:12149   */\n      tag_211\n      jump\t// in\n    tag_354:\n        /* \"#utility.yul\":12053:12149   */\n      swap4\n      pop\n        /* \"#utility.yul\":12158:12223   */\n      tag_355\n        /* \"#utility.yul\":12216:12222   */\n      dup2\n        /* \"#utility.yul\":12211:12214   */\n      dup6\n        /* \"#utility.yul\":12204:12208   */\n      0x20\n        /* \"#utility.yul\":12197:12202   */\n      dup7\n        /* \"#utility.yul\":12193:12209   */\n      add\n        /* \"#utility.yul\":12158:12223   */\n      tag_212\n      jump\t// in\n    tag_355:\n        /* \"#utility.yul\":12248:12254   */\n      dup1\n        /* \"#utility.yul\":12243:12246   */\n      dup5\n        /* \"#utility.yul\":12239:12255   */\n      add\n        /* \"#utility.yul\":12232:12255   */\n      swap2\n      pop\n        /* \"#utility.yul\":11981:12261   */\n      pop\n        /* \"#utility.yul\":11871:12261   */\n      swap3\n      swap2\n      pop\n      pop\n      jump\t// out\n        /* \"#utility.yul\":12267:12542   */\n    tag_112:\n        /* \"#utility.yul\":12399:12402   */\n      0x00\n        /* \"#utility.yul\":12421:12516   */\n      tag_357\n        /* \"#utility.yul\":12512:12515   */\n      dup3\n        /* \"#utility.yul\":12503:12509   */\n      dup5\n        /* \"#utility.yul\":12421:12516   */\n      tag_213\n      jump\t// in\n    tag_357:\n        /* \"#utility.yul\":12414:12516   */\n      swap2\n      pop\n        /* \"#utility.yul\":12533:12536   */\n      dup2\n        /* \"#utility.yul\":12526:12536   */\n      swap1\n      pop\n        /* \"#utility.yul\":12267:12542   */\n      swap3\n      swap2\n      pop\n      pop\n      jump\t// out\n        /* \"#utility.yul\":12548:12728   */\n    tag_214:\n        /* \"#utility.yul\":12596:12673   */\n      0x4e487b7100000000000000000000000000000000000000000000000000000000\n        /* \"#utility.yul\":12593:12594   */\n      0x00\n        /* \"#utility.yul\":12586:12674   */\n      mstore\n        /* \"#utility.yul\":12693:12697   */\n      0x11\n        /* \"#utility.yul\":12690:12691   */\n      0x04\n        /* \"#utility.yul\":12683:12698   */\n      mstore\n        /* \"#utility.yul\":12717:12721   */\n      0x24\n        /* \"#utility.yul\":12714:12715   */\n      0x00\n        /* \"#utility.yul\":12707:12722   */\n      revert\n        /* \"#utility.yul\":12734:12967   */\n    tag_115:\n        /* \"#utility.yul\":12773:12776   */\n      0x00\n        /* \"#utility.yul\":12796:12820   */\n      tag_360\n        /* \"#utility.yul\":12814:12819   */\n      dup3\n        /* \"#utility.yul\":12796:12820   */\n      tag_190\n      jump\t// in\n    tag_360:\n        /* \"#utility.yul\":12787:12820   */\n      swap2\n      pop\n        /* \"#utility.yul\":12842:12908   */\n      0xffffffffffffffffffffffffffffffffffffffffffffffffffffffffffffffff\n        /* \"#utility.yul\":12835:12840   */\n      dup3\n        /* \"#utility.yul\":12832:12909   */\n      sub\n        /* \"#utility.yul\":12829:12932   */\n      tag_361\n      jumpi\n        /* \"#utility.yul\":12912:12930   */\n      tag_362\n      tag_214\n      jump\t// in\n    tag_362:\n        /* \"#utility.yul\":12829:12932   */\n    tag_361:\n        /* \"#utility.yul\":12959:12960   */\n      0x01\n        /* \"#utility.yul\":12952:12957   */\n      dup3\n        /* \"#utility.yul\":12948:12961   */\n      add\n        /* \"#utility.yul\":12941:12961   */\n      swap1\n      pop\n        /* \"#utility.yul\":12734:12967   */\n      swap2\n      swap1\n      pop\n      jump\t// out\n        /* \"#utility.yul\":12973:13142   */\n    tag_215:\n        /* \"#utility.yul\":13057:13068   */\n      0x00\n        /* \"#utility.yul\":13091:13097   */\n      dup3\n        /* \"#utility.yul\":13086:13089   */\n      dup3\n        /* \"#utility.yul\":13079:13098   */\n      mstore\n        /* \"#utility.yul\":13131:13135   */\n      0x20\n        /* \"#utility.yul\":13126:13129   */\n      dup3\n        /* \"#utility.yul\":13122:13136   */\n      add\n        /* \"#utility.yul\":13107:13136   */\n      swap1\n      pop\n        /* \"#utility.yul\":12973:13142   */\n      swap3\n      swap2\n      pop\n      pop\n      jump\t// out\n        /* \"#utility.yul\":13148:13328   */\n    tag_216:\n        /* \"#utility.yul\":13288:13320   */\n      0x56616c7565206d75737420626520686967686572207468616e207a65726f0000\n        /* \"#utility.yul\":13284:13285   */\n      0x00\n        /* \"#utility.yul\":13276:13282   */\n      dup3\n        /* \"#utility.yul\":13272:13286   */\n      add\n        /* \"#utility.yul\":13265:13321   */\n      mstore\n        /* \"#utility.yul\":13148:13328   */\n      pop\n      jump\t// out\n        /* \"#utility.yul\":13334:13700   */\n    tag_217:\n        /* \"#utility.yul\":13476:13479   */\n      0x00\n        /* \"#utility.yul\":13497:13564   */\n      tag_366\n        /* \"#utility.yul\":13561:13563   */\n      0x1e\n        /* \"#utility.yul\":13556:13559   */\n      dup4\n        /* \"#utility.yul\":13497:13564   */\n      tag_215\n      jump\t// in\n    tag_366:\n        /* \"#utility.yul\":13490:13564   */\n      swap2\n      pop\n        /* \"#utility.yul\":13573:13666   */\n      tag_367\n        /* \"#utility.yul\":13662:13665   */\n      dup3\n        /* \"#utility.yul\":13573:13666   */\n      tag_216\n      jump\t// in\n    tag_367:\n        /* \"#utility.yul\":13691:13693   */\n      0x20\n        /* \"#utility.yul\":13686:13689   */\n      dup3\n        /* \"#utility.yul\":13682:13694   */\n      add\n        /* \"#utility.yul\":13675:13694   */\n      swap1\n      pop\n        /* \"#utility.yul\":13334:13700   */\n      swap2\n      swap1\n      pop\n      jump\t// out\n        /* \"#utility.yul\":13706:14125   */\n    tag_147:\n        /* \"#utility.yul\":13872:13876   */\n      0x00\n        /* \"#utility.yul\":13910:13912   */\n      0x20\n        /* \"#utility.yul\":13899:13908   */\n      dup3\n        /* \"#utility.yul\":13895:13913   */\n      add\n        /* \"#utility.yul\":13887:13913   */\n      swap1\n      pop\n        /* \"#utility.yul\":13959:13968   */\n      dup2\n        /* \"#utility.yul\":13953:13957   */\n      dup2\n        /* \"#utility.yul\":13949:13969   */\n      sub\n        /* \"#utility.yul\":13945:13946   */\n      0x00\n        /* \"#utility.yul\":13934:13943   */\n      dup4\n        /* \"#utility.yul\":13930:13947   */\n      add\n        /* \"#utility.yul\":13923:13970   */\n      mstore\n        /* \"#utility.yul\":13987:14118   */\n      tag_369\n        /* \"#utility.yul\":14113:14117   */\n      dup2\n        /* \"#utility.yul\":13987:14118   */\n      tag_217\n      jump\t// in\n    tag_369:\n        /* \"#utility.yul\":13979:14118   */\n      swap1\n      pop\n        /* \"#utility.yul\":13706:14125   */\n      swap2\n      swap1\n      pop\n      jump\t// out\n        /* \"#utility.yul\":14131:14322   */\n    tag_150:\n        /* \"#utility.yul\":14171:14174   */\n      0x00\n        /* \"#utility.yul\":14190:14210   */\n      tag_371\n        /* \"#utility.yul\":14208:14209   */\n      dup3\n        /* \"#utility.yul\":14190:14210   */\n      tag_190\n      jump\t// in\n    tag_371:\n        /* \"#utility.yul\":14185:14210   */\n      swap2\n      pop\n        /* \"#utility.yul\":14224:14244   */\n      tag_372\n        /* \"#utility.yul\":14242:14243   */\n      dup4\n        /* \"#utility.yul\":14224:14244   */\n      tag_190\n      jump\t// in\n    tag_372:\n        /* \"#utility.yul\":14219:14244   */\n      swap3\n      pop\n        /* \"#utility.yul\":14267:14268   */\n      dup3\n        /* \"#utility.yul\":14264:14265   */\n      dup3\n        /* \"#utility.yul\":14260:14269   */\n      add\n        /* \"#utility.yul\":14253:14269   */\n      swap1\n      pop\n        /* \"#utility.yul\":14288:14291   */\n      dup1\n        /* \"#utility.yul\":14285:14286   */\n      dup3\n        /* \"#utility.yul\":14282:14292   */\n      gt\n        /* \"#utility.yul\":14279:14315   */\n      iszero\n      tag_373\n      jumpi\n        /* \"#utility.yul\":14295:14313   */\n      tag_374\n      tag_214\n      jump\t// in\n    tag_374:\n        /* \"#utility.yul\":14279:14315   */\n    tag_373:\n        /* \"#utility.yul\":14131:14322   */\n      swap3\n      swap2\n      pop\n      pop\n      jump\t// out\n        /* \"#utility.yul\":14328:14555   */\n    tag_218:\n        /* \"#utility.yul\":14468:14502   */\n      0x42616c616e63652073686f756c6420626520686967686572207468616e207468\n        /* \"#utility.yul\":14464:14465   */\n      0x00\n        /* \"#utility.yul\":14456:14462   */\n      dup3\n        /* \"#utility.yul\":14452:14466   */\n      add\n        /* \"#utility.yul\":14445:14503   */\n      mstore\n        /* \"#utility.yul\":14537:14547   */\n      0x6520616d6f756e74000000000000000000000000000000000000000000000000\n        /* \"#utility.yul\":14532:14534   */\n      0x20\n        /* \"#utility.yul\":14524:14530   */\n      dup3\n        /* \"#utility.yul\":14520:14535   */\n      add\n        /* \"#utility.yul\":14513:14548   */\n      mstore\n        /* \"#utility.yul\":14328:14555   */\n      pop\n      jump\t// out\n        /* \"#utility.yul\":14561:14927   */\n    tag_219:\n        /* \"#utility.yul\":14703:14706   */\n      0x00\n        /* \"#utility.yul\":14724:14791   */\n      tag_377\n        /* \"#utility.yul\":14788:14790   */\n      0x28\n        /* \"#utility.yul\":14783:14786   */\n      dup4\n        /* \"#utility.yul\":14724:14791   */\n      tag_215\n      jump\t// in\n    tag_377:\n        /* \"#utility.yul\":14717:14791   */\n      swap2\n      pop\n        /* \"#utility.yul\":14800:14893   */\n      tag_378\n        /* \"#utility.yul\":14889:14892   */\n      dup3\n        /* \"#utility.yul\":14800:14893   */\n      tag_218\n      jump\t// in\n    tag_378:\n        /* \"#utility.yul\":14918:14920   */\n      0x40\n        /* \"#utility.yul\":14913:14916   */\n      dup3\n        /* \"#utility.yul\":14909:14921   */\n      add\n        /* \"#utility.yul\":14902:14921   */\n      swap1\n      pop\n        /* \"#utility.yul\":14561:14927   */\n      swap2\n      swap1\n      pop\n      jump\t// out\n        /* \"#utility.yul\":14933:15352   */\n    tag_157:\n        /* \"#utility.yul\":15099:15103   */\n      0x00\n        /* \"#utility.yul\":15137:15139   */\n      0x20\n        /* \"#utility.yul\":15126:15135   */\n      dup3\n        /* \"#utility.yul\":15122:15140   */\n      add\n        /* \"#utility.yul\":15114:15140   */\n      swap1\n      pop\n        /* \"#utility.yul\":15186:15195   */\n      dup2\n        /* \"#utility.yul\":15180:15184   */\n      dup2\n        /* \"#utility.yul\":15176:15196   */\n      sub\n        /* \"#utility.yul\":15172:15173   */\n      0x00\n        /* \"#utility.yul\":15161:15170   */\n      dup4\n        /* \"#utility.yul\":15157:15174   */\n      add\n        /* \"#utility.yul\":15150:15197   */\n      mstore\n        /* \"#utility.yul\":15214:15345   */\n      tag_380\n        /* \"#utility.yul\":15340:15344   */\n      dup2\n        /* \"#utility.yul\":15214:15345   */\n      tag_219\n      jump\t// in\n    tag_380:\n        /* \"#utility.yul\":15206:15345   */\n      swap1\n      pop\n        /* \"#utility.yul\":14933:15352   */\n      swap2\n      swap1\n      pop\n      jump\t// out\n        /* \"#utility.yul\":15358:15552   */\n    tag_160:\n        /* \"#utility.yul\":15398:15402   */\n      0x00\n        /* \"#utility.yul\":15418:15438   */\n      tag_382\n        /* \"#utility.yul\":15436:15437   */\n      dup3\n        /* \"#utility.yul\":15418:15438   */\n      tag_190\n      jump\t// in\n    tag_382:\n        /* \"#utility.yul\":15413:15438   */\n      swap2\n      pop\n        /* \"#utility.yul\":15452:15472   */\n      tag_383\n        /* \"#utility.yul\":15470:15471   */\n      dup4\n        /* \"#utility.yul\":15452:15472   */\n      tag_190\n      jump\t// in\n    tag_383:\n        /* \"#utility.yul\":15447:15472   */\n      swap3\n      pop\n        /* \"#utility.yul\":15496:15497   */\n      dup3\n        /* \"#utility.yul\":15493:15494   */\n      dup3\n        /* \"#utility.yul\":15489:15498   */\n      sub\n        /* \"#utility.yul\":15481:15498   */\n      swap1\n      pop\n        /* \"#utility.yul\":15520:15521   */\n      dup2\n        /* \"#utility.yul\":15514:15518   */\n      dup2\n        /* \"#utility.yul\":15511:15522   */\n      gt\n        /* \"#utility.yul\":15508:15545   */\n      iszero\n      tag_384\n      jumpi\n        /* \"#utility.yul\":15525:15543   */\n      tag_385\n      tag_214\n      jump\t// in\n    tag_385:\n        /* \"#utility.yul\":15508:15545   */\n    tag_384:\n        /* \"#utility.yul\":15358:15552   */\n      swap3\n      swap2\n      pop\n      pop\n      jump\t// out\n        /* \"#utility.yul\":15558:15793   */\n    tag_220:\n        /* \"#utility.yul\":15698:15732   */\n      0x42616c616e63652073686f756c6420626520686967686572207468616e206f72\n        /* \"#utility.yul\":15694:15695   */\n      0x00\n        /* \"#utility.yul\":15686:15692   */\n      dup3\n        /* \"#utility.yul\":15682:15696   */\n      add\n        /* \"#utility.yul\":15675:15733   */\n      mstore\n        /* \"#utility.yul\":15767:15785   */\n      0x20657175616c20746f20616d6f756e7400000000000000000000000000000000\n        /* \"#utility.yul\":15762:15764   */\n      0x20\n        /* \"#utility.yul\":15754:15760   */\n      dup3\n        /* \"#utility.yul\":15750:15765   */\n      add\n        /* \"#utility.yul\":15743:15786   */\n      mstore\n        /* \"#utility.yul\":15558:15793   */\n      pop\n      jump\t// out\n        /* \"#utility.yul\":15799:16165   */\n    tag_221:\n        /* \"#utility.yul\":15941:15944   */\n      0x00\n        /* \"#utility.yul\":15962:16029   */\n      tag_388\n        /* \"#utility.yul\":16026:16028   */\n      0x30\n        /* \"#utility.yul\":16021:16024   */\n      dup4\n        /* \"#utility.yul\":15962:16029   */\n      tag_215\n      jump\t// in\n    tag_388:\n        /* \"#utility.yul\":15955:16029   */\n      swap2\n      pop\n        /* \"#utility.yul\":16038:16131   */\n      tag_389\n        /* \"#utility.yul\":16127:16130   */\n      dup3\n        /* \"#utility.yul\":16038:16131   */\n      tag_220\n      jump\t// in\n    tag_389:\n        /* \"#utility.yul\":16156:16158   */\n      0x40\n        /* \"#utility.yul\":16151:16154   */\n      dup3\n        /* \"#utility.yul\":16147:16159   */\n      add\n        /* \"#utility.yul\":16140:16159   */\n      swap1\n      pop\n        /* \"#utility.yul\":15799:16165   */\n      swap2\n      swap1\n      pop\n      jump\t// out\n        /* \"#utility.yul\":16171:16590   */\n    tag_169:\n        /* \"#utility.yul\":16337:16341   */\n      0x00\n        /* \"#utility.yul\":16375:16377   */\n      0x20\n        /* \"#utility.yul\":16364:16373   */\n      dup3\n        /* \"#utility.yul\":16360:16378   */\n      add\n        /* \"#utility.yul\":16352:16378   */\n      swap1\n      pop\n        /* \"#utility.yul\":16424:16433   */\n      dup2\n        /* \"#utility.yul\":16418:16422   */\n      dup2\n        /* \"#utility.yul\":16414:16434   */\n      sub\n        /* \"#utility.yul\":16410:16411   */\n      0x00\n        /* \"#utility.yul\":16399:16408   */\n      dup4\n        /* \"#utility.yul\":16395:16412   */\n      add\n        /* \"#utility.yul\":16388:16435   */\n      mstore\n        /* \"#utility.yul\":16452:16583   */\n      tag_391\n        /* \"#utility.yul\":16578:16582   */\n      dup2\n        /* \"#utility.yul\":16452:16583   */\n      tag_221\n      jump\t// in\n    tag_391:\n        /* \"#utility.yul\":16444:16583   */\n      swap1\n      pop\n        /* \"#utility.yul\":16171:16590   */\n      swap2\n      swap1\n      pop\n      jump\t// out\n\n    auxdata: 0xa2646970667358221220039e06d42e9486c19227c345cd53381421206ac097ab4ad028906bb68e9ab11064736f6c63430008120033\n}\n",
				"bytecode": {
					"linkReferences": {},
					"object": "608060405234801561001057600080fd5b506118c4806100206000396000f3fe6080604052600436106100c25760003560e01c8063343d4ef21161007f578063783f87c711610059578063783f87c714610223578063a26e118614610261578063dc048cf21461027d578063e4745970146102a6576100c2565b8063343d4ef2146101b55780633bfd7fd3146101e15780636a1d23ed146101f8576100c2565b806305749175146100c757806305d01f50146100de57806311b425371461011b5780631432c9dd1461014757806316b78191146101735780631a6a95941461018a575b600080fd5b3480156100d357600080fd5b506100dc6102cf565b005b3480156100ea57600080fd5b5061010560048036038101906101009190611168565b6103ad565b60405161011291906111dd565b60405180910390f35b34801561012757600080fd5b506101306103e8565b60405161013e929190611374565b60405180910390f35b34801561015357600080fd5b5061015c610431565b60405161016a929190611374565b60405180910390f35b34801561017f57600080fd5b5061018861047a565b005b34801561019657600080fd5b5061019f610558565b6040516101ac91906111dd565b60405180910390f35b3480156101c157600080fd5b506101ca6105f0565b6040516101d8929190611374565b60405180910390f35b3480156101ed57600080fd5b506101f6610639565b005b34801561020457600080fd5b5061020d610717565b60405161021a91906113ba565b60405180910390f35b34801561022f57600080fd5b5061024a600480360381019061024591906113d5565b610741565b604051610258929190611374565b60405180910390f35b61027b600480360381019061027691906113d5565b610a42565b005b34801561028957600080fd5b506102a4600480360381019061029f919061144a565b610b75565b005b3480156102b257600080fd5b506102cd60048036038101906102c891906114a6565b610d8e565b005b600160009054906101000a900473ffffffffffffffffffffffffffffffffffffffff1673ffffffffffffffffffffffffffffffffffffffff163373ffffffffffffffffffffffffffffffffffffffff161461032957600080fd5b600260009054906101000a900473ffffffffffffffffffffffffffffffffffffffff1673ffffffffffffffffffffffffffffffffffffffff1663d826f88f6040518163ffffffff1660e01b8152600401600060405180830381600087803b15801561039357600080fd5b505af11580156103a7573d6000803e3d6000fd5b50505050565b600060205281600052604060002081805160208101820180518482526020830160208501208183528095505050505050600091509150505481565b6060806104296040518060400160405280600381526020017f4555520000000000000000000000000000000000000000000000000000000000815250610741565b915091509091565b6060806104726040518060400160405280600381526020017f5553440000000000000000000000000000000000000000000000000000000000815250610741565b915091509091565b600160009054906101000a900473ffffffffffffffffffffffffffffffffffffffff1673ffffffffffffffffffffffffffffffffffffffff163373ffffffffffffffffffffffffffffffffffffffff16146104d457600080fd5b600260009054906101000a900473ffffffffffffffffffffffffffffffffffffffff1673ffffffffffffffffffffffffffffffffffffffff16632baeceb76040518163ffffffff1660e01b8152600401600060405180830381600087803b15801561053e57600080fd5b505af1158015610552573d6000803e3d6000fd5b50505050565b6000600260009054906101000a900473ffffffffffffffffffffffffffffffffffffffff1673ffffffffffffffffffffffffffffffffffffffff16639fa6a6e36040518163ffffffff1660e01b8152600401602060405180830381865afa1580156105c7573d6000803e3d6000fd5b505050506040513d601f19601f820116820180604052508101906105eb919061152a565b905090565b6060806106316040518060400160405280600381526020017f5354520000000000000000000000000000000000000000000000000000000000815250610741565b915091509091565b600160009054906101000a900473ffffffffffffffffffffffffffffffffffffffff1673ffffffffffffffffffffffffffffffffffffffff163373ffffffffffffffffffffffffffffffffffffffff161461069357600080fd5b600260009054906101000a900473ffffffffffffffffffffffffffffffffffffffff1673ffffffffffffffffffffffffffffffffffffffff1663d09de08a6040518163ffffffff1660e01b8152600401600060405180830381600087803b1580156106fd57600080fd5b505af1158015610711573d6000803e3d6000fd5b50505050565b6000600160009054906101000a900473ffffffffffffffffffffffffffffffffffffffff16905090565b6060806060806000805b83518110156107f357600080600086848151811061076c5761076b611557565b5b602002602001015173ffffffffffffffffffffffffffffffffffffffff1673ffffffffffffffffffffffffffffffffffffffff168152602001908152602001600020886040516107bc91906115f7565b90815260200160405180910390205411156107e05781806107dc9061163d565b9250505b80806107eb9061163d565b91505061074b565b508067ffffffffffffffff81111561080e5761080d61103d565b5b60405190808252806020026020018201604052801561083c5781602001602082028036833780820191505090505b5092508067ffffffffffffffff8111156108595761085861103d565b5b6040519080825280602002602001820160405280156108875781602001602082028036833780820191505090505b5091506000805b8451811015610a325760008060008784815181106108af576108ae611557565b5b602002602001015173ffffffffffffffffffffffffffffffffffffffff1673ffffffffffffffffffffffffffffffffffffffff168152602001908152602001600020896040516108ff91906115f7565b9081526020016040518091039020541115610a1f5784818151811061092757610926611557565b5b602002602001015185838151811061094257610941611557565b5b602002602001019073ffffffffffffffffffffffffffffffffffffffff16908173ffffffffffffffffffffffffffffffffffffffff168152505060008086838151811061099257610991611557565b5b602002602001015173ffffffffffffffffffffffffffffffffffffffff1673ffffffffffffffffffffffffffffffffffffffff168152602001908152602001600020886040516109e291906115f7565b908152602001604051809103902054848381518110610a0457610a03611557565b5b6020026020010181815250508180610a1b9061163d565b9250505b8080610a2a9061163d565b91505061088e565b5083839550955050505050915091565b600160009054906101000a900473ffffffffffffffffffffffffffffffffffffffff1673ffffffffffffffffffffffffffffffffffffffff163373ffffffffffffffffffffffffffffffffffffffff1614610a9c57600080fd5b60003411610adf576040517f08c379a0000000000000000000000000000000000000000000000000000000008152600401610ad6906116e2565b60405180910390fd5b34600080600160009054906101000a900473ffffffffffffffffffffffffffffffffffffffff1673ffffffffffffffffffffffffffffffffffffffff1673ffffffffffffffffffffffffffffffffffffffff16815260200190815260200160002082604051610b4e91906115f7565b90815260200160405180910390206000828254610b6b9190611702565b9250508190555050565b600160009054906101000a900473ffffffffffffffffffffffffffffffffffffffff1673ffffffffffffffffffffffffffffffffffffffff163373ffffffffffffffffffffffffffffffffffffffff1614610bcf57600080fd5b81600080600160009054906101000a900473ffffffffffffffffffffffffffffffffffffffff1673ffffffffffffffffffffffffffffffffffffffff1673ffffffffffffffffffffffffffffffffffffffff16815260200190815260200160002082604051610c3e91906115f7565b9081526020016040518091039020541015610c8e576040517f08c379a0000000000000000000000000000000000000000000000000000000008152600401610c85906117a8565b60405180910390fd5b81600080600160009054906101000a900473ffffffffffffffffffffffffffffffffffffffff1673ffffffffffffffffffffffffffffffffffffffff1673ffffffffffffffffffffffffffffffffffffffff16815260200190815260200160002082604051610cfd91906115f7565b90815260200160405180910390206000828254610d1a91906117c8565b92505081905550600160009054906101000a900473ffffffffffffffffffffffffffffffffffffffff1673ffffffffffffffffffffffffffffffffffffffff166108fc839081150290604051600060405180830381858888f19350505050158015610d89573d6000803e3d6000fd5b505050565b600160009054906101000a900473ffffffffffffffffffffffffffffffffffffffff1673ffffffffffffffffffffffffffffffffffffffff163373ffffffffffffffffffffffffffffffffffffffff1614610de857600080fd5b82600080600160009054906101000a900473ffffffffffffffffffffffffffffffffffffffff1673ffffffffffffffffffffffffffffffffffffffff1673ffffffffffffffffffffffffffffffffffffffff16815260200190815260200160002082604051610e5791906115f7565b9081526020016040518091039020541015610ea7576040517f08c379a0000000000000000000000000000000000000000000000000000000008152600401610e9e9061186e565b60405180910390fd5b82600080600160009054906101000a900473ffffffffffffffffffffffffffffffffffffffff1673ffffffffffffffffffffffffffffffffffffffff1673ffffffffffffffffffffffffffffffffffffffff16815260200190815260200160002082604051610f1691906115f7565b90815260200160405180910390206000828254610f3391906117c8565b92505081905550826000808473ffffffffffffffffffffffffffffffffffffffff1673ffffffffffffffffffffffffffffffffffffffff16815260200190815260200160002082604051610f8791906115f7565b90815260200160405180910390206000828254610fa49190611702565b92505081905550505050565b6000604051905090565b600080fd5b600080fd5b600073ffffffffffffffffffffffffffffffffffffffff82169050919050565b6000610fef82610fc4565b9050919050565b610fff81610fe4565b811461100a57600080fd5b50565b60008135905061101c81610ff6565b92915050565b600080fd5b600080fd5b6000601f19601f8301169050919050565b7f4e487b7100000000000000000000000000000000000000000000000000000000600052604160045260246000fd5b6110758261102c565b810181811067ffffffffffffffff821117156110945761109361103d565b5b80604052505050565b60006110a7610fb0565b90506110b3828261106c565b919050565b600067ffffffffffffffff8211156110d3576110d261103d565b5b6110dc8261102c565b9050602081019050919050565b82818337600083830152505050565b600061110b611106846110b8565b61109d565b90508281526020810184848401111561112757611126611027565b5b6111328482856110e9565b509392505050565b600082601f83011261114f5761114e611022565b5b813561115f8482602086016110f8565b91505092915050565b6000806040838503121561117f5761117e610fba565b5b600061118d8582860161100d565b925050602083013567ffffffffffffffff8111156111ae576111ad610fbf565b5b6111ba8582860161113a565b9150509250929050565b6000819050919050565b6111d7816111c4565b82525050565b60006020820190506111f260008301846111ce565b92915050565b600081519050919050565b600082825260208201905092915050565b6000819050602082019050919050565b61122d81610fe4565b82525050565b600061123f8383611224565b60208301905092915050565b6000602082019050919050565b6000611263826111f8565b61126d8185611203565b935061127883611214565b8060005b838110156112a95781516112908882611233565b975061129b8361124b565b92505060018101905061127c565b5085935050505092915050565b600081519050919050565b600082825260208201905092915050565b6000819050602082019050919050565b6112eb816111c4565b82525050565b60006112fd83836112e2565b60208301905092915050565b6000602082019050919050565b6000611321826112b6565b61132b81856112c1565b9350611336836112d2565b8060005b8381101561136757815161134e88826112f1565b975061135983611309565b92505060018101905061133a565b5085935050505092915050565b6000604082019050818103600083015261138e8185611258565b905081810360208301526113a28184611316565b90509392505050565b6113b481610fe4565b82525050565b60006020820190506113cf60008301846113ab565b92915050565b6000602082840312156113eb576113ea610fba565b5b600082013567ffffffffffffffff81111561140957611408610fbf565b5b6114158482850161113a565b91505092915050565b611427816111c4565b811461143257600080fd5b50565b6000813590506114448161141e565b92915050565b6000806040838503121561146157611460610fba565b5b600061146f85828601611435565b925050602083013567ffffffffffffffff8111156114905761148f610fbf565b5b61149c8582860161113a565b9150509250929050565b6000806000606084860312156114bf576114be610fba565b5b60006114cd86828701611435565b93505060206114de8682870161100d565b925050604084013567ffffffffffffffff8111156114ff576114fe610fbf565b5b61150b8682870161113a565b9150509250925092565b6000815190506115248161141e565b92915050565b6000602082840312156115405761153f610fba565b5b600061154e84828501611515565b91505092915050565b7f4e487b7100000000000000000000000000000000000000000000000000000000600052603260045260246000fd5b600081519050919050565b600081905092915050565b60005b838110156115ba57808201518184015260208101905061159f565b60008484015250505050565b60006115d182611586565b6115db8185611591565b93506115eb81856020860161159c565b80840191505092915050565b600061160382846115c6565b915081905092915050565b7f4e487b7100000000000000000000000000000000000000000000000000000000600052601160045260246000fd5b6000611648826111c4565b91507fffffffffffffffffffffffffffffffffffffffffffffffffffffffffffffffff820361167a5761167961160e565b5b600182019050919050565b600082825260208201905092915050565b7f56616c7565206d75737420626520686967686572207468616e207a65726f0000600082015250565b60006116cc601e83611685565b91506116d782611696565b602082019050919050565b600060208201905081810360008301526116fb816116bf565b9050919050565b600061170d826111c4565b9150611718836111c4565b92508282019050808211156117305761172f61160e565b5b92915050565b7f42616c616e63652073686f756c6420626520686967686572207468616e20746860008201527f6520616d6f756e74000000000000000000000000000000000000000000000000602082015250565b6000611792602883611685565b915061179d82611736565b604082019050919050565b600060208201905081810360008301526117c181611785565b9050919050565b60006117d3826111c4565b91506117de836111c4565b92508282039050818111156117f6576117f561160e565b5b92915050565b7f42616c616e63652073686f756c6420626520686967686572207468616e206f7260008201527f20657175616c20746f20616d6f756e7400000000000000000000000000000000602082015250565b6000611858603083611685565b9150611863826117fc565b604082019050919050565b600060208201905081810360008301526118878161184b565b905091905056fea2646970667358221220039e06d42e9486c19227c345cd53381421206ac097ab4ad028906bb68e9ab11064736f6c63430008120033",
					"opcodes": "PUSH1 0x80 PUSH1 0x40 MSTORE CALLVALUE DUP1 ISZERO PUSH2 0x10 JUMPI PUSH1 0x0 DUP1 REVERT JUMPDEST POP PUSH2 0x18C4 DUP1 PUSH2 0x20 PUSH1 0x0 CODECOPY PUSH1 0x0 RETURN INVALID PUSH1 0x80 PUSH1 0x40 MSTORE PUSH1 0x4 CALLDATASIZE LT PUSH2 0xC2 JUMPI PUSH1 0x0 CALLDATALOAD PUSH1 0xE0 SHR DUP1 PUSH4 0x343D4EF2 GT PUSH2 0x7F JUMPI DUP1 PUSH4 0x783F87C7 GT PUSH2 0x59 JUMPI DUP1 PUSH4 0x783F87C7 EQ PUSH2 0x223 JUMPI DUP1 PUSH4 0xA26E1186 EQ PUSH2 0x261 JUMPI DUP1 PUSH4 0xDC048CF2 EQ PUSH2 0x27D JUMPI DUP1 PUSH4 0xE4745970 EQ PUSH2 0x2A6 JUMPI PUSH2 0xC2 JUMP JUMPDEST DUP1 PUSH4 0x343D4EF2 EQ PUSH2 0x1B5 JUMPI DUP1 PUSH4 0x3BFD7FD3 EQ PUSH2 0x1E1 JUMPI DUP1 PUSH4 0x6A1D23ED EQ PUSH2 0x1F8 JUMPI PUSH2 0xC2 JUMP JUMPDEST DUP1 PUSH4 0x5749175 EQ PUSH2 0xC7 JUMPI DUP1 PUSH4 0x5D01F50 EQ PUSH2 0xDE JUMPI DUP1 PUSH4 0x11B42537 EQ PUSH2 0x11B JUMPI DUP1 PUSH4 0x1432C9DD EQ PUSH2 0x147 JUMPI DUP1 PUSH4 0x16B78191 EQ PUSH2 0x173 JUMPI DUP1 PUSH4 0x1A6A9594 EQ PUSH2 0x18A JUMPI JUMPDEST PUSH1 0x0 DUP1 REVERT JUMPDEST CALLVALUE DUP1 ISZERO PUSH2 0xD3 JUMPI PUSH1 0x0 DUP1 REVERT JUMPDEST POP PUSH2 0xDC PUSH2 0x2CF JUMP JUMPDEST STOP JUMPDEST CALLVALUE DUP1 ISZERO PUSH2 0xEA JUMPI PUSH1 0x0 DUP1 REVERT JUMPDEST POP PUSH2 0x105 PUSH1 0x4 DUP1 CALLDATASIZE SUB DUP2 ADD SWAP1 PUSH2 0x100 SWAP2 SWAP1 PUSH2 0x1168 JUMP JUMPDEST PUSH2 0x3AD JUMP JUMPDEST PUSH1 0x40 MLOAD PUSH2 0x112 SWAP2 SWAP1 PUSH2 0x11DD JUMP JUMPDEST PUSH1 0x40 MLOAD DUP1 SWAP2 SUB SWAP1 RETURN JUMPDEST CALLVALUE DUP1 ISZERO PUSH2 0x127 JUMPI PUSH1 0x0 DUP1 REVERT JUMPDEST POP PUSH2 0x130 PUSH2 0x3E8 JUMP JUMPDEST PUSH1 0x40 MLOAD PUSH2 0x13E SWAP3 SWAP2 SWAP1 PUSH2 0x1374 JUMP JUMPDEST PUSH1 0x40 MLOAD DUP1 SWAP2 SUB SWAP1 RETURN JUMPDEST CALLVALUE DUP1 ISZERO PUSH2 0x153 JUMPI PUSH1 0x0 DUP1 REVERT JUMPDEST POP PUSH2 0x15C PUSH2 0x431 JUMP JUMPDEST PUSH1 0x40 MLOAD PUSH2 0x16A SWAP3 SWAP2 SWAP1 PUSH2 0x1374 JUMP JUMPDEST PUSH1 0x40 MLOAD DUP1 SWAP2 SUB SWAP1 RETURN JUMPDEST CALLVALUE DUP1 ISZERO PUSH2 0x17F JUMPI PUSH1 0x0 DUP1 REVERT JUMPDEST POP PUSH2 0x188 PUSH2 0x47A JUMP JUMPDEST STOP JUMPDEST CALLVALUE DUP1 ISZERO PUSH2 0x196 JUMPI PUSH1 0x0 DUP1 REVERT JUMPDEST POP PUSH2 0x19F PUSH2 0x558 JUMP JUMPDEST PUSH1 0x40 MLOAD PUSH2 0x1AC SWAP2 SWAP1 PUSH2 0x11DD JUMP JUMPDEST PUSH1 0x40 MLOAD DUP1 SWAP2 SUB SWAP1 RETURN JUMPDEST CALLVALUE DUP1 ISZERO PUSH2 0x1C1 JUMPI PUSH1 0x0 DUP1 REVERT JUMPDEST POP PUSH2 0x1CA PUSH2 0x5F0 JUMP JUMPDEST PUSH1 0x40 MLOAD PUSH2 0x1D8 SWAP3 SWAP2 SWAP1 PUSH2 0x1374 JUMP JUMPDEST PUSH1 0x40 MLOAD DUP1 SWAP2 SUB SWAP1 RETURN JUMPDEST CALLVALUE DUP1 ISZERO PUSH2 0x1ED JUMPI PUSH1 0x0 DUP1 REVERT JUMPDEST POP PUSH2 0x1F6 PUSH2 0x639 JUMP JUMPDEST STOP JUMPDEST CALLVALUE DUP1 ISZERO PUSH2 0x204 JUMPI PUSH1 0x0 DUP1 REVERT JUMPDEST POP PUSH2 0x20D PUSH2 0x717 JUMP JUMPDEST PUSH1 0x40 MLOAD PUSH2 0x21A SWAP2 SWAP1 PUSH2 0x13BA JUMP JUMPDEST PUSH1 0x40 MLOAD DUP1 SWAP2 SUB SWAP1 RETURN JUMPDEST CALLVALUE DUP1 ISZERO PUSH2 0x22F JUMPI PUSH1 0x0 DUP1 REVERT JUMPDEST POP PUSH2 0x24A PUSH1 0x4 DUP1 CALLDATASIZE SUB DUP2 ADD SWAP1 PUSH2 0x245 SWAP2 SWAP1 PUSH2 0x13D5 JUMP JUMPDEST PUSH2 0x741 JUMP JUMPDEST PUSH1 0x40 MLOAD PUSH2 0x258 SWAP3 SWAP2 SWAP1 PUSH2 0x1374 JUMP JUMPDEST PUSH1 0x40 MLOAD DUP1 SWAP2 SUB SWAP1 RETURN JUMPDEST PUSH2 0x27B PUSH1 0x4 DUP1 CALLDATASIZE SUB DUP2 ADD SWAP1 PUSH2 0x276 SWAP2 SWAP1 PUSH2 0x13D5 JUMP JUMPDEST PUSH2 0xA42 JUMP JUMPDEST STOP JUMPDEST CALLVALUE DUP1 ISZERO PUSH2 0x289 JUMPI PUSH1 0x0 DUP1 REVERT JUMPDEST POP PUSH2 0x2A4 PUSH1 0x4 DUP1 CALLDATASIZE SUB DUP2 ADD SWAP1 PUSH2 0x29F SWAP2 SWAP1 PUSH2 0x144A JUMP JUMPDEST PUSH2 0xB75 JUMP JUMPDEST STOP JUMPDEST CALLVALUE DUP1 ISZERO PUSH2 0x2B2 JUMPI PUSH1 0x0 DUP1 REVERT JUMPDEST POP PUSH2 0x2CD PUSH1 0x4 DUP1 CALLDATASIZE SUB DUP2 ADD SWAP1 PUSH2 0x2C8 SWAP2 SWAP1 PUSH2 0x14A6 JUMP JUMPDEST PUSH2 0xD8E JUMP JUMPDEST STOP JUMPDEST PUSH1 0x1 PUSH1 0x0 SWAP1 SLOAD SWAP1 PUSH2 0x100 EXP SWAP1 DIV PUSH20 0xFFFFFFFFFFFFFFFFFFFFFFFFFFFFFFFFFFFFFFFF AND PUSH20 0xFFFFFFFFFFFFFFFFFFFFFFFFFFFFFFFFFFFFFFFF AND CALLER PUSH20 0xFFFFFFFFFFFFFFFFFFFFFFFFFFFFFFFFFFFFFFFF AND EQ PUSH2 0x329 JUMPI PUSH1 0x0 DUP1 REVERT JUMPDEST PUSH1 0x2 PUSH1 0x0 SWAP1 SLOAD SWAP1 PUSH2 0x100 EXP SWAP1 DIV PUSH20 0xFFFFFFFFFFFFFFFFFFFFFFFFFFFFFFFFFFFFFFFF AND PUSH20 0xFFFFFFFFFFFFFFFFFFFFFFFFFFFFFFFFFFFFFFFF AND PUSH4 0xD826F88F PUSH1 0x40 MLOAD DUP2 PUSH4 0xFFFFFFFF AND PUSH1 0xE0 SHL DUP2 MSTORE PUSH1 0x4 ADD PUSH1 0x0 PUSH1 0x40 MLOAD DUP1 DUP4 SUB DUP2 PUSH1 0x0 DUP8 DUP1 EXTCODESIZE ISZERO DUP1 ISZERO PUSH2 0x393 JUMPI PUSH1 0x0 DUP1 REVERT JUMPDEST POP GAS CALL ISZERO DUP1 ISZERO PUSH2 0x3A7 JUMPI RETURNDATASIZE PUSH1 0x0 DUP1 RETURNDATACOPY RETURNDATASIZE PUSH1 0x0 REVERT JUMPDEST POP POP POP POP JUMP JUMPDEST PUSH1 0x0 PUSH1 0x20 MSTORE DUP2 PUSH1 0x0 MSTORE PUSH1 0x40 PUSH1 0x0 KECCAK256 DUP2 DUP1 MLOAD PUSH1 0x20 DUP2 ADD DUP3 ADD DUP1 MLOAD DUP5 DUP3 MSTORE PUSH1 0x20 DUP4 ADD PUSH1 0x20 DUP6 ADD KECCAK256 DUP2 DUP4 MSTORE DUP1 SWAP6 POP POP POP POP POP POP PUSH1 0x0 SWAP2 POP SWAP2 POP POP SLOAD DUP2 JUMP JUMPDEST PUSH1 0x60 DUP1 PUSH2 0x429 PUSH1 0x40 MLOAD DUP1 PUSH1 0x40 ADD PUSH1 0x40 MSTORE DUP1 PUSH1 0x3 DUP2 MSTORE PUSH1 0x20 ADD PUSH32 0x4555520000000000000000000000000000000000000000000000000000000000 DUP2 MSTORE POP PUSH2 0x741 JUMP JUMPDEST SWAP2 POP SWAP2 POP SWAP1 SWAP2 JUMP JUMPDEST PUSH1 0x60 DUP1 PUSH2 0x472 PUSH1 0x40 MLOAD DUP1 PUSH1 0x40 ADD PUSH1 0x40 MSTORE DUP1 PUSH1 0x3 DUP2 MSTORE PUSH1 0x20 ADD PUSH32 0x5553440000000000000000000000000000000000000000000000000000000000 DUP2 MSTORE POP PUSH2 0x741 JUMP JUMPDEST SWAP2 POP SWAP2 POP SWAP1 SWAP2 JUMP JUMPDEST PUSH1 0x1 PUSH1 0x0 SWAP1 SLOAD SWAP1 PUSH2 0x100 EXP SWAP1 DIV PUSH20 0xFFFFFFFFFFFFFFFFFFFFFFFFFFFFFFFFFFFFFFFF AND PUSH20 0xFFFFFFFFFFFFFFFFFFFFFFFFFFFFFFFFFFFFFFFF AND CALLER PUSH20 0xFFFFFFFFFFFFFFFFFFFFFFFFFFFFFFFFFFFFFFFF AND EQ PUSH2 0x4D4 JUMPI PUSH1 0x0 DUP1 REVERT JUMPDEST PUSH1 0x2 PUSH1 0x0 SWAP1 SLOAD SWAP1 PUSH2 0x100 EXP SWAP1 DIV PUSH20 0xFFFFFFFFFFFFFFFFFFFFFFFFFFFFFFFFFFFFFFFF AND PUSH20 0xFFFFFFFFFFFFFFFFFFFFFFFFFFFFFFFFFFFFFFFF AND PUSH4 0x2BAECEB7 PUSH1 0x40 MLOAD DUP2 PUSH4 0xFFFFFFFF AND PUSH1 0xE0 SHL DUP2 MSTORE PUSH1 0x4 ADD PUSH1 0x0 PUSH1 0x40 MLOAD DUP1 DUP4 SUB DUP2 PUSH1 0x0 DUP8 DUP1 EXTCODESIZE ISZERO DUP1 ISZERO PUSH2 0x53E JUMPI PUSH1 0x0 DUP1 REVERT JUMPDEST POP GAS CALL ISZERO DUP1 ISZERO PUSH2 0x552 JUMPI RETURNDATASIZE PUSH1 0x0 DUP1 RETURNDATACOPY RETURNDATASIZE PUSH1 0x0 REVERT JUMPDEST POP POP POP POP JUMP JUMPDEST PUSH1 0x0 PUSH1 0x2 PUSH1 0x0 SWAP1 SLOAD SWAP1 PUSH2 0x100 EXP SWAP1 DIV PUSH20 0xFFFFFFFFFFFFFFFFFFFFFFFFFFFFFFFFFFFFFFFF AND PUSH20 0xFFFFFFFFFFFFFFFFFFFFFFFFFFFFFFFFFFFFFFFF AND PUSH4 0x9FA6A6E3 PUSH1 0x40 MLOAD DUP2 PUSH4 0xFFFFFFFF AND PUSH1 0xE0 SHL DUP2 MSTORE PUSH1 0x4 ADD PUSH1 0x20 PUSH1 0x40 MLOAD DUP1 DUP4 SUB DUP2 DUP7 GAS STATICCALL ISZERO DUP1 ISZERO PUSH2 0x5C7 JUMPI RETURNDATASIZE PUSH1 0x0 DUP1 RETURNDATACOPY RETURNDATASIZE PUSH1 0x0 REVERT JUMPDEST POP POP POP POP PUSH1 0x40 MLOAD RETURNDATASIZE PUSH1 0x1F NOT PUSH1 0x1F DUP3 ADD AND DUP3 ADD DUP1 PUSH1 0x40 MSTORE POP DUP2 ADD SWAP1 PUSH2 0x5EB SWAP2 SWAP1 PUSH2 0x152A JUMP JUMPDEST SWAP1 POP SWAP1 JUMP JUMPDEST PUSH1 0x60 DUP1 PUSH2 0x631 PUSH1 0x40 MLOAD DUP1 PUSH1 0x40 ADD PUSH1 0x40 MSTORE DUP1 PUSH1 0x3 DUP2 MSTORE PUSH1 0x20 ADD PUSH32 0x5354520000000000000000000000000000000000000000000000000000000000 DUP2 MSTORE POP PUSH2 0x741 JUMP JUMPDEST SWAP2 POP SWAP2 POP SWAP1 SWAP2 JUMP JUMPDEST PUSH1 0x1 PUSH1 0x0 SWAP1 SLOAD SWAP1 PUSH2 0x100 EXP SWAP1 DIV PUSH20 0xFFFFFFFFFFFFFFFFFFFFFFFFFFFFFFFFFFFFFFFF AND PUSH20 0xFFFFFFFFFFFFFFFFFFFFFFFFFFFFFFFFFFFFFFFF AND CALLER PUSH20 0xFFFFFFFFFFFFFFFFFFFFFFFFFFFFFFFFFFFFFFFF AND EQ PUSH2 0x693 JUMPI PUSH1 0x0 DUP1 REVERT JUMPDEST PUSH1 0x2 PUSH1 0x0 SWAP1 SLOAD SWAP1 PUSH2 0x100 EXP SWAP1 DIV PUSH20 0xFFFFFFFFFFFFFFFFFFFFFFFFFFFFFFFFFFFFFFFF AND PUSH20 0xFFFFFFFFFFFFFFFFFFFFFFFFFFFFFFFFFFFFFFFF AND PUSH4 0xD09DE08A PUSH1 0x40 MLOAD DUP2 PUSH4 0xFFFFFFFF AND PUSH1 0xE0 SHL DUP2 MSTORE PUSH1 0x4 ADD PUSH1 0x0 PUSH1 0x40 MLOAD DUP1 DUP4 SUB DUP2 PUSH1 0x0 DUP8 DUP1 EXTCODESIZE ISZERO DUP1 ISZERO PUSH2 0x6FD JUMPI PUSH1 0x0 DUP1 REVERT JUMPDEST POP GAS CALL ISZERO DUP1 ISZERO PUSH2 0x711 JUMPI RETURNDATASIZE PUSH1 0x0 DUP1 RETURNDATACOPY RETURNDATASIZE PUSH1 0x0 REVERT JUMPDEST POP POP POP POP JUMP JUMPDEST PUSH1 0x0 PUSH1 0x1 PUSH1 0x0 SWAP1 SLOAD SWAP1 PUSH2 0x100 EXP SWAP1 DIV PUSH20 0xFFFFFFFFFFFFFFFFFFFFFFFFFFFFFFFFFFFFFFFF AND SWAP1 POP SWAP1 JUMP JUMPDEST PUSH1 0x60 DUP1 PUSH1 0x60 DUP1 PUSH1 0x0 DUP1 JUMPDEST DUP4 MLOAD DUP2 LT ISZERO PUSH2 0x7F3 JUMPI PUSH1 0x0 DUP1 PUSH1 0x0 DUP7 DUP5 DUP2 MLOAD DUP2 LT PUSH2 0x76C JUMPI PUSH2 0x76B PUSH2 0x1557 JUMP JUMPDEST JUMPDEST PUSH1 0x20 MUL PUSH1 0x20 ADD ADD MLOAD PUSH20 0xFFFFFFFFFFFFFFFFFFFFFFFFFFFFFFFFFFFFFFFF AND PUSH20 0xFFFFFFFFFFFFFFFFFFFFFFFFFFFFFFFFFFFFFFFF AND DUP2 MSTORE PUSH1 0x20 ADD SWAP1 DUP2 MSTORE PUSH1 0x20 ADD PUSH1 0x0 KECCAK256 DUP9 PUSH1 0x40 MLOAD PUSH2 0x7BC SWAP2 SWAP1 PUSH2 0x15F7 JUMP JUMPDEST SWAP1 DUP2 MSTORE PUSH1 0x20 ADD PUSH1 0x40 MLOAD DUP1 SWAP2 SUB SWAP1 KECCAK256 SLOAD GT ISZERO PUSH2 0x7E0 JUMPI DUP2 DUP1 PUSH2 0x7DC SWAP1 PUSH2 0x163D JUMP JUMPDEST SWAP3 POP POP JUMPDEST DUP1 DUP1 PUSH2 0x7EB SWAP1 PUSH2 0x163D JUMP JUMPDEST SWAP2 POP POP PUSH2 0x74B JUMP JUMPDEST POP DUP1 PUSH8 0xFFFFFFFFFFFFFFFF DUP2 GT ISZERO PUSH2 0x80E JUMPI PUSH2 0x80D PUSH2 0x103D JUMP JUMPDEST JUMPDEST PUSH1 0x40 MLOAD SWAP1 DUP1 DUP3 MSTORE DUP1 PUSH1 0x20 MUL PUSH1 0x20 ADD DUP3 ADD PUSH1 0x40 MSTORE DUP1 ISZERO PUSH2 0x83C JUMPI DUP2 PUSH1 0x20 ADD PUSH1 0x20 DUP3 MUL DUP1 CALLDATASIZE DUP4 CALLDATACOPY DUP1 DUP3 ADD SWAP2 POP POP SWAP1 POP JUMPDEST POP SWAP3 POP DUP1 PUSH8 0xFFFFFFFFFFFFFFFF DUP2 GT ISZERO PUSH2 0x859 JUMPI PUSH2 0x858 PUSH2 0x103D JUMP JUMPDEST JUMPDEST PUSH1 0x40 MLOAD SWAP1 DUP1 DUP3 MSTORE DUP1 PUSH1 0x20 MUL PUSH1 0x20 ADD DUP3 ADD PUSH1 0x40 MSTORE DUP1 ISZERO PUSH2 0x887 JUMPI DUP2 PUSH1 0x20 ADD PUSH1 0x20 DUP3 MUL DUP1 CALLDATASIZE DUP4 CALLDATACOPY DUP1 DUP3 ADD SWAP2 POP POP SWAP1 POP JUMPDEST POP SWAP2 POP PUSH1 0x0 DUP1 JUMPDEST DUP5 MLOAD DUP2 LT ISZERO PUSH2 0xA32 JUMPI PUSH1 0x0 DUP1 PUSH1 0x0 DUP8 DUP5 DUP2 MLOAD DUP2 LT PUSH2 0x8AF JUMPI PUSH2 0x8AE PUSH2 0x1557 JUMP JUMPDEST JUMPDEST PUSH1 0x20 MUL PUSH1 0x20 ADD ADD MLOAD PUSH20 0xFFFFFFFFFFFFFFFFFFFFFFFFFFFFFFFFFFFFFFFF AND PUSH20 0xFFFFFFFFFFFFFFFFFFFFFFFFFFFFFFFFFFFFFFFF AND DUP2 MSTORE PUSH1 0x20 ADD SWAP1 DUP2 MSTORE PUSH1 0x20 ADD PUSH1 0x0 KECCAK256 DUP10 PUSH1 0x40 MLOAD PUSH2 0x8FF SWAP2 SWAP1 PUSH2 0x15F7 JUMP JUMPDEST SWAP1 DUP2 MSTORE PUSH1 0x20 ADD PUSH1 0x40 MLOAD DUP1 SWAP2 SUB SWAP1 KECCAK256 SLOAD GT ISZERO PUSH2 0xA1F JUMPI DUP5 DUP2 DUP2 MLOAD DUP2 LT PUSH2 0x927 JUMPI PUSH2 0x926 PUSH2 0x1557 JUMP JUMPDEST JUMPDEST PUSH1 0x20 MUL PUSH1 0x20 ADD ADD MLOAD DUP6 DUP4 DUP2 MLOAD DUP2 LT PUSH2 0x942 JUMPI PUSH2 0x941 PUSH2 0x1557 JUMP JUMPDEST JUMPDEST PUSH1 0x20 MUL PUSH1 0x20 ADD ADD SWAP1 PUSH20 0xFFFFFFFFFFFFFFFFFFFFFFFFFFFFFFFFFFFFFFFF AND SWAP1 DUP2 PUSH20 0xFFFFFFFFFFFFFFFFFFFFFFFFFFFFFFFFFFFFFFFF AND DUP2 MSTORE POP POP PUSH1 0x0 DUP1 DUP7 DUP4 DUP2 MLOAD DUP2 LT PUSH2 0x992 JUMPI PUSH2 0x991 PUSH2 0x1557 JUMP JUMPDEST JUMPDEST PUSH1 0x20 MUL PUSH1 0x20 ADD ADD MLOAD PUSH20 0xFFFFFFFFFFFFFFFFFFFFFFFFFFFFFFFFFFFFFFFF AND PUSH20 0xFFFFFFFFFFFFFFFFFFFFFFFFFFFFFFFFFFFFFFFF AND DUP2 MSTORE PUSH1 0x20 ADD SWAP1 DUP2 MSTORE PUSH1 0x20 ADD PUSH1 0x0 KECCAK256 DUP9 PUSH1 0x40 MLOAD PUSH2 0x9E2 SWAP2 SWAP1 PUSH2 0x15F7 JUMP JUMPDEST SWAP1 DUP2 MSTORE PUSH1 0x20 ADD PUSH1 0x40 MLOAD DUP1 SWAP2 SUB SWAP1 KECCAK256 SLOAD DUP5 DUP4 DUP2 MLOAD DUP2 LT PUSH2 0xA04 JUMPI PUSH2 0xA03 PUSH2 0x1557 JUMP JUMPDEST JUMPDEST PUSH1 0x20 MUL PUSH1 0x20 ADD ADD DUP2 DUP2 MSTORE POP POP DUP2 DUP1 PUSH2 0xA1B SWAP1 PUSH2 0x163D JUMP JUMPDEST SWAP3 POP POP JUMPDEST DUP1 DUP1 PUSH2 0xA2A SWAP1 PUSH2 0x163D JUMP JUMPDEST SWAP2 POP POP PUSH2 0x88E JUMP JUMPDEST POP DUP4 DUP4 SWAP6 POP SWAP6 POP POP POP POP POP SWAP2 POP SWAP2 JUMP JUMPDEST PUSH1 0x1 PUSH1 0x0 SWAP1 SLOAD SWAP1 PUSH2 0x100 EXP SWAP1 DIV PUSH20 0xFFFFFFFFFFFFFFFFFFFFFFFFFFFFFFFFFFFFFFFF AND PUSH20 0xFFFFFFFFFFFFFFFFFFFFFFFFFFFFFFFFFFFFFFFF AND CALLER PUSH20 0xFFFFFFFFFFFFFFFFFFFFFFFFFFFFFFFFFFFFFFFF AND EQ PUSH2 0xA9C JUMPI PUSH1 0x0 DUP1 REVERT JUMPDEST PUSH1 0x0 CALLVALUE GT PUSH2 0xADF JUMPI PUSH1 0x40 MLOAD PUSH32 0x8C379A000000000000000000000000000000000000000000000000000000000 DUP2 MSTORE PUSH1 0x4 ADD PUSH2 0xAD6 SWAP1 PUSH2 0x16E2 JUMP JUMPDEST PUSH1 0x40 MLOAD DUP1 SWAP2 SUB SWAP1 REVERT JUMPDEST CALLVALUE PUSH1 0x0 DUP1 PUSH1 0x1 PUSH1 0x0 SWAP1 SLOAD SWAP1 PUSH2 0x100 EXP SWAP1 DIV PUSH20 0xFFFFFFFFFFFFFFFFFFFFFFFFFFFFFFFFFFFFFFFF AND PUSH20 0xFFFFFFFFFFFFFFFFFFFFFFFFFFFFFFFFFFFFFFFF AND PUSH20 0xFFFFFFFFFFFFFFFFFFFFFFFFFFFFFFFFFFFFFFFF AND DUP2 MSTORE PUSH1 0x20 ADD SWAP1 DUP2 MSTORE PUSH1 0x20 ADD PUSH1 0x0 KECCAK256 DUP3 PUSH1 0x40 MLOAD PUSH2 0xB4E SWAP2 SWAP1 PUSH2 0x15F7 JUMP JUMPDEST SWAP1 DUP2 MSTORE PUSH1 0x20 ADD PUSH1 0x40 MLOAD DUP1 SWAP2 SUB SWAP1 KECCAK256 PUSH1 0x0 DUP3 DUP3 SLOAD PUSH2 0xB6B SWAP2 SWAP1 PUSH2 0x1702 JUMP JUMPDEST SWAP3 POP POP DUP2 SWAP1 SSTORE POP POP JUMP JUMPDEST PUSH1 0x1 PUSH1 0x0 SWAP1 SLOAD SWAP1 PUSH2 0x100 EXP SWAP1 DIV PUSH20 0xFFFFFFFFFFFFFFFFFFFFFFFFFFFFFFFFFFFFFFFF AND PUSH20 0xFFFFFFFFFFFFFFFFFFFFFFFFFFFFFFFFFFFFFFFF AND CALLER PUSH20 0xFFFFFFFFFFFFFFFFFFFFFFFFFFFFFFFFFFFFFFFF AND EQ PUSH2 0xBCF JUMPI PUSH1 0x0 DUP1 REVERT JUMPDEST DUP2 PUSH1 0x0 DUP1 PUSH1 0x1 PUSH1 0x0 SWAP1 SLOAD SWAP1 PUSH2 0x100 EXP SWAP1 DIV PUSH20 0xFFFFFFFFFFFFFFFFFFFFFFFFFFFFFFFFFFFFFFFF AND PUSH20 0xFFFFFFFFFFFFFFFFFFFFFFFFFFFFFFFFFFFFFFFF AND PUSH20 0xFFFFFFFFFFFFFFFFFFFFFFFFFFFFFFFFFFFFFFFF AND DUP2 MSTORE PUSH1 0x20 ADD SWAP1 DUP2 MSTORE PUSH1 0x20 ADD PUSH1 0x0 KECCAK256 DUP3 PUSH1 0x40 MLOAD PUSH2 0xC3E SWAP2 SWAP1 PUSH2 0x15F7 JUMP JUMPDEST SWAP1 DUP2 MSTORE PUSH1 0x20 ADD PUSH1 0x40 MLOAD DUP1 SWAP2 SUB SWAP1 KECCAK256 SLOAD LT ISZERO PUSH2 0xC8E JUMPI PUSH1 0x40 MLOAD PUSH32 0x8C379A000000000000000000000000000000000000000000000000000000000 DUP2 MSTORE PUSH1 0x4 ADD PUSH2 0xC85 SWAP1 PUSH2 0x17A8 JUMP JUMPDEST PUSH1 0x40 MLOAD DUP1 SWAP2 SUB SWAP1 REVERT JUMPDEST DUP2 PUSH1 0x0 DUP1 PUSH1 0x1 PUSH1 0x0 SWAP1 SLOAD SWAP1 PUSH2 0x100 EXP SWAP1 DIV PUSH20 0xFFFFFFFFFFFFFFFFFFFFFFFFFFFFFFFFFFFFFFFF AND PUSH20 0xFFFFFFFFFFFFFFFFFFFFFFFFFFFFFFFFFFFFFFFF AND PUSH20 0xFFFFFFFFFFFFFFFFFFFFFFFFFFFFFFFFFFFFFFFF AND DUP2 MSTORE PUSH1 0x20 ADD SWAP1 DUP2 MSTORE PUSH1 0x20 ADD PUSH1 0x0 KECCAK256 DUP3 PUSH1 0x40 MLOAD PUSH2 0xCFD SWAP2 SWAP1 PUSH2 0x15F7 JUMP JUMPDEST SWAP1 DUP2 MSTORE PUSH1 0x20 ADD PUSH1 0x40 MLOAD DUP1 SWAP2 SUB SWAP1 KECCAK256 PUSH1 0x0 DUP3 DUP3 SLOAD PUSH2 0xD1A SWAP2 SWAP1 PUSH2 0x17C8 JUMP JUMPDEST SWAP3 POP POP DUP2 SWAP1 SSTORE POP PUSH1 0x1 PUSH1 0x0 SWAP1 SLOAD SWAP1 PUSH2 0x100 EXP SWAP1 DIV PUSH20 0xFFFFFFFFFFFFFFFFFFFFFFFFFFFFFFFFFFFFFFFF AND PUSH20 0xFFFFFFFFFFFFFFFFFFFFFFFFFFFFFFFFFFFFFFFF AND PUSH2 0x8FC DUP4 SWAP1 DUP2 ISZERO MUL SWAP1 PUSH1 0x40 MLOAD PUSH1 0x0 PUSH1 0x40 MLOAD DUP1 DUP4 SUB DUP2 DUP6 DUP9 DUP9 CALL SWAP4 POP POP POP POP ISZERO DUP1 ISZERO PUSH2 0xD89 JUMPI RETURNDATASIZE PUSH1 0x0 DUP1 RETURNDATACOPY RETURNDATASIZE PUSH1 0x0 REVERT JUMPDEST POP POP POP JUMP JUMPDEST PUSH1 0x1 PUSH1 0x0 SWAP1 SLOAD SWAP1 PUSH2 0x100 EXP SWAP1 DIV PUSH20 0xFFFFFFFFFFFFFFFFFFFFFFFFFFFFFFFFFFFFFFFF AND PUSH20 0xFFFFFFFFFFFFFFFFFFFFFFFFFFFFFFFFFFFFFFFF AND CALLER PUSH20 0xFFFFFFFFFFFFFFFFFFFFFFFFFFFFFFFFFFFFFFFF AND EQ PUSH2 0xDE8 JUMPI PUSH1 0x0 DUP1 REVERT JUMPDEST DUP3 PUSH1 0x0 DUP1 PUSH1 0x1 PUSH1 0x0 SWAP1 SLOAD SWAP1 PUSH2 0x100 EXP SWAP1 DIV PUSH20 0xFFFFFFFFFFFFFFFFFFFFFFFFFFFFFFFFFFFFFFFF AND PUSH20 0xFFFFFFFFFFFFFFFFFFFFFFFFFFFFFFFFFFFFFFFF AND PUSH20 0xFFFFFFFFFFFFFFFFFFFFFFFFFFFFFFFFFFFFFFFF AND DUP2 MSTORE PUSH1 0x20 ADD SWAP1 DUP2 MSTORE PUSH1 0x20 ADD PUSH1 0x0 KECCAK256 DUP3 PUSH1 0x40 MLOAD PUSH2 0xE57 SWAP2 SWAP1 PUSH2 0x15F7 JUMP JUMPDEST SWAP1 DUP2 MSTORE PUSH1 0x20 ADD PUSH1 0x40 MLOAD DUP1 SWAP2 SUB SWAP1 KECCAK256 SLOAD LT ISZERO PUSH2 0xEA7 JUMPI PUSH1 0x40 MLOAD PUSH32 0x8C379A000000000000000000000000000000000000000000000000000000000 DUP2 MSTORE PUSH1 0x4 ADD PUSH2 0xE9E SWAP1 PUSH2 0x186E JUMP JUMPDEST PUSH1 0x40 MLOAD DUP1 SWAP2 SUB SWAP1 REVERT JUMPDEST DUP3 PUSH1 0x0 DUP1 PUSH1 0x1 PUSH1 0x0 SWAP1 SLOAD SWAP1 PUSH2 0x100 EXP SWAP1 DIV PUSH20 0xFFFFFFFFFFFFFFFFFFFFFFFFFFFFFFFFFFFFFFFF AND PUSH20 0xFFFFFFFFFFFFFFFFFFFFFFFFFFFFFFFFFFFFFFFF AND PUSH20 0xFFFFFFFFFFFFFFFFFFFFFFFFFFFFFFFFFFFFFFFF AND DUP2 MSTORE PUSH1 0x20 ADD SWAP1 DUP2 MSTORE PUSH1 0x20 ADD PUSH1 0x0 KECCAK256 DUP3 PUSH1 0x40 MLOAD PUSH2 0xF16 SWAP2 SWAP1 PUSH2 0x15F7 JUMP JUMPDEST SWAP1 DUP2 MSTORE PUSH1 0x20 ADD PUSH1 0x40 MLOAD DUP1 SWAP2 SUB SWAP1 KECCAK256 PUSH1 0x0 DUP3 DUP3 SLOAD PUSH2 0xF33 SWAP2 SWAP1 PUSH2 0x17C8 JUMP JUMPDEST SWAP3 POP POP DUP2 SWAP1 SSTORE POP DUP3 PUSH1 0x0 DUP1 DUP5 PUSH20 0xFFFFFFFFFFFFFFFFFFFFFFFFFFFFFFFFFFFFFFFF AND PUSH20 0xFFFFFFFFFFFFFFFFFFFFFFFFFFFFFFFFFFFFFFFF AND DUP2 MSTORE PUSH1 0x20 ADD SWAP1 DUP2 MSTORE PUSH1 0x20 ADD PUSH1 0x0 KECCAK256 DUP3 PUSH1 0x40 MLOAD PUSH2 0xF87 SWAP2 SWAP1 PUSH2 0x15F7 JUMP JUMPDEST SWAP1 DUP2 MSTORE PUSH1 0x20 ADD PUSH1 0x40 MLOAD DUP1 SWAP2 SUB SWAP1 KECCAK256 PUSH1 0x0 DUP3 DUP3 SLOAD PUSH2 0xFA4 SWAP2 SWAP1 PUSH2 0x1702 JUMP JUMPDEST SWAP3 POP POP DUP2 SWAP1 SSTORE POP POP POP POP JUMP JUMPDEST PUSH1 0x0 PUSH1 0x40 MLOAD SWAP1 POP SWAP1 JUMP JUMPDEST PUSH1 0x0 DUP1 REVERT JUMPDEST PUSH1 0x0 DUP1 REVERT JUMPDEST PUSH1 0x0 PUSH20 0xFFFFFFFFFFFFFFFFFFFFFFFFFFFFFFFFFFFFFFFF DUP3 AND SWAP1 POP SWAP2 SWAP1 POP JUMP JUMPDEST PUSH1 0x0 PUSH2 0xFEF DUP3 PUSH2 0xFC4 JUMP JUMPDEST SWAP1 POP SWAP2 SWAP1 POP JUMP JUMPDEST PUSH2 0xFFF DUP2 PUSH2 0xFE4 JUMP JUMPDEST DUP2 EQ PUSH2 0x100A JUMPI PUSH1 0x0 DUP1 REVERT JUMPDEST POP JUMP JUMPDEST PUSH1 0x0 DUP2 CALLDATALOAD SWAP1 POP PUSH2 0x101C DUP2 PUSH2 0xFF6 JUMP JUMPDEST SWAP3 SWAP2 POP POP JUMP JUMPDEST PUSH1 0x0 DUP1 REVERT JUMPDEST PUSH1 0x0 DUP1 REVERT JUMPDEST PUSH1 0x0 PUSH1 0x1F NOT PUSH1 0x1F DUP4 ADD AND SWAP1 POP SWAP2 SWAP1 POP JUMP JUMPDEST PUSH32 0x4E487B7100000000000000000000000000000000000000000000000000000000 PUSH1 0x0 MSTORE PUSH1 0x41 PUSH1 0x4 MSTORE PUSH1 0x24 PUSH1 0x0 REVERT JUMPDEST PUSH2 0x1075 DUP3 PUSH2 0x102C JUMP JUMPDEST DUP2 ADD DUP2 DUP2 LT PUSH8 0xFFFFFFFFFFFFFFFF DUP3 GT OR ISZERO PUSH2 0x1094 JUMPI PUSH2 0x1093 PUSH2 0x103D JUMP JUMPDEST JUMPDEST DUP1 PUSH1 0x40 MSTORE POP POP POP JUMP JUMPDEST PUSH1 0x0 PUSH2 0x10A7 PUSH2 0xFB0 JUMP JUMPDEST SWAP1 POP PUSH2 0x10B3 DUP3 DUP3 PUSH2 0x106C JUMP JUMPDEST SWAP2 SWAP1 POP JUMP JUMPDEST PUSH1 0x0 PUSH8 0xFFFFFFFFFFFFFFFF DUP3 GT ISZERO PUSH2 0x10D3 JUMPI PUSH2 0x10D2 PUSH2 0x103D JUMP JUMPDEST JUMPDEST PUSH2 0x10DC DUP3 PUSH2 0x102C JUMP JUMPDEST SWAP1 POP PUSH1 0x20 DUP2 ADD SWAP1 POP SWAP2 SWAP1 POP JUMP JUMPDEST DUP3 DUP2 DUP4 CALLDATACOPY PUSH1 0x0 DUP4 DUP4 ADD MSTORE POP POP POP JUMP JUMPDEST PUSH1 0x0 PUSH2 0x110B PUSH2 0x1106 DUP5 PUSH2 0x10B8 JUMP JUMPDEST PUSH2 0x109D JUMP JUMPDEST SWAP1 POP DUP3 DUP2 MSTORE PUSH1 0x20 DUP2 ADD DUP5 DUP5 DUP5 ADD GT ISZERO PUSH2 0x1127 JUMPI PUSH2 0x1126 PUSH2 0x1027 JUMP JUMPDEST JUMPDEST PUSH2 0x1132 DUP5 DUP3 DUP6 PUSH2 0x10E9 JUMP JUMPDEST POP SWAP4 SWAP3 POP POP POP JUMP JUMPDEST PUSH1 0x0 DUP3 PUSH1 0x1F DUP4 ADD SLT PUSH2 0x114F JUMPI PUSH2 0x114E PUSH2 0x1022 JUMP JUMPDEST JUMPDEST DUP2 CALLDATALOAD PUSH2 0x115F DUP5 DUP3 PUSH1 0x20 DUP7 ADD PUSH2 0x10F8 JUMP JUMPDEST SWAP2 POP POP SWAP3 SWAP2 POP POP JUMP JUMPDEST PUSH1 0x0 DUP1 PUSH1 0x40 DUP4 DUP6 SUB SLT ISZERO PUSH2 0x117F JUMPI PUSH2 0x117E PUSH2 0xFBA JUMP JUMPDEST JUMPDEST PUSH1 0x0 PUSH2 0x118D DUP6 DUP3 DUP7 ADD PUSH2 0x100D JUMP JUMPDEST SWAP3 POP POP PUSH1 0x20 DUP4 ADD CALLDATALOAD PUSH8 0xFFFFFFFFFFFFFFFF DUP2 GT ISZERO PUSH2 0x11AE JUMPI PUSH2 0x11AD PUSH2 0xFBF JUMP JUMPDEST JUMPDEST PUSH2 0x11BA DUP6 DUP3 DUP7 ADD PUSH2 0x113A JUMP JUMPDEST SWAP2 POP POP SWAP3 POP SWAP3 SWAP1 POP JUMP JUMPDEST PUSH1 0x0 DUP2 SWAP1 POP SWAP2 SWAP1 POP JUMP JUMPDEST PUSH2 0x11D7 DUP2 PUSH2 0x11C4 JUMP JUMPDEST DUP3 MSTORE POP POP JUMP JUMPDEST PUSH1 0x0 PUSH1 0x20 DUP3 ADD SWAP1 POP PUSH2 0x11F2 PUSH1 0x0 DUP4 ADD DUP5 PUSH2 0x11CE JUMP JUMPDEST SWAP3 SWAP2 POP POP JUMP JUMPDEST PUSH1 0x0 DUP2 MLOAD SWAP1 POP SWAP2 SWAP1 POP JUMP JUMPDEST PUSH1 0x0 DUP3 DUP3 MSTORE PUSH1 0x20 DUP3 ADD SWAP1 POP SWAP3 SWAP2 POP POP JUMP JUMPDEST PUSH1 0x0 DUP2 SWAP1 POP PUSH1 0x20 DUP3 ADD SWAP1 POP SWAP2 SWAP1 POP JUMP JUMPDEST PUSH2 0x122D DUP2 PUSH2 0xFE4 JUMP JUMPDEST DUP3 MSTORE POP POP JUMP JUMPDEST PUSH1 0x0 PUSH2 0x123F DUP4 DUP4 PUSH2 0x1224 JUMP JUMPDEST PUSH1 0x20 DUP4 ADD SWAP1 POP SWAP3 SWAP2 POP POP JUMP JUMPDEST PUSH1 0x0 PUSH1 0x20 DUP3 ADD SWAP1 POP SWAP2 SWAP1 POP JUMP JUMPDEST PUSH1 0x0 PUSH2 0x1263 DUP3 PUSH2 0x11F8 JUMP JUMPDEST PUSH2 0x126D DUP2 DUP6 PUSH2 0x1203 JUMP JUMPDEST SWAP4 POP PUSH2 0x1278 DUP4 PUSH2 0x1214 JUMP JUMPDEST DUP1 PUSH1 0x0 JUMPDEST DUP4 DUP2 LT ISZERO PUSH2 0x12A9 JUMPI DUP2 MLOAD PUSH2 0x1290 DUP9 DUP3 PUSH2 0x1233 JUMP JUMPDEST SWAP8 POP PUSH2 0x129B DUP4 PUSH2 0x124B JUMP JUMPDEST SWAP3 POP POP PUSH1 0x1 DUP2 ADD SWAP1 POP PUSH2 0x127C JUMP JUMPDEST POP DUP6 SWAP4 POP POP POP POP SWAP3 SWAP2 POP POP JUMP JUMPDEST PUSH1 0x0 DUP2 MLOAD SWAP1 POP SWAP2 SWAP1 POP JUMP JUMPDEST PUSH1 0x0 DUP3 DUP3 MSTORE PUSH1 0x20 DUP3 ADD SWAP1 POP SWAP3 SWAP2 POP POP JUMP JUMPDEST PUSH1 0x0 DUP2 SWAP1 POP PUSH1 0x20 DUP3 ADD SWAP1 POP SWAP2 SWAP1 POP JUMP JUMPDEST PUSH2 0x12EB DUP2 PUSH2 0x11C4 JUMP JUMPDEST DUP3 MSTORE POP POP JUMP JUMPDEST PUSH1 0x0 PUSH2 0x12FD DUP4 DUP4 PUSH2 0x12E2 JUMP JUMPDEST PUSH1 0x20 DUP4 ADD SWAP1 POP SWAP3 SWAP2 POP POP JUMP JUMPDEST PUSH1 0x0 PUSH1 0x20 DUP3 ADD SWAP1 POP SWAP2 SWAP1 POP JUMP JUMPDEST PUSH1 0x0 PUSH2 0x1321 DUP3 PUSH2 0x12B6 JUMP JUMPDEST PUSH2 0x132B DUP2 DUP6 PUSH2 0x12C1 JUMP JUMPDEST SWAP4 POP PUSH2 0x1336 DUP4 PUSH2 0x12D2 JUMP JUMPDEST DUP1 PUSH1 0x0 JUMPDEST DUP4 DUP2 LT ISZERO PUSH2 0x1367 JUMPI DUP2 MLOAD PUSH2 0x134E DUP9 DUP3 PUSH2 0x12F1 JUMP JUMPDEST SWAP8 POP PUSH2 0x1359 DUP4 PUSH2 0x1309 JUMP JUMPDEST SWAP3 POP POP PUSH1 0x1 DUP2 ADD SWAP1 POP PUSH2 0x133A JUMP JUMPDEST POP DUP6 SWAP4 POP POP POP POP SWAP3 SWAP2 POP POP JUMP JUMPDEST PUSH1 0x0 PUSH1 0x40 DUP3 ADD SWAP1 POP DUP2 DUP2 SUB PUSH1 0x0 DUP4 ADD MSTORE PUSH2 0x138E DUP2 DUP6 PUSH2 0x1258 JUMP JUMPDEST SWAP1 POP DUP2 DUP2 SUB PUSH1 0x20 DUP4 ADD MSTORE PUSH2 0x13A2 DUP2 DUP5 PUSH2 0x1316 JUMP JUMPDEST SWAP1 POP SWAP4 SWAP3 POP POP POP JUMP JUMPDEST PUSH2 0x13B4 DUP2 PUSH2 0xFE4 JUMP JUMPDEST DUP3 MSTORE POP POP JUMP JUMPDEST PUSH1 0x0 PUSH1 0x20 DUP3 ADD SWAP1 POP PUSH2 0x13CF PUSH1 0x0 DUP4 ADD DUP5 PUSH2 0x13AB JUMP JUMPDEST SWAP3 SWAP2 POP POP JUMP JUMPDEST PUSH1 0x0 PUSH1 0x20 DUP3 DUP5 SUB SLT ISZERO PUSH2 0x13EB JUMPI PUSH2 0x13EA PUSH2 0xFBA JUMP JUMPDEST JUMPDEST PUSH1 0x0 DUP3 ADD CALLDATALOAD PUSH8 0xFFFFFFFFFFFFFFFF DUP2 GT ISZERO PUSH2 0x1409 JUMPI PUSH2 0x1408 PUSH2 0xFBF JUMP JUMPDEST JUMPDEST PUSH2 0x1415 DUP5 DUP3 DUP6 ADD PUSH2 0x113A JUMP JUMPDEST SWAP2 POP POP SWAP3 SWAP2 POP POP JUMP JUMPDEST PUSH2 0x1427 DUP2 PUSH2 0x11C4 JUMP JUMPDEST DUP2 EQ PUSH2 0x1432 JUMPI PUSH1 0x0 DUP1 REVERT JUMPDEST POP JUMP JUMPDEST PUSH1 0x0 DUP2 CALLDATALOAD SWAP1 POP PUSH2 0x1444 DUP2 PUSH2 0x141E JUMP JUMPDEST SWAP3 SWAP2 POP POP JUMP JUMPDEST PUSH1 0x0 DUP1 PUSH1 0x40 DUP4 DUP6 SUB SLT ISZERO PUSH2 0x1461 JUMPI PUSH2 0x1460 PUSH2 0xFBA JUMP JUMPDEST JUMPDEST PUSH1 0x0 PUSH2 0x146F DUP6 DUP3 DUP7 ADD PUSH2 0x1435 JUMP JUMPDEST SWAP3 POP POP PUSH1 0x20 DUP4 ADD CALLDATALOAD PUSH8 0xFFFFFFFFFFFFFFFF DUP2 GT ISZERO PUSH2 0x1490 JUMPI PUSH2 0x148F PUSH2 0xFBF JUMP JUMPDEST JUMPDEST PUSH2 0x149C DUP6 DUP3 DUP7 ADD PUSH2 0x113A JUMP JUMPDEST SWAP2 POP POP SWAP3 POP SWAP3 SWAP1 POP JUMP JUMPDEST PUSH1 0x0 DUP1 PUSH1 0x0 PUSH1 0x60 DUP5 DUP7 SUB SLT ISZERO PUSH2 0x14BF JUMPI PUSH2 0x14BE PUSH2 0xFBA JUMP JUMPDEST JUMPDEST PUSH1 0x0 PUSH2 0x14CD DUP7 DUP3 DUP8 ADD PUSH2 0x1435 JUMP JUMPDEST SWAP4 POP POP PUSH1 0x20 PUSH2 0x14DE DUP7 DUP3 DUP8 ADD PUSH2 0x100D JUMP JUMPDEST SWAP3 POP POP PUSH1 0x40 DUP5 ADD CALLDATALOAD PUSH8 0xFFFFFFFFFFFFFFFF DUP2 GT ISZERO PUSH2 0x14FF JUMPI PUSH2 0x14FE PUSH2 0xFBF JUMP JUMPDEST JUMPDEST PUSH2 0x150B DUP7 DUP3 DUP8 ADD PUSH2 0x113A JUMP JUMPDEST SWAP2 POP POP SWAP3 POP SWAP3 POP SWAP3 JUMP JUMPDEST PUSH1 0x0 DUP2 MLOAD SWAP1 POP PUSH2 0x1524 DUP2 PUSH2 0x141E JUMP JUMPDEST SWAP3 SWAP2 POP POP JUMP JUMPDEST PUSH1 0x0 PUSH1 0x20 DUP3 DUP5 SUB SLT ISZERO PUSH2 0x1540 JUMPI PUSH2 0x153F PUSH2 0xFBA JUMP JUMPDEST JUMPDEST PUSH1 0x0 PUSH2 0x154E DUP5 DUP3 DUP6 ADD PUSH2 0x1515 JUMP JUMPDEST SWAP2 POP POP SWAP3 SWAP2 POP POP JUMP JUMPDEST PUSH32 0x4E487B7100000000000000000000000000000000000000000000000000000000 PUSH1 0x0 MSTORE PUSH1 0x32 PUSH1 0x4 MSTORE PUSH1 0x24 PUSH1 0x0 REVERT JUMPDEST PUSH1 0x0 DUP2 MLOAD SWAP1 POP SWAP2 SWAP1 POP JUMP JUMPDEST PUSH1 0x0 DUP2 SWAP1 POP SWAP3 SWAP2 POP POP JUMP JUMPDEST PUSH1 0x0 JUMPDEST DUP4 DUP2 LT ISZERO PUSH2 0x15BA JUMPI DUP1 DUP3 ADD MLOAD DUP2 DUP5 ADD MSTORE PUSH1 0x20 DUP2 ADD SWAP1 POP PUSH2 0x159F JUMP JUMPDEST PUSH1 0x0 DUP5 DUP5 ADD MSTORE POP POP POP POP JUMP JUMPDEST PUSH1 0x0 PUSH2 0x15D1 DUP3 PUSH2 0x1586 JUMP JUMPDEST PUSH2 0x15DB DUP2 DUP6 PUSH2 0x1591 JUMP JUMPDEST SWAP4 POP PUSH2 0x15EB DUP2 DUP6 PUSH1 0x20 DUP7 ADD PUSH2 0x159C JUMP JUMPDEST DUP1 DUP5 ADD SWAP2 POP POP SWAP3 SWAP2 POP POP JUMP JUMPDEST PUSH1 0x0 PUSH2 0x1603 DUP3 DUP5 PUSH2 0x15C6 JUMP JUMPDEST SWAP2 POP DUP2 SWAP1 POP SWAP3 SWAP2 POP POP JUMP JUMPDEST PUSH32 0x4E487B7100000000000000000000000000000000000000000000000000000000 PUSH1 0x0 MSTORE PUSH1 0x11 PUSH1 0x4 MSTORE PUSH1 0x24 PUSH1 0x0 REVERT JUMPDEST PUSH1 0x0 PUSH2 0x1648 DUP3 PUSH2 0x11C4 JUMP JUMPDEST SWAP2 POP PUSH32 0xFFFFFFFFFFFFFFFFFFFFFFFFFFFFFFFFFFFFFFFFFFFFFFFFFFFFFFFFFFFFFFFF DUP3 SUB PUSH2 0x167A JUMPI PUSH2 0x1679 PUSH2 0x160E JUMP JUMPDEST JUMPDEST PUSH1 0x1 DUP3 ADD SWAP1 POP SWAP2 SWAP1 POP JUMP JUMPDEST PUSH1 0x0 DUP3 DUP3 MSTORE PUSH1 0x20 DUP3 ADD SWAP1 POP SWAP3 SWAP2 POP POP JUMP JUMPDEST PUSH32 0x56616C7565206D75737420626520686967686572207468616E207A65726F0000 PUSH1 0x0 DUP3 ADD MSTORE POP JUMP JUMPDEST PUSH1 0x0 PUSH2 0x16CC PUSH1 0x1E DUP4 PUSH2 0x1685 JUMP JUMPDEST SWAP2 POP PUSH2 0x16D7 DUP3 PUSH2 0x1696 JUMP JUMPDEST PUSH1 0x20 DUP3 ADD SWAP1 POP SWAP2 SWAP1 POP JUMP JUMPDEST PUSH1 0x0 PUSH1 0x20 DUP3 ADD SWAP1 POP DUP2 DUP2 SUB PUSH1 0x0 DUP4 ADD MSTORE PUSH2 0x16FB DUP2 PUSH2 0x16BF JUMP JUMPDEST SWAP1 POP SWAP2 SWAP1 POP JUMP JUMPDEST PUSH1 0x0 PUSH2 0x170D DUP3 PUSH2 0x11C4 JUMP JUMPDEST SWAP2 POP PUSH2 0x1718 DUP4 PUSH2 0x11C4 JUMP JUMPDEST SWAP3 POP DUP3 DUP3 ADD SWAP1 POP DUP1 DUP3 GT ISZERO PUSH2 0x1730 JUMPI PUSH2 0x172F PUSH2 0x160E JUMP JUMPDEST JUMPDEST SWAP3 SWAP2 POP POP JUMP JUMPDEST PUSH32 0x42616C616E63652073686F756C6420626520686967686572207468616E207468 PUSH1 0x0 DUP3 ADD MSTORE PUSH32 0x6520616D6F756E74000000000000000000000000000000000000000000000000 PUSH1 0x20 DUP3 ADD MSTORE POP JUMP JUMPDEST PUSH1 0x0 PUSH2 0x1792 PUSH1 0x28 DUP4 PUSH2 0x1685 JUMP JUMPDEST SWAP2 POP PUSH2 0x179D DUP3 PUSH2 0x1736 JUMP JUMPDEST PUSH1 0x40 DUP3 ADD SWAP1 POP SWAP2 SWAP1 POP JUMP JUMPDEST PUSH1 0x0 PUSH1 0x20 DUP3 ADD SWAP1 POP DUP2 DUP2 SUB PUSH1 0x0 DUP4 ADD MSTORE PUSH2 0x17C1 DUP2 PUSH2 0x1785 JUMP JUMPDEST SWAP1 POP SWAP2 SWAP1 POP JUMP JUMPDEST PUSH1 0x0 PUSH2 0x17D3 DUP3 PUSH2 0x11C4 JUMP JUMPDEST SWAP2 POP PUSH2 0x17DE DUP4 PUSH2 0x11C4 JUMP JUMPDEST SWAP3 POP DUP3 DUP3 SUB SWAP1 POP DUP2 DUP2 GT ISZERO PUSH2 0x17F6 JUMPI PUSH2 0x17F5 PUSH2 0x160E JUMP JUMPDEST JUMPDEST SWAP3 SWAP2 POP POP JUMP JUMPDEST PUSH32 0x42616C616E63652073686F756C6420626520686967686572207468616E206F72 PUSH1 0x0 DUP3 ADD MSTORE PUSH32 0x20657175616C20746F20616D6F756E7400000000000000000000000000000000 PUSH1 0x20 DUP3 ADD MSTORE POP JUMP JUMPDEST PUSH1 0x0 PUSH2 0x1858 PUSH1 0x30 DUP4 PUSH2 0x1685 JUMP JUMPDEST SWAP2 POP PUSH2 0x1863 DUP3 PUSH2 0x17FC JUMP JUMPDEST PUSH1 0x40 DUP3 ADD SWAP1 POP SWAP2 SWAP1 POP JUMP JUMPDEST PUSH1 0x0 PUSH1 0x20 DUP3 ADD SWAP1 POP DUP2 DUP2 SUB PUSH1 0x0 DUP4 ADD MSTORE PUSH2 0x1887 DUP2 PUSH2 0x184B JUMP JUMPDEST SWAP1 POP SWAP2 SWAP1 POP JUMP INVALID LOG2 PUSH5 0x6970667358 0x22 SLT KECCAK256 SUB SWAP15 MOD 0xD4 0x2E SWAP5 DUP7 0xC1 SWAP3 0x27 0xC3 GASLIMIT 0xCD MSTORE8 CODESIZE EQ 0x21 KECCAK256 PUSH11 0xC097AB4AD028906BB68E9A 0xB1 LT PUSH5 0x736F6C6343 STOP ADDMOD SLT STOP CALLER "
				},
				"gasEstimates": {
					"creation": {
						"codeDepositCost": "1268000",
						"executionCost": "1322",
						"totalCost": "1269322"
					},
					"external": {
						"balances(address,string)": "infinite",
						"checkAllBalance(string)": "infinite",
						"checkDollarBalance()": "infinite",
						"checkEuroBalance()": "infinite",
						"checkSterlinBalance()": "infinite",
						"decrementValue()": "infinite",
						"deposit(string)": "infinite",
						"incrementValue()": "infinite",
						"resetTheAssets()": "infinite",
						"transfer(uint256,address,string)": "infinite",
						"viewSender()": "2589",
						"viewValue()": "infinite",
						"withdraw(uint256,string)": "infinite"
					},
					"internal": {
						"checkBalance(address,string memory)": "infinite"
					}
				},
				"methodIdentifiers": {
					"balances(address,string)": "05d01f50",
					"checkAllBalance(string)": "783f87c7",
					"checkDollarBalance()": "1432c9dd",
					"checkEuroBalance()": "11b42537",
					"checkSterlinBalance()": "343d4ef2",
					"decrementValue()": "16b78191",
					"deposit(string)": "a26e1186",
					"incrementValue()": "3bfd7fd3",
					"resetTheAssets()": "05749175",
					"transfer(uint256,address,string)": "e4745970",
					"viewSender()": "6a1d23ed",
					"viewValue()": "1a6a9594",
					"withdraw(uint256,string)": "dc048cf2"
				}
			},
			"storageLayout": {
				"storage": [
					{
						"astId": 68,
						"contract": ".deps/contracts/Bank.sol:Bank",
						"label": "balances",
						"offset": 0,
						"slot": "0",
						"type": "t_mapping(t_address,t_mapping(t_string_memory_ptr,t_uint256))"
					},
					{
						"astId": 70,
						"contract": ".deps/contracts/Bank.sol:Bank",
						"label": "owner",
						"offset": 0,
						"slot": "1",
						"type": "t_address"
					},
					{
						"astId": 73,
						"contract": ".deps/contracts/Bank.sol:Bank",
						"label": "counter",
						"offset": 0,
						"slot": "2",
						"type": "t_contract(Counter)462"
					},
					{
						"astId": 75,
						"contract": ".deps/contracts/Bank.sol:Bank",
						"label": "usdBalance",
						"offset": 0,
						"slot": "3",
						"type": "t_uint256"
					},
					{
						"astId": 77,
						"contract": ".deps/contracts/Bank.sol:Bank",
						"label": "euroBalance",
						"offset": 0,
						"slot": "4",
						"type": "t_uint256"
					},
					{
						"astId": 79,
						"contract": ".deps/contracts/Bank.sol:Bank",
						"label": "sterlinBalance",
						"offset": 0,
						"slot": "5",
						"type": "t_uint256"
					}
				],
				"types": {
					"t_address": {
						"encoding": "inplace",
						"label": "address",
						"numberOfBytes": "20"
					},
					"t_contract(Counter)462": {
						"encoding": "inplace",
						"label": "contract Counter",
						"numberOfBytes": "20"
					},
					"t_mapping(t_address,t_mapping(t_string_memory_ptr,t_uint256))": {
						"encoding": "mapping",
						"key": "t_address",
						"label": "mapping(address => mapping(string => uint256))",
						"numberOfBytes": "32",
						"value": "t_mapping(t_string_memory_ptr,t_uint256)"
					},
					"t_mapping(t_string_memory_ptr,t_uint256)": {
						"encoding": "mapping",
						"key": "t_string_memory_ptr",
						"label": "mapping(string => uint256)",
						"numberOfBytes": "32",
						"value": "t_uint256"
					},
					"t_string_memory_ptr": {
						"encoding": "bytes",
						"label": "string",
						"numberOfBytes": "32"
					},
					"t_uint256": {
						"encoding": "inplace",
						"label": "uint256",
						"numberOfBytes": "32"
					}
				}
			},
			"userdoc": {
				"kind": "user",
				"methods": {},
				"version": 1
			}
		}
	}
}