{
	".deps/contracts/Counter.sol": {
		"Counter": {
			"abi": [
				{
					"inputs": [],
					"name": "current",
					"outputs": [
						{
							"internalType": "uint256",
							"name": "",
							"type": "uint256"
						}
					],
					"stateMutability": "view",
					"type": "function"
				},
				{
					"inputs": [],
					"name": "decrement",
					"outputs": [],
					"stateMutability": "nonpayable",
					"type": "function"
				},
				{
					"inputs": [],
					"name": "increment",
					"outputs": [],
					"stateMutability": "nonpayable",
					"type": "function"
				},
				{
					"inputs": [],
					"name": "reset",
					"outputs": [],
					"stateMutability": "nonpayable",
					"type": "function"
				},
				{
					"inputs": [],
					"name": "value",
					"outputs": [
						{
							"internalType": "uint256",
							"name": "",
							"type": "uint256"
						}
					],
					"stateMutability": "view",
					"type": "function"
				}
			],
			"devdoc": {
				"kind": "dev",
				"methods": {},
				"version": 1
			},
			"evm": {
				"assembly": "    /* \".deps/contracts/Counter.sol\":60:515  contract Counter {... */\n  mstore(0x40, 0x80)\n  callvalue\n  dup1\n  iszero\n  tag_1\n  jumpi\n  0x00\n  dup1\n  revert\ntag_1:\n  pop\n  dataSize(sub_0)\n  dup1\n  dataOffset(sub_0)\n  0x00\n  codecopy\n  0x00\n  return\nstop\n\nsub_0: assembly {\n        /* \".deps/contracts/Counter.sol\":60:515  contract Counter {... */\n      mstore(0x40, 0x80)\n      callvalue\n      dup1\n      iszero\n      tag_1\n      jumpi\n      0x00\n      dup1\n      revert\n    tag_1:\n      pop\n      jumpi(tag_2, lt(calldatasize, 0x04))\n      shr(0xe0, calldataload(0x00))\n      dup1\n      0x2baeceb7\n      eq\n      tag_3\n      jumpi\n      dup1\n      0x3fa4f245\n      eq\n      tag_4\n      jumpi\n      dup1\n      0x9fa6a6e3\n      eq\n      tag_5\n      jumpi\n      dup1\n      0xd09de08a\n      eq\n      tag_6\n      jumpi\n      dup1\n      0xd826f88f\n      eq\n      tag_7\n      jumpi\n    tag_2:\n      0x00\n      dup1\n      revert\n        /* \".deps/contracts/Counter.sol\":172:226  function decrement() public {... */\n    tag_3:\n      tag_8\n      tag_9\n      jump\t// in\n    tag_8:\n      stop\n        /* \".deps/contracts/Counter.sol\":84:101  uint public value */\n    tag_4:\n      tag_10\n      tag_11\n      jump\t// in\n    tag_10:\n      mload(0x40)\n      tag_12\n      swap2\n      swap1\n      tag_13\n      jump\t// in\n    tag_12:\n      mload(0x40)\n      dup1\n      swap2\n      sub\n      swap1\n      return\n        /* \".deps/contracts/Counter.sol\":294:370  function current() public view returns(uint) {... */\n    tag_5:\n      tag_14\n      tag_15\n      jump\t// in\n    tag_14:\n      mload(0x40)\n      tag_16\n      swap2\n      swap1\n      tag_13\n      jump\t// in\n    tag_16:\n      mload(0x40)\n      dup1\n      swap2\n      sub\n      swap1\n      return\n        /* \".deps/contracts/Counter.sol\":110:164  function increment() public {... */\n    tag_6:\n      tag_17\n      tag_18\n      jump\t// in\n    tag_17:\n      stop\n        /* \".deps/contracts/Counter.sol\":234:286  function reset() public {... */\n    tag_7:\n      tag_19\n      tag_20\n      jump\t// in\n    tag_19:\n      stop\n        /* \".deps/contracts/Counter.sol\":172:226  function decrement() public {... */\n    tag_9:\n        /* \".deps/contracts/Counter.sol\":211:216  value */\n      0x00\n      dup1\n        /* \".deps/contracts/Counter.sol\":211:218  value-- */\n      dup2\n      sload\n      dup1\n      swap3\n      swap2\n      swap1\n      tag_22\n      swap1\n      tag_23\n      jump\t// in\n    tag_22:\n      swap2\n      swap1\n      pop\n      sstore\n      pop\n        /* \".deps/contracts/Counter.sol\":172:226  function decrement() public {... */\n      jump\t// out\n        /* \".deps/contracts/Counter.sol\":84:101  uint public value */\n    tag_11:\n      sload(0x00)\n      dup2\n      jump\t// out\n        /* \".deps/contracts/Counter.sol\":294:370  function current() public view returns(uint) {... */\n    tag_15:\n        /* \".deps/contracts/Counter.sol\":333:337  uint */\n      0x00\n        /* \".deps/contracts/Counter.sol\":357:362  value */\n      dup1\n      sload\n        /* \".deps/contracts/Counter.sol\":350:362  return value */\n      swap1\n      pop\n        /* \".deps/contracts/Counter.sol\":294:370  function current() public view returns(uint) {... */\n      swap1\n      jump\t// out\n        /* \".deps/contracts/Counter.sol\":110:164  function increment() public {... */\n    tag_18:\n        /* \".deps/contracts/Counter.sol\":149:154  value */\n      0x00\n      dup1\n        /* \".deps/contracts/Counter.sol\":149:156  value++ */\n      dup2\n      sload\n      dup1\n      swap3\n      swap2\n      swap1\n      tag_26\n      swap1\n      tag_27\n      jump\t// in\n    tag_26:\n      swap2\n      swap1\n      pop\n      sstore\n      pop\n        /* \".deps/contracts/Counter.sol\":110:164  function increment() public {... */\n      jump\t// out\n        /* \".deps/contracts/Counter.sol\":234:286  function reset() public {... */\n    tag_20:\n        /* \".deps/contracts/Counter.sol\":277:278  0 */\n      0x00\n        /* \".deps/contracts/Counter.sol\":269:274  value */\n      dup1\n        /* \".deps/contracts/Counter.sol\":269:278  value = 0 */\n      dup2\n      swap1\n      sstore\n      pop\n        /* \".deps/contracts/Counter.sol\":234:286  function reset() public {... */\n      jump\t// out\n        /* \"#utility.yul\":7:84   */\n    tag_29:\n        /* \"#utility.yul\":44:51   */\n      0x00\n        /* \"#utility.yul\":73:78   */\n      dup2\n        /* \"#utility.yul\":62:78   */\n      swap1\n      pop\n        /* \"#utility.yul\":7:84   */\n      swap2\n      swap1\n      pop\n      jump\t// out\n        /* \"#utility.yul\":90:208   */\n    tag_30:\n        /* \"#utility.yul\":177:201   */\n      tag_35\n        /* \"#utility.yul\":195:200   */\n      dup2\n        /* \"#utility.yul\":177:201   */\n      tag_29\n      jump\t// in\n    tag_35:\n        /* \"#utility.yul\":172:175   */\n      dup3\n        /* \"#utility.yul\":165:202   */\n      mstore\n        /* \"#utility.yul\":90:208   */\n      pop\n      pop\n      jump\t// out\n        /* \"#utility.yul\":214:436   */\n    tag_13:\n        /* \"#utility.yul\":307:311   */\n      0x00\n        /* \"#utility.yul\":345:347   */\n      0x20\n        /* \"#utility.yul\":334:343   */\n      dup3\n        /* \"#utility.yul\":330:348   */\n      add\n        /* \"#utility.yul\":322:348   */\n      swap1\n      pop\n        /* \"#utility.yul\":358:429   */\n      tag_37\n        /* \"#utility.yul\":426:427   */\n      0x00\n        /* \"#utility.yul\":415:424   */\n      dup4\n        /* \"#utility.yul\":411:428   */\n      add\n        /* \"#utility.yul\":402:408   */\n      dup5\n        /* \"#utility.yul\":358:429   */\n      tag_30\n      jump\t// in\n    tag_37:\n        /* \"#utility.yul\":214:436   */\n      swap3\n      swap2\n      pop\n      pop\n      jump\t// out\n        /* \"#utility.yul\":442:622   */\n    tag_31:\n        /* \"#utility.yul\":490:567   */\n      0x4e487b7100000000000000000000000000000000000000000000000000000000\n        /* \"#utility.yul\":487:488   */\n      0x00\n        /* \"#utility.yul\":480:568   */\n      mstore\n        /* \"#utility.yul\":587:591   */\n      0x11\n        /* \"#utility.yul\":584:585   */\n      0x04\n        /* \"#utility.yul\":577:592   */\n      mstore\n        /* \"#utility.yul\":611:615   */\n      0x24\n        /* \"#utility.yul\":608:609   */\n      0x00\n        /* \"#utility.yul\":601:616   */\n      revert\n        /* \"#utility.yul\":628:799   */\n    tag_23:\n        /* \"#utility.yul\":667:670   */\n      0x00\n        /* \"#utility.yul\":690:714   */\n      tag_40\n        /* \"#utility.yul\":708:713   */\n      dup3\n        /* \"#utility.yul\":690:714   */\n      tag_29\n      jump\t// in\n    tag_40:\n        /* \"#utility.yul\":681:714   */\n      swap2\n      pop\n        /* \"#utility.yul\":736:740   */\n      0x00\n        /* \"#utility.yul\":729:734   */\n      dup3\n        /* \"#utility.yul\":726:741   */\n      sub\n        /* \"#utility.yul\":723:764   */\n      tag_41\n      jumpi\n        /* \"#utility.yul\":744:762   */\n      tag_42\n      tag_31\n      jump\t// in\n    tag_42:\n        /* \"#utility.yul\":723:764   */\n    tag_41:\n        /* \"#utility.yul\":791:792   */\n      0x01\n        /* \"#utility.yul\":784:789   */\n      dup3\n        /* \"#utility.yul\":780:793   */\n      sub\n        /* \"#utility.yul\":773:793   */\n      swap1\n      pop\n        /* \"#utility.yul\":628:799   */\n      swap2\n      swap1\n      pop\n      jump\t// out\n        /* \"#utility.yul\":805:1038   */\n    tag_27:\n        /* \"#utility.yul\":844:847   */\n      0x00\n        /* \"#utility.yul\":867:891   */\n      tag_44\n        /* \"#utility.yul\":885:890   */\n      dup3\n        /* \"#utility.yul\":867:891   */\n      tag_29\n      jump\t// in\n    tag_44:\n        /* \"#utility.yul\":858:891   */\n      swap2\n      pop\n        /* \"#utility.yul\":913:979   */\n      0xffffffffffffffffffffffffffffffffffffffffffffffffffffffffffffffff\n        /* \"#utility.yul\":906:911   */\n      dup3\n        /* \"#utility.yul\":903:980   */\n      sub\n        /* \"#utility.yul\":900:1003   */\n      tag_45\n      jumpi\n        /* \"#utility.yul\":983:1001   */\n      tag_46\n      tag_31\n      jump\t// in\n    tag_46:\n        /* \"#utility.yul\":900:1003   */\n    tag_45:\n        /* \"#utility.yul\":1030:1031   */\n      0x01\n        /* \"#utility.yul\":1023:1028   */\n      dup3\n        /* \"#utility.yul\":1019:1032   */\n      add\n        /* \"#utility.yul\":1012:1032   */\n      swap1\n      pop\n        /* \"#utility.yul\":805:1038   */\n      swap2\n      swap1\n      pop\n      jump\t// out\n\n    auxdata: 0xa264697066735822122029a85b3b906b86829294bd6764164e1877f0dfcc1b062140d1bd34fd587518d064736f6c63430008120033\n}\n",
				"bytecode": {
					"linkReferences": {},
					"object": "608060405234801561001057600080fd5b5061020a806100206000396000f3fe608060405234801561001057600080fd5b50600436106100575760003560e01c80632baeceb71461005c5780633fa4f245146100665780639fa6a6e314610084578063d09de08a146100a2578063d826f88f146100ac575b600080fd5b6100646100b6565b005b61006e6100cf565b60405161007b9190610119565b60405180910390f35b61008c6100d5565b6040516100999190610119565b60405180910390f35b6100aa6100de565b005b6100b46100f7565b005b6000808154809291906100c890610163565b9190505550565b60005481565b60008054905090565b6000808154809291906100f09061018c565b9190505550565b60008081905550565b6000819050919050565b61011381610100565b82525050565b600060208201905061012e600083018461010a565b92915050565b7f4e487b7100000000000000000000000000000000000000000000000000000000600052601160045260246000fd5b600061016e82610100565b91506000820361018157610180610134565b5b600182039050919050565b600061019782610100565b91507fffffffffffffffffffffffffffffffffffffffffffffffffffffffffffffffff82036101c9576101c8610134565b5b60018201905091905056fea264697066735822122029a85b3b906b86829294bd6764164e1877f0dfcc1b062140d1bd34fd587518d064736f6c63430008120033",
					"opcodes": "PUSH1 0x80 PUSH1 0x40 MSTORE CALLVALUE DUP1 ISZERO PUSH2 0x10 JUMPI PUSH1 0x0 DUP1 REVERT JUMPDEST POP PUSH2 0x20A DUP1 PUSH2 0x20 PUSH1 0x0 CODECOPY PUSH1 0x0 RETURN INVALID PUSH1 0x80 PUSH1 0x40 MSTORE CALLVALUE DUP1 ISZERO PUSH2 0x10 JUMPI PUSH1 0x0 DUP1 REVERT JUMPDEST POP PUSH1 0x4 CALLDATASIZE LT PUSH2 0x57 JUMPI PUSH1 0x0 CALLDATALOAD PUSH1 0xE0 SHR DUP1 PUSH4 0x2BAECEB7 EQ PUSH2 0x5C JUMPI DUP1 PUSH4 0x3FA4F245 EQ PUSH2 0x66 JUMPI DUP1 PUSH4 0x9FA6A6E3 EQ PUSH2 0x84 JUMPI DUP1 PUSH4 0xD09DE08A EQ PUSH2 0xA2 JUMPI DUP1 PUSH4 0xD826F88F EQ PUSH2 0xAC JUMPI JUMPDEST PUSH1 0x0 DUP1 REVERT JUMPDEST PUSH2 0x64 PUSH2 0xB6 JUMP JUMPDEST STOP JUMPDEST PUSH2 0x6E PUSH2 0xCF JUMP JUMPDEST PUSH1 0x40 MLOAD PUSH2 0x7B SWAP2 SWAP1 PUSH2 0x119 JUMP JUMPDEST PUSH1 0x40 MLOAD DUP1 SWAP2 SUB SWAP1 RETURN JUMPDEST PUSH2 0x8C PUSH2 0xD5 JUMP JUMPDEST PUSH1 0x40 MLOAD PUSH2 0x99 SWAP2 SWAP1 PUSH2 0x119 JUMP JUMPDEST PUSH1 0x40 MLOAD DUP1 SWAP2 SUB SWAP1 RETURN JUMPDEST PUSH2 0xAA PUSH2 0xDE JUMP JUMPDEST STOP JUMPDEST PUSH2 0xB4 PUSH2 0xF7 JUMP JUMPDEST STOP JUMPDEST PUSH1 0x0 DUP1 DUP2 SLOAD DUP1 SWAP3 SWAP2 SWAP1 PUSH2 0xC8 SWAP1 PUSH2 0x163 JUMP JUMPDEST SWAP2 SWAP1 POP SSTORE POP JUMP JUMPDEST PUSH1 0x0 SLOAD DUP2 JUMP JUMPDEST PUSH1 0x0 DUP1 SLOAD SWAP1 POP SWAP1 JUMP JUMPDEST PUSH1 0x0 DUP1 DUP2 SLOAD DUP1 SWAP3 SWAP2 SWAP1 PUSH2 0xF0 SWAP1 PUSH2 0x18C JUMP JUMPDEST SWAP2 SWAP1 POP SSTORE POP JUMP JUMPDEST PUSH1 0x0 DUP1 DUP2 SWAP1 SSTORE POP JUMP JUMPDEST PUSH1 0x0 DUP2 SWAP1 POP SWAP2 SWAP1 POP JUMP JUMPDEST PUSH2 0x113 DUP2 PUSH2 0x100 JUMP JUMPDEST DUP3 MSTORE POP POP JUMP JUMPDEST PUSH1 0x0 PUSH1 0x20 DUP3 ADD SWAP1 POP PUSH2 0x12E PUSH1 0x0 DUP4 ADD DUP5 PUSH2 0x10A JUMP JUMPDEST SWAP3 SWAP2 POP POP JUMP JUMPDEST PUSH32 0x4E487B7100000000000000000000000000000000000000000000000000000000 PUSH1 0x0 MSTORE PUSH1 0x11 PUSH1 0x4 MSTORE PUSH1 0x24 PUSH1 0x0 REVERT JUMPDEST PUSH1 0x0 PUSH2 0x16E DUP3 PUSH2 0x100 JUMP JUMPDEST SWAP2 POP PUSH1 0x0 DUP3 SUB PUSH2 0x181 JUMPI PUSH2 0x180 PUSH2 0x134 JUMP JUMPDEST JUMPDEST PUSH1 0x1 DUP3 SUB SWAP1 POP SWAP2 SWAP1 POP JUMP JUMPDEST PUSH1 0x0 PUSH2 0x197 DUP3 PUSH2 0x100 JUMP JUMPDEST SWAP2 POP PUSH32 0xFFFFFFFFFFFFFFFFFFFFFFFFFFFFFFFFFFFFFFFFFFFFFFFFFFFFFFFFFFFFFFFF DUP3 SUB PUSH2 0x1C9 JUMPI PUSH2 0x1C8 PUSH2 0x134 JUMP JUMPDEST JUMPDEST PUSH1 0x1 DUP3 ADD SWAP1 POP SWAP2 SWAP1 POP JUMP INVALID LOG2 PUSH5 0x6970667358 0x22 SLT KECCAK256 0x29 0xA8 JUMPDEST EXTCODESIZE SWAP1 PUSH12 0x86829294BD6764164E1877F0 0xDF 0xCC SHL MOD 0x21 BLOCKHASH 0xD1 0xBD CALLVALUE REVERT PC PUSH22 0x18D064736F6C63430008120033000000000000000000 "
				},
				"gasEstimates": {
					"creation": {
						"codeDepositCost": "104400",
						"executionCost": "153",
						"totalCost": "104553"
					},
					"external": {
						"current()": "2459",
						"decrement()": "24479",
						"increment()": "24545",
						"reset()": "5224",
						"value()": "2429"
					}
				},
				"methodIdentifiers": {
					"current()": "9fa6a6e3",
					"decrement()": "2baeceb7",
					"increment()": "d09de08a",
					"reset()": "d826f88f",
					"value()": "3fa4f245"
				}
			},
			"storageLayout": {
				"storage": [
					{
						"astId": 431,
						"contract": ".deps/contracts/Counter.sol:Counter",
						"label": "value",
						"offset": 0,
						"slot": "0",
						"type": "t_uint256"
					}
				],
				"types": {
					"t_uint256": {
						"encoding": "inplace",
						"label": "uint256",
						"numberOfBytes": "32"
					}
				}
			},
			"userdoc": {
				"kind": "user",
				"methods": {},
				"version": 1
			}
		}
	}
}